{
  "abi": [
    {
      "type": "function",
      "name": "cancelL1ToL2Message",
      "inputs": [
        {
          "name": "toAddress",
          "type": "uint256",
          "internalType": "uint256"
        },
        {
          "name": "selector",
          "type": "uint256",
          "internalType": "uint256"
        },
        {
          "name": "payload",
          "type": "uint256[]",
          "internalType": "uint256[]"
        },
        {
          "name": "nonce",
          "type": "uint256",
          "internalType": "uint256"
        }
      ],
      "outputs": [
        {
          "name": "",
          "type": "bytes32",
          "internalType": "bytes32"
        }
      ],
      "stateMutability": "nonpayable"
    },
    {
      "type": "function",
      "name": "configHash",
      "inputs": [],
      "outputs": [
        {
          "name": "",
          "type": "uint256",
          "internalType": "uint256"
        }
      ],
      "stateMutability": "view"
    },
    {
      "type": "function",
      "name": "consumeMessageFromL2",
      "inputs": [
        {
          "name": "fromAddress",
          "type": "uint256",
          "internalType": "uint256"
        },
        {
          "name": "payload",
          "type": "uint256[]",
          "internalType": "uint256[]"
        }
      ],
      "outputs": [
        {
          "name": "",
          "type": "bytes32",
          "internalType": "bytes32"
        }
      ],
      "stateMutability": "nonpayable"
    },
    {
      "type": "function",
      "name": "finalize",
      "inputs": [],
      "outputs": [],
      "stateMutability": "nonpayable"
    },
    {
      "type": "function",
      "name": "getMaxL1MsgFee",
      "inputs": [],
      "outputs": [
        {
          "name": "",
          "type": "uint256",
          "internalType": "uint256"
        }
      ],
      "stateMutability": "pure"
    },
    {
      "type": "function",
      "name": "identify",
      "inputs": [],
      "outputs": [
        {
          "name": "",
          "type": "string",
          "internalType": "string"
        }
      ],
      "stateMutability": "pure"
    },
    {
      "type": "function",
      "name": "initialize",
      "inputs": [
        {
          "name": "data",
          "type": "bytes",
          "internalType": "bytes"
        }
      ],
      "outputs": [],
      "stateMutability": "nonpayable"
    },
    {
      "type": "function",
      "name": "isFinalized",
      "inputs": [],
      "outputs": [
        {
          "name": "",
          "type": "bool",
          "internalType": "bool"
        }
      ],
      "stateMutability": "view"
    },
    {
      "type": "function",
      "name": "isFrozen",
      "inputs": [],
      "outputs": [
        {
          "name": "",
          "type": "bool",
          "internalType": "bool"
        }
      ],
      "stateMutability": "view"
    },
    {
      "type": "function",
      "name": "isOperator",
      "inputs": [
        {
          "name": "user",
          "type": "address",
          "internalType": "address"
        }
      ],
      "outputs": [
        {
          "name": "",
          "type": "bool",
          "internalType": "bool"
        }
      ],
      "stateMutability": "view"
    },
    {
      "type": "function",
      "name": "l1ToL2MessageCancellations",
      "inputs": [
        {
          "name": "msgHash",
          "type": "bytes32",
          "internalType": "bytes32"
        }
      ],
      "outputs": [
        {
          "name": "",
          "type": "uint256",
          "internalType": "uint256"
        }
      ],
      "stateMutability": "view"
    },
    {
      "type": "function",
      "name": "l1ToL2MessageNonce",
      "inputs": [],
      "outputs": [
        {
          "name": "",
          "type": "uint256",
          "internalType": "uint256"
        }
      ],
      "stateMutability": "view"
    },
    {
      "type": "function",
      "name": "l1ToL2Messages",
      "inputs": [
        {
          "name": "msgHash",
          "type": "bytes32",
          "internalType": "bytes32"
        }
      ],
      "outputs": [
        {
          "name": "",
          "type": "uint256",
          "internalType": "uint256"
        }
      ],
      "stateMutability": "view"
    },
    {
      "type": "function",
      "name": "l2ToL1Messages",
      "inputs": [
        {
          "name": "msgHash",
          "type": "bytes32",
          "internalType": "bytes32"
        }
      ],
      "outputs": [
        {
          "name": "",
          "type": "uint256",
          "internalType": "uint256"
        }
      ],
      "stateMutability": "view"
    },
    {
      "type": "function",
      "name": "messageCancellationDelay",
      "inputs": [],
      "outputs": [
        {
          "name": "",
          "type": "uint256",
          "internalType": "uint256"
        }
      ],
      "stateMutability": "view"
    },
    {
      "type": "function",
      "name": "programHash",
      "inputs": [],
      "outputs": [
        {
          "name": "",
          "type": "uint256",
          "internalType": "uint256"
        }
      ],
      "stateMutability": "view"
    },
    {
      "type": "function",
      "name": "registerOperator",
      "inputs": [
        {
          "name": "newOperator",
          "type": "address",
          "internalType": "address"
        }
      ],
      "outputs": [],
      "stateMutability": "nonpayable"
    },
    {
      "type": "function",
      "name": "sendMessageToL2",
      "inputs": [
        {
          "name": "toAddress",
          "type": "uint256",
          "internalType": "uint256"
        },
        {
          "name": "selector",
          "type": "uint256",
          "internalType": "uint256"
        },
        {
          "name": "payload",
          "type": "uint256[]",
          "internalType": "uint256[]"
        }
      ],
      "outputs": [
        {
          "name": "",
          "type": "bytes32",
          "internalType": "bytes32"
        },
        {
          "name": "",
          "type": "uint256",
          "internalType": "uint256"
        }
      ],
      "stateMutability": "payable"
    },
    {
      "type": "function",
      "name": "setConfigHash",
      "inputs": [
        {
          "name": "newConfigHash",
          "type": "uint256",
          "internalType": "uint256"
        }
      ],
      "outputs": [],
      "stateMutability": "nonpayable"
    },
    {
      "type": "function",
      "name": "setMessageCancellationDelay",
      "inputs": [
        {
          "name": "delayInSeconds",
          "type": "uint256",
          "internalType": "uint256"
        }
      ],
      "outputs": [],
      "stateMutability": "nonpayable"
    },
    {
      "type": "function",
      "name": "setProgramHash",
      "inputs": [
        {
          "name": "newProgramHash",
          "type": "uint256",
          "internalType": "uint256"
        }
      ],
      "outputs": [],
      "stateMutability": "nonpayable"
    },
    {
      "type": "function",
      "name": "starknetAcceptGovernance",
      "inputs": [],
      "outputs": [],
      "stateMutability": "nonpayable"
    },
    {
      "type": "function",
      "name": "starknetCancelNomination",
      "inputs": [],
      "outputs": [],
      "stateMutability": "nonpayable"
    },
    {
      "type": "function",
      "name": "starknetIsGovernor",
      "inputs": [
        {
          "name": "user",
          "type": "address",
          "internalType": "address"
        }
      ],
      "outputs": [
        {
          "name": "",
          "type": "bool",
          "internalType": "bool"
        }
      ],
      "stateMutability": "view"
    },
    {
      "type": "function",
      "name": "starknetNominateNewGovernor",
      "inputs": [
        {
          "name": "newGovernor",
          "type": "address",
          "internalType": "address"
        }
      ],
      "outputs": [],
      "stateMutability": "nonpayable"
    },
    {
      "type": "function",
      "name": "starknetRemoveGovernor",
      "inputs": [
        {
          "name": "governorForRemoval",
          "type": "address",
          "internalType": "address"
        }
      ],
      "outputs": [],
      "stateMutability": "nonpayable"
    },
    {
      "type": "function",
      "name": "startL1ToL2MessageCancellation",
      "inputs": [
        {
          "name": "toAddress",
          "type": "uint256",
          "internalType": "uint256"
        },
        {
          "name": "selector",
          "type": "uint256",
          "internalType": "uint256"
        },
        {
          "name": "payload",
          "type": "uint256[]",
          "internalType": "uint256[]"
        },
        {
          "name": "nonce",
          "type": "uint256",
          "internalType": "uint256"
        }
      ],
      "outputs": [
        {
          "name": "",
          "type": "bytes32",
          "internalType": "bytes32"
        }
      ],
      "stateMutability": "nonpayable"
    },
    {
      "type": "function",
      "name": "stateBlockHash",
      "inputs": [],
      "outputs": [
        {
          "name": "",
          "type": "uint256",
          "internalType": "uint256"
        }
      ],
      "stateMutability": "view"
    },
    {
      "type": "function",
      "name": "stateBlockNumber",
      "inputs": [],
      "outputs": [
        {
          "name": "",
          "type": "int256",
          "internalType": "int256"
        }
      ],
      "stateMutability": "view"
    },
    {
      "type": "function",
      "name": "stateRoot",
      "inputs": [],
      "outputs": [
        {
          "name": "",
          "type": "uint256",
          "internalType": "uint256"
        }
      ],
      "stateMutability": "view"
    },
    {
      "type": "function",
      "name": "unregisterOperator",
      "inputs": [
        {
          "name": "removedOperator",
          "type": "address",
          "internalType": "address"
        }
      ],
      "outputs": [],
      "stateMutability": "nonpayable"
    },
    {
      "type": "function",
      "name": "updateState",
      "inputs": [
        {
          "name": "programOutput",
          "type": "uint256[]",
          "internalType": "uint256[]"
        },
        {
          "name": "onchainDataHash",
          "type": "uint256",
          "internalType": "uint256"
        },
        {
          "name": "onchainDataSize",
          "type": "uint256",
          "internalType": "uint256"
        }
      ],
      "outputs": [],
      "stateMutability": "nonpayable"
    },
    {
      "type": "function",
      "name": "updateStateKzgDA",
      "inputs": [
        {
          "name": "programOutput",
          "type": "uint256[]",
          "internalType": "uint256[]"
        },
        {
          "name": "kzgProof",
          "type": "bytes",
          "internalType": "bytes"
        }
      ],
      "outputs": [],
      "stateMutability": "nonpayable"
    },
    {
      "type": "event",
      "name": "ConfigHashChanged",
      "inputs": [
        {
          "name": "changedBy",
          "type": "address",
          "indexed": true,
          "internalType": "address"
        },
        {
          "name": "oldConfigHash",
          "type": "uint256",
          "indexed": false,
          "internalType": "uint256"
        },
        {
          "name": "newConfigHash",
          "type": "uint256",
          "indexed": false,
          "internalType": "uint256"
        }
      ],
      "anonymous": false
    },
    {
      "type": "event",
      "name": "ConsumedMessageToL1",
      "inputs": [
        {
          "name": "fromAddress",
          "type": "uint256",
          "indexed": true,
          "internalType": "uint256"
        },
        {
          "name": "toAddress",
          "type": "address",
          "indexed": true,
          "internalType": "address"
        },
        {
          "name": "payload",
          "type": "uint256[]",
          "indexed": false,
          "internalType": "uint256[]"
        }
      ],
      "anonymous": false
    },
    {
      "type": "event",
      "name": "ConsumedMessageToL2",
      "inputs": [
        {
          "name": "fromAddress",
          "type": "address",
          "indexed": true,
          "internalType": "address"
        },
        {
          "name": "toAddress",
          "type": "uint256",
          "indexed": true,
          "internalType": "uint256"
        },
        {
          "name": "selector",
          "type": "uint256",
          "indexed": true,
          "internalType": "uint256"
        },
        {
          "name": "payload",
          "type": "uint256[]",
          "indexed": false,
          "internalType": "uint256[]"
        },
        {
          "name": "nonce",
          "type": "uint256",
          "indexed": false,
          "internalType": "uint256"
        }
      ],
      "anonymous": false
    },
    {
      "type": "event",
      "name": "Finalized",
      "inputs": [],
      "anonymous": false
    },
    {
      "type": "event",
      "name": "LogMessageToL1",
      "inputs": [
        {
          "name": "fromAddress",
          "type": "uint256",
          "indexed": true,
          "internalType": "uint256"
        },
        {
          "name": "toAddress",
          "type": "address",
          "indexed": true,
          "internalType": "address"
        },
        {
          "name": "payload",
          "type": "uint256[]",
          "indexed": false,
          "internalType": "uint256[]"
        }
      ],
      "anonymous": false
    },
    {
      "type": "event",
      "name": "LogMessageToL2",
      "inputs": [
        {
          "name": "fromAddress",
          "type": "address",
          "indexed": true,
          "internalType": "address"
        },
        {
          "name": "toAddress",
          "type": "uint256",
          "indexed": true,
          "internalType": "uint256"
        },
        {
          "name": "selector",
          "type": "uint256",
          "indexed": true,
          "internalType": "uint256"
        },
        {
          "name": "payload",
          "type": "uint256[]",
          "indexed": false,
          "internalType": "uint256[]"
        },
        {
          "name": "nonce",
          "type": "uint256",
          "indexed": false,
          "internalType": "uint256"
        },
        {
          "name": "fee",
          "type": "uint256",
          "indexed": false,
          "internalType": "uint256"
        }
      ],
      "anonymous": false
    },
    {
      "type": "event",
      "name": "LogNewGovernorAccepted",
      "inputs": [
        {
          "name": "acceptedGovernor",
          "type": "address",
          "indexed": false,
          "internalType": "address"
        }
      ],
      "anonymous": false
    },
    {
      "type": "event",
      "name": "LogNominatedGovernor",
      "inputs": [
        {
          "name": "nominatedGovernor",
          "type": "address",
          "indexed": false,
          "internalType": "address"
        }
      ],
      "anonymous": false
    },
    {
      "type": "event",
      "name": "LogNominationCancelled",
      "inputs": [],
      "anonymous": false
    },
    {
      "type": "event",
      "name": "LogOperatorAdded",
      "inputs": [
        {
          "name": "operator",
          "type": "address",
          "indexed": false,
          "internalType": "address"
        }
      ],
      "anonymous": false
    },
    {
      "type": "event",
      "name": "LogOperatorRemoved",
      "inputs": [
        {
          "name": "operator",
          "type": "address",
          "indexed": false,
          "internalType": "address"
        }
      ],
      "anonymous": false
    },
    {
      "type": "event",
      "name": "LogRemovedGovernor",
      "inputs": [
        {
          "name": "removedGovernor",
          "type": "address",
          "indexed": false,
          "internalType": "address"
        }
      ],
      "anonymous": false
    },
    {
      "type": "event",
      "name": "LogStateTransitionFact",
      "inputs": [
        {
          "name": "stateTransitionFact",
          "type": "bytes32",
          "indexed": false,
          "internalType": "bytes32"
        }
      ],
      "anonymous": false
    },
    {
      "type": "event",
      "name": "LogStateUpdate",
      "inputs": [
        {
          "name": "globalRoot",
          "type": "uint256",
          "indexed": false,
          "internalType": "uint256"
        },
        {
          "name": "blockNumber",
          "type": "int256",
          "indexed": false,
          "internalType": "int256"
        },
        {
          "name": "blockHash",
          "type": "uint256",
          "indexed": false,
          "internalType": "uint256"
        }
      ],
      "anonymous": false
    },
    {
      "type": "event",
      "name": "MessageToL2Canceled",
      "inputs": [
        {
          "name": "fromAddress",
          "type": "address",
          "indexed": true,
          "internalType": "address"
        },
        {
          "name": "toAddress",
          "type": "uint256",
          "indexed": true,
          "internalType": "uint256"
        },
        {
          "name": "selector",
          "type": "uint256",
          "indexed": true,
          "internalType": "uint256"
        },
        {
          "name": "payload",
          "type": "uint256[]",
          "indexed": false,
          "internalType": "uint256[]"
        },
        {
          "name": "nonce",
          "type": "uint256",
          "indexed": false,
          "internalType": "uint256"
        }
      ],
      "anonymous": false
    },
    {
      "type": "event",
      "name": "MessageToL2CancellationStarted",
      "inputs": [
        {
          "name": "fromAddress",
          "type": "address",
          "indexed": true,
          "internalType": "address"
        },
        {
          "name": "toAddress",
          "type": "uint256",
          "indexed": true,
          "internalType": "uint256"
        },
        {
          "name": "selector",
          "type": "uint256",
          "indexed": true,
          "internalType": "uint256"
        },
        {
          "name": "payload",
          "type": "uint256[]",
          "indexed": false,
          "internalType": "uint256[]"
        },
        {
          "name": "nonce",
          "type": "uint256",
          "indexed": false,
          "internalType": "uint256"
        }
      ],
      "anonymous": false
    },
    {
      "type": "event",
      "name": "ProgramHashChanged",
      "inputs": [
        {
          "name": "changedBy",
          "type": "address",
          "indexed": true,
          "internalType": "address"
        },
        {
          "name": "oldProgramHash",
          "type": "uint256",
          "indexed": false,
          "internalType": "uint256"
        },
        {
          "name": "newProgramHash",
          "type": "uint256",
          "indexed": false,
          "internalType": "uint256"
        }
      ],
      "anonymous": false
    }
  ],
  "bytecode": {
    "object": "0x60a0604052348015600e575f80fd5b503060805260805161366261002b5f395f610a0901526136625ff3fe6080604052600436106101e6575f3560e01c80637a98660b1161010857806396115bc21161009d578063c99d397f1161006d578063c99d397f14610507578063e1f1176d14610526578063e37fec251461053a578063e87e73321461054e578063eeb728661461056d575f80fd5b806396115bc21461048b5780639be446bf146104aa578063a46efaf3146104c9578063b72d42a1146104e8575f80fd5b80638d4e4083116100d85780638d4e40831461043057806391a66a2614610444578063946be3ed146104635780639588eca214610477575f80fd5b80637a98660b146103ca5780638303bd8a146103e957806384f921cd146103fd5780638a9bf0901461041c575f80fd5b80633e3aa6c51161017e5780636170ff1b1161014e5780636170ff1b1461034e5780636d70f7ae1461036d578063775526411461038c57806377c7d7a9146103ab575f80fd5b80633e3aa6c5146102d9578063439fab91146103015780634bb278f31461032057806354eccba414610334575f80fd5b806335befa5d116101b957806335befa5d146102715780633682a45014610285578063382d83e3146102a65780633d07b336146102ba575f80fd5b8063018cccdf146101ea57806301a01590146102115780632c9dd5c01461024057806333eeb1471461025f575b5f80fd5b3480156101f5575f80fd5b506101fe6105b8565b6040519081526020015b60405180910390f35b34801561021c575f80fd5b5061023061022b366004612e08565b6105fc565b6040519015158152602001610208565b34801561024b575f80fd5b506101fe61025a366004612e6b565b61060c565b34801561026a575f80fd5b505f610230565b34801561027c575f80fd5b506101fe610724565b348015610290575f80fd5b506102a461029f366004612e08565b610736565b005b3480156102b1575f80fd5b506101fe6107d0565b3480156102c5575f80fd5b506102a46102d4366004612eb3565b6107e2565b6102ec6102e7366004612eca565b610876565b60408051928352602083019190915201610208565b34801561030c575f80fd5b506102a461031b366004612f57565b610a06565b34801561032b575f80fd5b506102a4610bb6565b34801561033f575f80fd5b50670de0b6b3a76400006101fe565b348015610359575f80fd5b506101fe610368366004612f96565b610c4d565b348015610378575f80fd5b50610230610387366004612e08565b610e60565b348015610397575f80fd5b506102a46103a6366004612fec565b610e8a565b3480156103b6575f80fd5b506101fe6103c5366004612eb3565b611024565b3480156103d5575f80fd5b506101fe6103e4366004612f96565b61103d565b3480156103f4575f80fd5b506101fe611116565b348015610408575f80fd5b506102a4610417366004612e08565b611138565b348015610427575f80fd5b506101fe611141565b34801561043b575f80fd5b50610230611163565b34801561044f575f80fd5b506102a461045e366004612e08565b611185565b34801561046e575f80fd5b506102a461118e565b348015610482575f80fd5b506101fe611198565b348015610496575f80fd5b506102a46104a5366004612e08565b6111a7565b3480156104b5575f80fd5b506101fe6104c4366004612eb3565b611239565b3480156104d4575f80fd5b506101fe6104e3366004612eb3565b611242565b3480156104f3575f80fd5b506102a4610502366004613039565b61124b565b348015610512575f80fd5b506102a4610521366004612eb3565b611387565b348015610531575f80fd5b506101fe6113da565b348015610545575f80fd5b506102a46113fc565b348015610559575f80fd5b506102a4610568366004612eb3565b611404565b348015610578575f80fd5b50604080518082018252601981527f537461726b576172655f537461726b6e65745f323032345f3800000000000000602082015290516102089190613099565b5f6105f76040518060400160405280602081526020017f535441524b4e45545f312e305f4d5347494e475f4c31544f4c325f4e4f4e4345815250611498565b905090565b5f610606826114cb565b92915050565b6040515f90819061062990869033908690889082906020016130f5565b6040516020818303038152906040528051906020012090505f61064a6114f7565b5f8381526020919091526040902054116106ab5760405162461bcd60e51b815260206004820152601a60248201527f494e56414c49445f4d4553534147455f544f5f434f4e53554d4500000000000060448201526064015b60405180910390fd5b336001600160a01b0316857f7a06c571aa77f34d9706c51e5d8122b5595aebeaa34233bfe866f22befb973b186866040516106e7929190613143565b60405180910390a360016106f96114f7565b5f8381526020019081526020015f205f8282546107169190613172565b909155509095945050505050565b5f61072d611519565b60010154905090565b61073f336114cb565b61075b5760405162461bcd60e51b81526004016106a290613185565b61076481610e60565b6107cd576001610772611562565b6001600160a01b0383165f8181526020928352604090819020805460ff19169415159490941790935591519182527f50a18c352ee1c02ffe058e15c2eb6e58be387c81e73cc1e17035286e54c19a5791015b60405180910390a15b50565b5f6107d9611519565b60020154905090565b6107ea611163565b156108075760405162461bcd60e51b81526004016106a2906131ae565b610810336114cb565b61082c5760405162461bcd60e51b81526004016106a290613185565b337f393c6beb5756a944b2967f15f31ff671e312e945d7a84fd3bdcfd6b408b2dc796108566113da565b60408051918252602082018590520160405180910390a26107cd81611584565b5f805f34116108d15760405162461bcd60e51b815260206004820152602160248201527f4c315f4d53475f4645455f4d5553545f42455f475245415445525f5448414e5f6044820152600360fc1b60648201526084016106a2565b670de0b6b3a76400003411156109295760405162461bcd60e51b815260206004820152601760248201527f4d41585f4c315f4d53475f4645455f455843454544454400000000000000000060448201526064016106a2565b5f6109326105b8565b905061097f6040518060400160405280602081526020017f535441524b4e45545f312e305f4d5347494e475f4c31544f4c325f4e4f4e434581525082600161097a91906131d1565b6115a2565b8587336001600160a01b03167fdb80dd488acf86d17c747445b0eabb5d57c541d3bd7b6b87af987858e5066b2b888886346040516109c094939291906131e4565b60405180910390a45f6109d688888888866115d4565b90506109e33460016131d1565b6109eb611614565b5f838152602091909152604090205597909650945050505050565b307f00000000000000000000000000000000000000000000000000000000000000006001600160a01b031603610a775760405162461bcd60e51b81526020600482015260166024820152751112549150d517d0d0531317d11254d0531313d5d15160521b60448201526064016106a2565b5f610a8381602061320a565b90505f610a918260206131d1565b905080831015610ad95760405162461bcd60e51b81526020600482015260136024820152721253925517d110551057d513d3d7d4d3505313606a1b60448201526064016106a2565b5f610ae682848688613221565b810190610af39190612e08565b9050365f610b038582888a613221565b91509150365f610b158887818c613221565b90925090506001600160a01b03851615610b3f57610b34858383611636565b505050505050505050565b610b4761176c565b15610b96578015610b915760405162461bcd60e51b8152602060048201526014602482015273554e45585045435445445f494e49545f4441544160601b60448201526064016106a2565b610b34565b610ba0828261177c565b610baa828261182b565b610b34611891565b5050565b610bbf336114cb565b610bdb5760405162461bcd60e51b81526004016106a290613185565b610be3611163565b15610c005760405162461bcd60e51b81526004016106a2906131ae565b610c236040518060600160405280603181526020016135fc6031913960016115a2565b6040517f6823b073d48d6e3a7d385eeb601452d680e74bb46afe3255a7d778f3a9b17681905f90a1565b5f8486336001600160a01b03167f8abd2ec2e0a10c82f5b60ea00455fa96c41fd144f225fcc52b8d83d94f803ed8878787604051610c8d93929190613248565b60405180910390a45f610ca387878787876115d4565b90505f610cae611614565b5f83815260209190915260408120549150819003610d055760405162461bcd60e51b81526020600482015260146024820152731393d7d35154d4d051d157d513d7d0d05390d15360621b60448201526064016106a2565b5f610d0e61190d565b5f84815260209190915260408120549150819003610d795760405162461bcd60e51b815260206004820152602260248201527f4d4553534147455f43414e43454c4c4154494f4e5f4e4f545f52455155455354604482015261115160f21b60648201526084016106a2565b5f610d82611116565b610d8c90836131d1565b905081811015610dde5760405162461bcd60e51b815260206004820152601c60248201527f43414e43454c5f414c4c4f5745445f54494d455f4f564552464c4f570000000060448201526064016106a2565b80421015610e3a5760405162461bcd60e51b8152602060048201526024808201527f4d4553534147455f43414e43454c4c4154494f4e5f4e4f545f414c4c4f57454460448201526317d6515560e21b60648201526084016106a2565b5f610e43611614565b5f8681526020919091526040902055509198975050505050505050565b5f610e69611562565b6001600160a01b039092165f90815260209290925250604090205460ff1690565b610e9333610e60565b610ecf5760405162461bcd60e51b815260206004820152600d60248201526c27a7262cafa7a822a920aa27a960991b60448201526064016106a2565b5f610ed8611519565b60010154905060068411610f2a5760405162461bcd60e51b815260206004820152601960248201527814d5105492d3915517d3d55514155517d513d3d7d4d213d495603a1b60448201526064016106a2565b84846005818110610f3d57610f3d61326b565b905060200201355f14610f8b5760405162461bcd60e51b8152602060048201526016602482015275554e45585045435445445f4b5a475f44415f464c414760501b60448201526064016106a2565b5f610fab868660405180604001604052808881526020018781525061192f565b9050610fb88686836119a4565b610fc382600161327f565b610fcb611519565b600101541461101c5760405162461bcd60e51b815260206004820152601a60248201527f494e56414c49445f46494e414c5f424c4f434b5f4e554d42455200000000000060448201526064016106a2565b505050505050565b5f61102d611614565b5f92835260205250604090205490565b5f8486336001600160a01b03167f2e00dccd686fd6823ec7dc3e125582aa82881b6ff5f6b5a73856e1ea8338a3be87878760405161107d93929190613248565b60405180910390a45f61109387878787876115d4565b90505f61109e611614565b5f83815260209190915260409020549050806110f35760405162461bcd60e51b81526020600482015260146024820152731393d7d35154d4d051d157d513d7d0d05390d15360621b60448201526064016106a2565b426110fc61190d565b5f8481526020919091526040902055509695505050505050565b5f6105f76040518060600160405280602d8152602001613565602d9139611498565b6107cd81611c67565b5f6105f760405180606001604052806023815260200161354260239139611498565b5f6105f76040518060600160405280603181526020016135fc60319139611498565b6107cd81611d80565b611196611ee8565b565b5f6111a1611519565b54919050565b6111b0336114cb565b6111cc5760405162461bcd60e51b81526004016106a290613185565b6111d581610e60565b156107cd575f6111e3611562565b6001600160a01b0383165f8181526020928352604090819020805460ff19169415159490941790935591519182527fec5f6c3a91a1efb1f9a308bb33c6e9e66bf9090fad0732f127dfdbf516d0625d91016107c4565b5f61102d61190d565b5f61102d6114f7565b61125433610e60565b6112905760405162461bcd60e51b815260206004820152600d60248201526c27a7262cafa7a822a920aa27a960991b60448201526064016106a2565b5f611299611519565b6001015490506112ab600560066131d1565b84116112f55760405162461bcd60e51b815260206004820152601960248201527814d5105492d3915517d3d55514155517d513d3d7d4d213d495603a1b60448201526064016106a2565b848460058181106113085761130861326b565b905060200201356001146113575760405162461bcd60e51b8152602060048201526016602482015275554e45585045435445445f4b5a475f44415f464c414760501b60448201526064016106a2565b61137c61136785600681896132a6565b611375916005915f916132a6565b8585611f6c565b5f610fab86866123f8565b61138f611163565b156113ac5760405162461bcd60e51b81526004016106a2906131ae565b6113b5336114cb565b6113d15760405162461bcd60e51b81526004016106a290613185565b6107cd8161242a565b5f6105f760405180606001604052806021815260200161359260219139611498565b61119661244c565b61140c611163565b156114295760405162461bcd60e51b81526004016106a2906131ae565b611432336114cb565b61144e5760405162461bcd60e51b81526004016106a290613185565b337f600a61c1b32ac42fb2fe76e8fc7582a98106668fc16dcd85567cd3937363e49b611478611141565b60408051918252602082018590520160405180910390a26107cd816124cd565b5f80826040516020016114ab91906132e8565b60408051601f198184030181529190528051602090910120549392505050565b5f806114d56124ef565b6001600160a01b039093165f9081526020939093525050604090205460ff1690565b5f6105f76040518060600160405280602381526020016135b360239139612537565b5f8060405180606001604052806027815260200161351b6027913960405160200161154491906132e8565b60408051601f19818403018152919052805160209091012092915050565b5f6105f76040518060600160405280602881526020016134c360289139612537565b6107cd60405180606001604052806021815260200161359260219139825b5f826040516020016115b491906132e8565b604051602081830303815290604052805190602001209050818155505050565b6040515f906115f390339088908590899088908a9082906020016132f3565b60405160208183030381529060405280519060200120905095945050505050565b5f6105f76040518060600160405280602681526020016135d660269139612537565b6001600160a01b0383163b6116825760405162461bcd60e51b8152602060048201526012602482015271115250d7d393d517d057d0d3d395149050d560721b60448201526064016106a2565b5f80846001600160a01b031663439fab9160e01b85856040516024016116a992919061332a565b60408051601f198184030181529181526020820180516001600160e01b03166001600160e01b03199094169390931790925290516116e791906132e8565b5f60405180830381855af49150503d805f811461171f576040519150601f19603f3d011682016040523d82523d5f602084013e611724565b606091505b50915091508181906117495760405162461bcd60e51b81526004016106a29190613099565b50805181901561101c5760405162461bcd60e51b81526004016106a29190613099565b5f611775611141565b1515919050565b60c081146117c55760405162461bcd60e51b8152602060048201526016602482015275494c4c4547414c5f494e49545f444154415f53495a4560501b60448201526064016106a2565b5f6117d36020828486613221565b8101906117e09190612eb3565b9050805f036118265760405162461bcd60e51b81526020600482015260126024820152712120a22fa4a724aa24a0a624ad20aa24a7a760711b60448201526064016106a2565b505050565b5f80808061183b85870187613358565b935093509350935061184c846124cd565b61185583612569565b61187c81611861611519565b90805182556020810151600183015560400151600290910155565b61188582611584565b61101c6206978061242a565b5f61189a6124ef565b6001810154909150600160a01b900460ff16156118ef5760405162461bcd60e51b81526020600482015260136024820152721053149150511657d253925512505312569151606a1b60448201526064016106a2565b60018101805460ff60a01b1916600160a01b1790556107cd3361258b565b5f6105f76040518060600160405280603081526020016134eb60309139612537565b5f828161193c86836123f8565b90505f8183865f015187602001518661195591906131d1565b6040805160208101959095528401929092526060830152608082015260a00160408051601f19818403018152919052805160209091012090506119998160016131d1565b979650505050505050565b6119ac6113da565b838360048181106119bf576119bf61326b565b9050602002013514611a095760405162461bcd60e51b81526020600482015260136024820152720929cac82989288be869e9c8c928ebe9082a69606b1b60448201526064016106a2565b5f611a12611141565b6040805160208101929092528101839052606001604051602081830303815290604052805190602001209050611a46612631565b6001600160a01b0316636a938567826040518263ffffffff1660e01b8152600401611a7391815260200190565b602060405180830381865afa158015611a8e573d5f803e3d5ffd5b505050506040513d601f19601f82011682018060405250810190611ab291906133f6565b611afe5760405162461bcd60e51b815260206004820152601960248201527f4e4f5f53544154455f5452414e534954494f4e5f50524f4f460000000000000060448201526064016106a2565b6040518281527f9866f8ddfe70bb512b2f2b28b49d4017c43f7ba775f1a20c61c13eea8cdac1119060200160405180910390a1611b458484611b3e611519565b9190612653565b5f611b6885856005818110611b5c57611b5c61326b565b90506020020135612765565b9050611b886001611b7b8684818a6132a6565b611b836114f7565b612782565b611b9290826131d1565b9050611bac5f611ba48684818a6132a6565b611b83611614565b611bb690826131d1565b9050838114611c075760405162461bcd60e51b815260206004820152601860248201527f535441524b4e45545f4f55545055545f544f4f5f4c4f4e47000000000000000060448201526064016106a2565b5f611c10611519565b805460018201546002830154604080519384526020840192909252908201529091507fd342ddf7a308dec111745b00315c14b7efb2bdae570a6856e088ed0c65a3576c9060600160405180910390a1505050505050565b611c70336114cb565b611c8c5760405162461bcd60e51b81526004016106a290613185565b6001600160a01b0381163303611cdb5760405162461bcd60e51b8152602060048201526014602482015273474f5645524e4f525f53454c465f52454d4f564560601b60448201526064016106a2565b5f611ce46124ef565b9050611cef826114cb565b611d2a5760405162461bcd60e51b815260206004820152600c60248201526b2727aa2fa3a7ab22a92727a960a11b60448201526064016106a2565b6001600160a01b0382165f8181526020838152604091829020805460ff1916905590519182527fd75f94825e770b8b512be8e74759e252ad00e102e38f50cce2f7c6f868a2959991015b60405180910390a15050565b611d89336114cb565b611da55760405162461bcd60e51b81526004016106a290613185565b5f611dae6124ef565b90506001600160a01b038216611df45760405162461bcd60e51b815260206004820152600b60248201526a4241445f4144445245535360a81b60448201526064016106a2565b611dfd826114cb565b15611e3d5760405162461bcd60e51b815260206004820152601060248201526f20a62922a0a22cafa3a7ab22a92727a960811b60448201526064016106a2565b60018101546001600160a01b031615611e985760405162461bcd60e51b815260206004820152601760248201527f4f544845525f43414e4449444154455f50454e44494e4700000000000000000060448201526064016106a2565b6001810180546001600160a01b0319166001600160a01b0384169081179091556040519081527f6166272c8d3f5f579082f2827532732f97195007983bb5b83ac12c56700b01a690602001611d74565b5f611ef16124ef565b60018101549091506001600160a01b03163314611f505760405162461bcd60e51b815260206004820152601760248201527f4f4e4c595f43414e4449444154455f474f5645524e4f5200000000000000000060448201526064016106a2565b611f593361258b565b60010180546001600160a01b0319169055565b60058314611fbc5760405162461bcd60e51b815260206004820152601860248201527f494e56414c49445f4b5a475f5345474d454e545f53495a45000000000000000060448201526064016106a2565b603081146120055760405162461bcd60e51b8152602060048201526016602482015275494e56414c49445f4b5a475f50524f4f465f53495a4560501b60448201526064016106a2565b5f8049906001600160f81b03199082901a60f81b16600160f81b1461206c5760405162461bcd60e51b815260206004820152601c60248201527f554e45585045435445445f424c4f425f484153485f56455253494f4e0000000060448201526064016106a2565b60605f8087875f8181106120825761208261326b565b9050602002013590505f8888600181811061209f5761209f61326b565b9050602002013590505f898960038181106120bc576120bc61326b565b9050602002013590505f8a8a60048181106120d9576120d961326b565b9050602002013590506001600160c01b0380168411156121345760405162461bcd60e51b81526020600482015260166024820152751253959053125117d2d691d7d0d3d35352551351539560521b60448201526064016106a2565b6001600160c01b038311156121845760405162461bcd60e51b81526020600482015260166024820152751253959053125117d2d691d7d0d3d35352551351539560521b60448201526064016106a2565b6001600160801b038211156121cd5760405162461bcd60e51b815260206004820152600f60248201526e494e56414c49445f595f56414c554560881b60448201526064016106a2565b6001600160801b038111156122165760405162461bcd60e51b815260206004820152600f60248201526e494e56414c49445f595f56414c554560881b60448201526064016106a2565b6040805167ffffffffffffffff1985831b8116602083015286831b166038820152815180820360300181526050909101909152955061225982608083901b6131d1565b5f1b9450505050505f878760028181106122755761227561326b565b905060200201355f1b90505f80600a6001600160a01b0316868486888c8c6040516020016122a896959493929190613415565b60408051601f19818403018152908290526122c2916132e8565b5f60405180830381855afa9150503d805f81146122fa576040519150601f19603f3d011682016040523d82523d5f602084013e6122ff565b606091505b5091509150816123615760405162461bcd60e51b815260206004820152602760248201527f504f494e545f4556414c554154494f4e5f505245434f4d50494c455f43414c4c60448201526617d1905253115160ca1b60648201526084016106a2565b805160208201207fb2157d3a40131b14c4c675335465dffde802f0ce5218ad012284d7f275d1b37c146123ec5760405162461bcd60e51b815260206004820152602d60248201527f554e45585045435445445f504f494e545f4556414c554154494f4e5f5052454360448201526c13d35412531157d3d555141555609a1b60648201526084016106a2565b50505050505050505050565b5f828260405160200161240c929190613448565b60405160208183030381529060405280519060200120905092915050565b6107cd6040518060600160405280602d8152602001613565602d9139826115a2565b612455336114cb565b6124715760405162461bcd60e51b81526004016106a290613185565b5f61247a6124ef565b60018101549091506001600160a01b0316156107cd576001810180546001600160a01b03191690556040517f7a8dc7dd7fffb43c4807438fa62729225156941e641fd877938f4edade3429f5905f90a150565b6107cd60405180606001604052806023815260200161354260239139826115a2565b5f806040518060400160405280601c81526020017f535441524b4e45545f312e305f474f5645524e414e43455f494e464f0000000081525060405160200161154491906132e8565b5f808260405160200161254a91906132e8565b60408051601f1981840301815291905280516020909101209392505050565b6107cd6040518060600160405280602281526020016134a16022913982612d3d565b612594816114cb565b156125d45760405162461bcd60e51b815260206004820152601060248201526f20a62922a0a22cafa3a7ab22a92727a960811b60448201526064016106a2565b5f6125dd6124ef565b6001600160a01b0383165f8181526020838152604091829020805460ff1916600117905590519182529192507fcfb473e6c03f9a29ddaf990e736fa3de5188a0bd85d684f5b6e164ebfbfff5d29101611d74565b5f6105f76040518060600160405280602281526020016134a160229139611498565b6001836001015f828254612667919061327f565b909155508290508160028181106126805761268061326b565b905060200201358360010154146126d05760405162461bcd60e51b815260206004820152601460248201527324a72b20a624a22fa12627a1a5afa72aa6a122a960611b60448201526064016106a2565b818160038181106126e3576126e361326b565b6020029190910135600285015550365f6126fd8484612d95565b9150915061270b8282612dbe565b8554146127525760405162461bcd60e51b81526020600482015260156024820152741253959053125117d41491559253d554d7d493d3d5605a1b60448201526064016106a2565b61275c8282612de0565b90945550505050565b5f81600114612774575f612777565b60055b6106069060066131d1565b5f8084845f8181106127965761279661326b565b905060200201359050634000000081106127f25760405162461bcd60e51b815260206004820152601c60248201527f494e56414c49445f4d4553534147455f5345474d454e545f53495a450000000060448201526064016106a2565b60015f6127ff83836131d1565b90505f8861280e576004612811565b60025b90505f5b82841015612c4d575f61282883866131d1565b905088811061286d5760405162461bcd60e51b8152602060048201526011602482015270135154d4d051d157d513d3d7d4d213d495607a1b60448201526064016106a2565b5f8a8a838181106128805761288061326b565b905060200201359050634000000081106128d55760405162461bcd60e51b81526020600482015260166024820152750929cac82989288bea082b2989e8288be988a9c8ea8960531b60448201526064016106a2565b5f816128e28460016131d1565b6128ec91906131d1565b90508a81111561293e5760405162461bcd60e51b815260206004820152601960248201527f5452554e43415445445f4d4553534147455f5041594c4f41440000000000000060448201526064016106a2565b8c15612a4e575f8c8c89908492612957939291906132a6565b604051602001612968929190613448565b6040516020818303038152906040528051906020012090508c8c60018a61298f91906131d1565b81811061299e5761299e61326b565b905060200201356001600160a01b03168d8d5f8b6129bc91906131d1565b8181106129cb576129cb61326b565b905060200201357f4264ac208b5fde633ccdd42e0f12c3d6d443a4f3779bbf886925b94665b63a228f8f60038d612a0291906131d1565b612a0e928892906132a6565b604051612a1c929190613143565b60405180910390a35f81815260208c905260408120805460019290612a429084906131d1565b90915550612c43915050565b5f8c8c89908492612a61939291906132a6565b604051602001612a72929190613448565b60408051601f1981840301815291815281516020928301205f818152928e905291205490915080612ae55760405162461bcd60e51b815260206004820152601a60248201527f494e56414c49445f4d4553534147455f544f5f434f4e53554d4500000000000060448201526064016106a2565b612af0600182613172565b612afa90876131d1565b5f92835260208d90526040832083905595508d90508c612b1b60028b6131d1565b818110612b2a57612b2a61326b565b9050602002013590505f8d8d60058b612b4391906131d1565b612b4f928692906132a6565b808060200260200160405190810160405280939291908181526020018383602002808284375f81840152601f19601f8201169050808301925050505050505090508d8d60038b612b9f91906131d1565b818110612bae57612bae61326b565b905060200201358e8e60018c612bc491906131d1565b818110612bd357612bd361326b565b905060200201358f8f5f8d612be891906131d1565b818110612bf757612bf761326b565b905060200201356001600160a01b03167f9592d37825c744e33fa80c469683bbd04d336241bb600b574758efd182abe26a8486604051612c38929190613454565b60405180910390a450505b9550612815915050565b828414612c9c5760405162461bcd60e51b815260206004820152601c60248201527f494e56414c49445f4d4553534147455f5345474d454e545f53495a450000000060448201526064016106a2565b8015612d2f576040515f90339083908381818185875af1925050503d805f8114612ce1576040519150601f19603f3d011682016040523d82523d5f602084013e612ce6565b606091505b5050905080612d2d5760405162461bcd60e51b815260206004820152601360248201527211551217d514905394d1915497d19052531151606a1b60448201526064016106a2565b505b509198975050505050505050565b5f612d4783611498565b6001600160a01b031614612d8b5760405162461bcd60e51b815260206004820152600b60248201526a1053149150511657d4d15560aa1b60448201526064016106a2565b610bb282826115a2565b365f838184612da58260026131d1565b92612db2939291906132a6565b915091505b9250929050565b5f82825f818110612dd157612dd161326b565b90506020020135905092915050565b5f82826001818110612dd157612dd161326b565b6001600160a01b03811681146107cd575f80fd5b5f60208284031215612e18575f80fd5b8135612e2381612df4565b9392505050565b5f8083601f840112612e3a575f80fd5b50813567ffffffffffffffff811115612e51575f80fd5b6020830191508360208260051b8501011115612db7575f80fd5b5f805f60408486031215612e7d575f80fd5b83359250602084013567ffffffffffffffff811115612e9a575f80fd5b612ea686828701612e2a565b9497909650939450505050565b5f60208284031215612ec3575f80fd5b5035919050565b5f805f8060608587031215612edd575f80fd5b8435935060208501359250604085013567ffffffffffffffff811115612f01575f80fd5b612f0d87828801612e2a565b95989497509550505050565b5f8083601f840112612f29575f80fd5b50813567ffffffffffffffff811115612f40575f80fd5b602083019150836020828501011115612db7575f80fd5b5f8060208385031215612f68575f80fd5b823567ffffffffffffffff811115612f7e575f80fd5b612f8a85828601612f19565b90969095509350505050565b5f805f805f60808688031215612faa575f80fd5b8535945060208601359350604086013567ffffffffffffffff811115612fce575f80fd5b612fda88828901612e2a565b96999598509660600135949350505050565b5f805f8060608587031215612fff575f80fd5b843567ffffffffffffffff811115613015575f80fd5b61302187828801612e2a565b90989097506020870135966040013595509350505050565b5f805f806040858703121561304c575f80fd5b843567ffffffffffffffff811115613062575f80fd5b61306e87828801612e2a565b909550935050602085013567ffffffffffffffff81111561308d575f80fd5b612f0d87828801612f19565b602081525f82518060208401528060208501604085015e5f604082850101526040601f19601f83011684010191505092915050565b5f6001600160fb1b038311156130e2575f80fd5b8260051b80838637939093019392505050565b8581528460208201528360408201525f6119996060830184866130ce565b8183525f6001600160fb1b0383111561312a575f80fd5b8260051b80836020870137939093016020019392505050565b602081525f613156602083018486613113565b949350505050565b634e487b7160e01b5f52601160045260245ffd5b818103818111156106065761060661315e565b6020808252600f908201526e4f4e4c595f474f5645524e414e434560881b604082015260600190565b60208082526009908201526811925390531256915160ba1b604082015260600190565b808201808211156106065761060661315e565b606081525f6131f7606083018688613113565b6020830194909452506040015292915050565b80820281158282048414176106065761060661315e565b5f808585111561322f575f80fd5b8386111561323b575f80fd5b5050820193919092039150565b604081525f61325b604083018587613113565b9050826020830152949350505050565b634e487b7160e01b5f52603260045260245ffd5b8082018281125f83128015821682158216171561329e5761329e61315e565b505092915050565b5f80858511156132b4575f80fd5b838611156132c0575f80fd5b5050600583901b0193919092039150565b5f81518060208401855e5f93019283525090919050565b5f612e2382846132d1565b8781528660208201528560408201528460608201528360808201525f61331d60a0830184866130ce565b9998505050505050505050565b60208152816020820152818360408301375f818301604090810191909152601f909201601f19160101919050565b5f805f8084860360c081121561336c575f80fd5b85359450602086013561337e81612df4565b9350604086013592506060605f1982011215613398575f80fd5b506040516060810181811067ffffffffffffffff821117156133c857634e487b7160e01b5f52604160045260245ffd5b6040908152606087013582526080870135602083015260a09096013595810195909552509194909350909190565b5f60208284031215613406575f80fd5b81518015158114612e23575f80fd5b8681528560208201528460408201525f61343260608301866132d1565b838582375f930192835250909695505050505050565b5f6131568284866130ce565b604080825283519082018190525f9060208501906060840190835b8181101561348d57835183526020938401939092019160010161346f565b505060209390930193909352509291505056fe535441524b4e45545f312e305f494e49545f56455249464945525f41444452455353535441524b4e45545f312e305f524f4c45535f4f50455241544f52535f4d415050494e475f544147535441524b4e45545f312e305f4d5347494e475f4c31544f4c325f43414e43454c4c4154494f4e5f4d41505050494e47535441524b4e45545f312e305f494e49545f535441524b4e45545f53544154455f535452554354535441524b4e45545f312e305f494e49545f50524f4752414d5f484153485f55494e54535441524b4e45545f312e305f4d5347494e475f4c31544f4c325f43414e43454c4c4154494f4e5f44454c4159535441524b4e45545f312e305f535441524b4e45545f434f4e4649475f48415348535441524b4e45545f312e305f4d5347494e475f4c32544f4c315f4d41505050494e47535441524b4e45545f312e305f4d5347494e475f4c31544f4c325f4d41505050494e475f5632535441524b574152455f434f4e5452414354535f474f564552454e45445f46494e414c495a41424c455f312e305f544147a26469706673582212200f4256bd864f0f652a126e0e7e6301c59d516d81038b47d56e99f564ee7d47b164736f6c634300081a0033",
    "linkReferences": {}
  },
  "methodIdentifiers": {
    "cancelL1ToL2Message(uint256,uint256,uint256[],uint256)": "6170ff1b",
    "configHash()": "e1f1176d",
    "consumeMessageFromL2(uint256,uint256[])": "2c9dd5c0",
    "finalize()": "4bb278f3",
    "getMaxL1MsgFee()": "54eccba4",
    "identify()": "eeb72866",
    "initialize(bytes)": "439fab91",
    "isFinalized()": "8d4e4083",
    "isFrozen()": "33eeb147",
    "isOperator(address)": "6d70f7ae",
    "l1ToL2MessageCancellations(bytes32)": "9be446bf",
    "l1ToL2MessageNonce()": "018cccdf",
    "l1ToL2Messages(bytes32)": "77c7d7a9",
    "l2ToL1Messages(bytes32)": "a46efaf3",
    "messageCancellationDelay()": "8303bd8a",
    "programHash()": "8a9bf090",
    "registerOperator(address)": "3682a450",
    "sendMessageToL2(uint256,uint256,uint256[])": "3e3aa6c5",
    "setConfigHash(uint256)": "3d07b336",
    "setMessageCancellationDelay(uint256)": "c99d397f",
    "setProgramHash(uint256)": "e87e7332",
    "starknetAcceptGovernance()": "946be3ed",
    "starknetCancelNomination()": "e37fec25",
    "starknetIsGovernor(address)": "01a01590",
    "starknetNominateNewGovernor(address)": "91a66a26",
    "starknetRemoveGovernor(address)": "84f921cd",
    "startL1ToL2MessageCancellation(uint256,uint256,uint256[],uint256)": "7a98660b",
    "stateBlockHash()": "382d83e3",
    "stateBlockNumber()": "35befa5d",
    "stateRoot()": "9588eca2",
    "unregisterOperator(address)": "96115bc2",
    "updateState(uint256[],uint256,uint256)": "77552641",
    "updateStateKzgDA(uint256[],bytes)": "b72d42a1"
  },
  "id": 16
}