{
  "abi": [
    {
      "type": "function",
      "name": "aggregatorProgramHash",
      "inputs": [],
      "outputs": [
        {
          "name": "",
          "type": "uint256",
          "internalType": "uint256"
        }
      ],
      "stateMutability": "view"
    },
    {
      "type": "function",
      "name": "cancelL1ToL2Message",
      "inputs": [
        {
          "name": "toAddress",
          "type": "uint256",
          "internalType": "uint256"
        },
        {
          "name": "selector",
          "type": "uint256",
          "internalType": "uint256"
        },
        {
          "name": "payload",
          "type": "uint256[]",
          "internalType": "uint256[]"
        },
        {
          "name": "nonce",
          "type": "uint256",
          "internalType": "uint256"
        }
      ],
      "outputs": [
        {
          "name": "",
          "type": "bytes32",
          "internalType": "bytes32"
        }
      ],
      "stateMutability": "nonpayable"
    },
    {
      "type": "function",
      "name": "configHash",
      "inputs": [],
      "outputs": [
        {
          "name": "",
          "type": "uint256",
          "internalType": "uint256"
        }
      ],
      "stateMutability": "view"
    },
    {
      "type": "function",
      "name": "consumeMessageFromL2",
      "inputs": [
        {
          "name": "fromAddress",
          "type": "uint256",
          "internalType": "uint256"
        },
        {
          "name": "payload",
          "type": "uint256[]",
          "internalType": "uint256[]"
        }
      ],
      "outputs": [
        {
          "name": "",
          "type": "bytes32",
          "internalType": "bytes32"
        }
      ],
      "stateMutability": "nonpayable"
    },
    {
      "type": "function",
      "name": "finalize",
      "inputs": [],
      "outputs": [],
      "stateMutability": "nonpayable"
    },
    {
      "type": "function",
      "name": "getMaxL1MsgFee",
      "inputs": [],
      "outputs": [
        {
          "name": "",
          "type": "uint256",
          "internalType": "uint256"
        }
      ],
      "stateMutability": "pure"
    },
    {
      "type": "function",
      "name": "identify",
      "inputs": [],
      "outputs": [
        {
          "name": "",
          "type": "string",
          "internalType": "string"
        }
      ],
      "stateMutability": "pure"
    },
    {
      "type": "function",
      "name": "initialize",
      "inputs": [
        {
          "name": "data",
          "type": "bytes",
          "internalType": "bytes"
        }
      ],
      "outputs": [],
      "stateMutability": "nonpayable"
    },
    {
      "type": "function",
      "name": "isFinalized",
      "inputs": [],
      "outputs": [
        {
          "name": "",
          "type": "bool",
          "internalType": "bool"
        }
      ],
      "stateMutability": "view"
    },
    {
      "type": "function",
      "name": "isFrozen",
      "inputs": [],
      "outputs": [
        {
          "name": "",
          "type": "bool",
          "internalType": "bool"
        }
      ],
      "stateMutability": "view"
    },
    {
      "type": "function",
      "name": "isOperator",
      "inputs": [
        {
          "name": "user",
          "type": "address",
          "internalType": "address"
        }
      ],
      "outputs": [
        {
          "name": "",
          "type": "bool",
          "internalType": "bool"
        }
      ],
      "stateMutability": "view"
    },
    {
      "type": "function",
      "name": "l1ToL2MessageCancellations",
      "inputs": [
        {
          "name": "msgHash",
          "type": "bytes32",
          "internalType": "bytes32"
        }
      ],
      "outputs": [
        {
          "name": "",
          "type": "uint256",
          "internalType": "uint256"
        }
      ],
      "stateMutability": "view"
    },
    {
      "type": "function",
      "name": "l1ToL2MessageNonce",
      "inputs": [],
      "outputs": [
        {
          "name": "",
          "type": "uint256",
          "internalType": "uint256"
        }
      ],
      "stateMutability": "view"
    },
    {
      "type": "function",
      "name": "l1ToL2Messages",
      "inputs": [
        {
          "name": "msgHash",
          "type": "bytes32",
          "internalType": "bytes32"
        }
      ],
      "outputs": [
        {
          "name": "",
          "type": "uint256",
          "internalType": "uint256"
        }
      ],
      "stateMutability": "view"
    },
    {
      "type": "function",
      "name": "l2ToL1Messages",
      "inputs": [
        {
          "name": "msgHash",
          "type": "bytes32",
          "internalType": "bytes32"
        }
      ],
      "outputs": [
        {
          "name": "",
          "type": "uint256",
          "internalType": "uint256"
        }
      ],
      "stateMutability": "view"
    },
    {
      "type": "function",
      "name": "messageCancellationDelay",
      "inputs": [],
      "outputs": [
        {
          "name": "",
          "type": "uint256",
          "internalType": "uint256"
        }
      ],
      "stateMutability": "view"
    },
    {
      "type": "function",
      "name": "programHash",
      "inputs": [],
      "outputs": [
        {
          "name": "",
          "type": "uint256",
          "internalType": "uint256"
        }
      ],
      "stateMutability": "view"
    },
    {
      "type": "function",
      "name": "registerOperator",
      "inputs": [
        {
          "name": "newOperator",
          "type": "address",
          "internalType": "address"
        }
      ],
      "outputs": [],
      "stateMutability": "nonpayable"
    },
    {
      "type": "function",
      "name": "sendMessageToL2",
      "inputs": [
        {
          "name": "toAddress",
          "type": "uint256",
          "internalType": "uint256"
        },
        {
          "name": "selector",
          "type": "uint256",
          "internalType": "uint256"
        },
        {
          "name": "payload",
          "type": "uint256[]",
          "internalType": "uint256[]"
        }
      ],
      "outputs": [
        {
          "name": "",
          "type": "bytes32",
          "internalType": "bytes32"
        },
        {
          "name": "",
          "type": "uint256",
          "internalType": "uint256"
        }
      ],
      "stateMutability": "payable"
    },
    {
      "type": "function",
      "name": "setAggregatorProgramHash",
      "inputs": [
        {
          "name": "newAggregatorProgramHash",
          "type": "uint256",
          "internalType": "uint256"
        }
      ],
      "outputs": [],
      "stateMutability": "nonpayable"
    },
    {
      "type": "function",
      "name": "setConfigHash",
      "inputs": [
        {
          "name": "newConfigHash",
          "type": "uint256",
          "internalType": "uint256"
        }
      ],
      "outputs": [],
      "stateMutability": "nonpayable"
    },
    {
      "type": "function",
      "name": "setMessageCancellationDelay",
      "inputs": [
        {
          "name": "delayInSeconds",
          "type": "uint256",
          "internalType": "uint256"
        }
      ],
      "outputs": [],
      "stateMutability": "nonpayable"
    },
    {
      "type": "function",
      "name": "setProgramHash",
      "inputs": [
        {
          "name": "newProgramHash",
          "type": "uint256",
          "internalType": "uint256"
        }
      ],
      "outputs": [],
      "stateMutability": "nonpayable"
    },
    {
      "type": "function",
      "name": "starknetAcceptGovernance",
      "inputs": [],
      "outputs": [],
      "stateMutability": "nonpayable"
    },
    {
      "type": "function",
      "name": "starknetCancelNomination",
      "inputs": [],
      "outputs": [],
      "stateMutability": "nonpayable"
    },
    {
      "type": "function",
      "name": "starknetIsGovernor",
      "inputs": [
        {
          "name": "user",
          "type": "address",
          "internalType": "address"
        }
      ],
      "outputs": [
        {
          "name": "",
          "type": "bool",
          "internalType": "bool"
        }
      ],
      "stateMutability": "view"
    },
    {
      "type": "function",
      "name": "starknetNominateNewGovernor",
      "inputs": [
        {
          "name": "newGovernor",
          "type": "address",
          "internalType": "address"
        }
      ],
      "outputs": [],
      "stateMutability": "nonpayable"
    },
    {
      "type": "function",
      "name": "starknetRemoveGovernor",
      "inputs": [
        {
          "name": "governorForRemoval",
          "type": "address",
          "internalType": "address"
        }
      ],
      "outputs": [],
      "stateMutability": "nonpayable"
    },
    {
      "type": "function",
      "name": "startL1ToL2MessageCancellation",
      "inputs": [
        {
          "name": "toAddress",
          "type": "uint256",
          "internalType": "uint256"
        },
        {
          "name": "selector",
          "type": "uint256",
          "internalType": "uint256"
        },
        {
          "name": "payload",
          "type": "uint256[]",
          "internalType": "uint256[]"
        },
        {
          "name": "nonce",
          "type": "uint256",
          "internalType": "uint256"
        }
      ],
      "outputs": [
        {
          "name": "",
          "type": "bytes32",
          "internalType": "bytes32"
        }
      ],
      "stateMutability": "nonpayable"
    },
    {
      "type": "function",
      "name": "stateBlockHash",
      "inputs": [],
      "outputs": [
        {
          "name": "",
          "type": "uint256",
          "internalType": "uint256"
        }
      ],
      "stateMutability": "view"
    },
    {
      "type": "function",
      "name": "stateBlockNumber",
      "inputs": [],
      "outputs": [
        {
          "name": "",
          "type": "int256",
          "internalType": "int256"
        }
      ],
      "stateMutability": "view"
    },
    {
      "type": "function",
      "name": "stateRoot",
      "inputs": [],
      "outputs": [
        {
          "name": "",
          "type": "uint256",
          "internalType": "uint256"
        }
      ],
      "stateMutability": "view"
    },
    {
      "type": "function",
      "name": "unregisterOperator",
      "inputs": [
        {
          "name": "removedOperator",
          "type": "address",
          "internalType": "address"
        }
      ],
      "outputs": [],
      "stateMutability": "nonpayable"
    },
    {
      "type": "function",
      "name": "updateState",
      "inputs": [
        {
          "name": "programOutput",
          "type": "uint256[]",
          "internalType": "uint256[]"
        },
        {
          "name": "onchainDataHash",
          "type": "uint256",
          "internalType": "uint256"
        },
        {
          "name": "onchainDataSize",
          "type": "uint256",
          "internalType": "uint256"
        }
      ],
      "outputs": [],
      "stateMutability": "nonpayable"
    },
    {
      "type": "function",
      "name": "updateStateKzgDA",
      "inputs": [
        {
          "name": "programOutput",
          "type": "uint256[]",
          "internalType": "uint256[]"
        },
        {
          "name": "kzgProofs",
          "type": "bytes[]",
          "internalType": "bytes[]"
        }
      ],
      "outputs": [],
      "stateMutability": "nonpayable"
    },
    {
      "type": "function",
      "name": "updateStateOverride",
      "inputs": [
        {
          "name": "globalRoot",
          "type": "uint256",
          "internalType": "uint256"
        },
        {
          "name": "blockNumber",
          "type": "int256",
          "internalType": "int256"
        },
        {
          "name": "blockHash",
          "type": "uint256",
          "internalType": "uint256"
        }
      ],
      "outputs": [],
      "stateMutability": "nonpayable"
    },
    {
      "type": "event",
      "name": "AggregatorProgramHashChanged",
      "inputs": [
        {
          "name": "changedBy",
          "type": "address",
          "indexed": true,
          "internalType": "address"
        },
        {
          "name": "oldAggregatorProgramHash",
          "type": "uint256",
          "indexed": false,
          "internalType": "uint256"
        },
        {
          "name": "newAggregatorProgramHash",
          "type": "uint256",
          "indexed": false,
          "internalType": "uint256"
        }
      ],
      "anonymous": false
    },
    {
      "type": "event",
      "name": "ConfigHashChanged",
      "inputs": [
        {
          "name": "changedBy",
          "type": "address",
          "indexed": true,
          "internalType": "address"
        },
        {
          "name": "oldConfigHash",
          "type": "uint256",
          "indexed": false,
          "internalType": "uint256"
        },
        {
          "name": "newConfigHash",
          "type": "uint256",
          "indexed": false,
          "internalType": "uint256"
        }
      ],
      "anonymous": false
    },
    {
      "type": "event",
      "name": "ConsumedMessageToL1",
      "inputs": [
        {
          "name": "fromAddress",
          "type": "uint256",
          "indexed": true,
          "internalType": "uint256"
        },
        {
          "name": "toAddress",
          "type": "address",
          "indexed": true,
          "internalType": "address"
        },
        {
          "name": "payload",
          "type": "uint256[]",
          "indexed": false,
          "internalType": "uint256[]"
        }
      ],
      "anonymous": false
    },
    {
      "type": "event",
      "name": "ConsumedMessageToL2",
      "inputs": [
        {
          "name": "fromAddress",
          "type": "address",
          "indexed": true,
          "internalType": "address"
        },
        {
          "name": "toAddress",
          "type": "uint256",
          "indexed": true,
          "internalType": "uint256"
        },
        {
          "name": "selector",
          "type": "uint256",
          "indexed": true,
          "internalType": "uint256"
        },
        {
          "name": "payload",
          "type": "uint256[]",
          "indexed": false,
          "internalType": "uint256[]"
        },
        {
          "name": "nonce",
          "type": "uint256",
          "indexed": false,
          "internalType": "uint256"
        }
      ],
      "anonymous": false
    },
    {
      "type": "event",
      "name": "Finalized",
      "inputs": [],
      "anonymous": false
    },
    {
      "type": "event",
      "name": "LogMessageToL1",
      "inputs": [
        {
          "name": "fromAddress",
          "type": "uint256",
          "indexed": true,
          "internalType": "uint256"
        },
        {
          "name": "toAddress",
          "type": "address",
          "indexed": true,
          "internalType": "address"
        },
        {
          "name": "payload",
          "type": "uint256[]",
          "indexed": false,
          "internalType": "uint256[]"
        }
      ],
      "anonymous": false
    },
    {
      "type": "event",
      "name": "LogMessageToL2",
      "inputs": [
        {
          "name": "fromAddress",
          "type": "address",
          "indexed": true,
          "internalType": "address"
        },
        {
          "name": "toAddress",
          "type": "uint256",
          "indexed": true,
          "internalType": "uint256"
        },
        {
          "name": "selector",
          "type": "uint256",
          "indexed": true,
          "internalType": "uint256"
        },
        {
          "name": "payload",
          "type": "uint256[]",
          "indexed": false,
          "internalType": "uint256[]"
        },
        {
          "name": "nonce",
          "type": "uint256",
          "indexed": false,
          "internalType": "uint256"
        },
        {
          "name": "fee",
          "type": "uint256",
          "indexed": false,
          "internalType": "uint256"
        }
      ],
      "anonymous": false
    },
    {
      "type": "event",
      "name": "LogNewGovernorAccepted",
      "inputs": [
        {
          "name": "acceptedGovernor",
          "type": "address",
          "indexed": false,
          "internalType": "address"
        }
      ],
      "anonymous": false
    },
    {
      "type": "event",
      "name": "LogNominatedGovernor",
      "inputs": [
        {
          "name": "nominatedGovernor",
          "type": "address",
          "indexed": false,
          "internalType": "address"
        }
      ],
      "anonymous": false
    },
    {
      "type": "event",
      "name": "LogNominationCancelled",
      "inputs": [],
      "anonymous": false
    },
    {
      "type": "event",
      "name": "LogOperatorAdded",
      "inputs": [
        {
          "name": "operator",
          "type": "address",
          "indexed": false,
          "internalType": "address"
        }
      ],
      "anonymous": false
    },
    {
      "type": "event",
      "name": "LogOperatorRemoved",
      "inputs": [
        {
          "name": "operator",
          "type": "address",
          "indexed": false,
          "internalType": "address"
        }
      ],
      "anonymous": false
    },
    {
      "type": "event",
      "name": "LogRemovedGovernor",
      "inputs": [
        {
          "name": "removedGovernor",
          "type": "address",
          "indexed": false,
          "internalType": "address"
        }
      ],
      "anonymous": false
    },
    {
      "type": "event",
      "name": "LogStateTransitionFact",
      "inputs": [
        {
          "name": "stateTransitionFact",
          "type": "bytes32",
          "indexed": false,
          "internalType": "bytes32"
        }
      ],
      "anonymous": false
    },
    {
      "type": "event",
      "name": "LogStateUpdate",
      "inputs": [
        {
          "name": "globalRoot",
          "type": "uint256",
          "indexed": false,
          "internalType": "uint256"
        },
        {
          "name": "blockNumber",
          "type": "int256",
          "indexed": false,
          "internalType": "int256"
        },
        {
          "name": "blockHash",
          "type": "uint256",
          "indexed": false,
          "internalType": "uint256"
        }
      ],
      "anonymous": false
    },
    {
      "type": "event",
      "name": "MessageToL2Canceled",
      "inputs": [
        {
          "name": "fromAddress",
          "type": "address",
          "indexed": true,
          "internalType": "address"
        },
        {
          "name": "toAddress",
          "type": "uint256",
          "indexed": true,
          "internalType": "uint256"
        },
        {
          "name": "selector",
          "type": "uint256",
          "indexed": true,
          "internalType": "uint256"
        },
        {
          "name": "payload",
          "type": "uint256[]",
          "indexed": false,
          "internalType": "uint256[]"
        },
        {
          "name": "nonce",
          "type": "uint256",
          "indexed": false,
          "internalType": "uint256"
        }
      ],
      "anonymous": false
    },
    {
      "type": "event",
      "name": "MessageToL2CancellationStarted",
      "inputs": [
        {
          "name": "fromAddress",
          "type": "address",
          "indexed": true,
          "internalType": "address"
        },
        {
          "name": "toAddress",
          "type": "uint256",
          "indexed": true,
          "internalType": "uint256"
        },
        {
          "name": "selector",
          "type": "uint256",
          "indexed": true,
          "internalType": "uint256"
        },
        {
          "name": "payload",
          "type": "uint256[]",
          "indexed": false,
          "internalType": "uint256[]"
        },
        {
          "name": "nonce",
          "type": "uint256",
          "indexed": false,
          "internalType": "uint256"
        }
      ],
      "anonymous": false
    },
    {
      "type": "event",
      "name": "ProgramHashChanged",
      "inputs": [
        {
          "name": "changedBy",
          "type": "address",
          "indexed": true,
          "internalType": "address"
        },
        {
          "name": "oldProgramHash",
          "type": "uint256",
          "indexed": false,
          "internalType": "uint256"
        },
        {
          "name": "newProgramHash",
          "type": "uint256",
          "indexed": false,
          "internalType": "uint256"
        }
      ],
      "anonymous": false
    }
  ],
  "bytecode": {
    "object": "0x60a0604052348015600e575f80fd5b5030608052608051613d3f61002b5f395f610a7c0152613d3f5ff3fe608060405260043610610207575f3560e01c80637a98660b1161011357806396115bc21161009d578063e1f1176d1161006d578063e1f1176d14610585578063e37fec2514610599578063e87e7332146105ad578063eb27feeb146105cc578063eeb72866146105e0575f80fd5b806396115bc2146105095780639be446bf14610528578063a46efaf314610547578063c99d397f14610566575f80fd5b80638d4e4083116100e35780638d4e40831461048f5780639020429c146104a357806391a66a26146104c2578063946be3ed146104e15780639588eca2146104f5575f80fd5b80637a98660b146104295780638303bd8a1461044857806384f921cd1461045c5780638a9bf0901461047b575f80fd5b8063439fab911161019457806361538cad1161016457806361538cad1461038e5780636170ff1b146103ad5780636d70f7ae146103cc57806377552641146103eb57806377c7d7a91461040a575f80fd5b8063439fab91146103225780634bb278f314610341578063507ee5281461035557806354eccba414610374575f80fd5b806335befa5d116101da57806335befa5d146102925780633682a450146102a6578063382d83e3146102c75780633d07b336146102db5780633e3aa6c5146102fa575f80fd5b8063018cccdf1461020b57806301a01590146102325780632c9dd5c01461026157806333eeb14714610280575b5f80fd5b348015610216575f80fd5b5061021f61062b565b6040519081526020015b60405180910390f35b34801561023d575f80fd5b5061025161024c366004613468565b61066f565b6040519015158152602001610229565b34801561026c575f80fd5b5061021f61027b3660046134cb565b61067f565b34801561028b575f80fd5b505f610251565b34801561029d575f80fd5b5061021f610797565b3480156102b1575f80fd5b506102c56102c0366004613468565b6107a9565b005b3480156102d2575f80fd5b5061021f610843565b3480156102e6575f80fd5b506102c56102f5366004613513565b610855565b61030d61030836600461352a565b6108e9565b60408051928352602083019190915201610229565b34801561032d575f80fd5b506102c561033c366004613579565b610a79565b34801561034c575f80fd5b506102c5610c29565b348015610360575f80fd5b506102c561036f3660046135e7565b610cc0565b34801561037f575f80fd5b50670de0b6b3a764000061021f565b348015610399575f80fd5b506102c56103a836600461363b565b610df1565b3480156103b8575f80fd5b5061021f6103c7366004613664565b610e3a565b3480156103d7575f80fd5b506102516103e6366004613468565b61104d565b3480156103f6575f80fd5b506102c56104053660046136ba565b611077565b348015610415575f80fd5b5061021f610424366004613513565b611176565b348015610434575f80fd5b5061021f610443366004613664565b61118f565b348015610453575f80fd5b5061021f611268565b348015610467575f80fd5b506102c5610476366004613468565b61128a565b348015610486575f80fd5b5061021f611293565b34801561049a575f80fd5b506102516112b5565b3480156104ae575f80fd5b506102c56104bd366004613513565b6112d7565b3480156104cd575f80fd5b506102c56104dc366004613468565b61136b565b3480156104ec575f80fd5b506102c5611374565b348015610500575f80fd5b5061021f61137e565b348015610514575f80fd5b506102c5610523366004613468565b61138d565b348015610533575f80fd5b5061021f610542366004613513565b61141f565b348015610552575f80fd5b5061021f610561366004613513565b611428565b348015610571575f80fd5b506102c5610580366004613513565b611431565b348015610590575f80fd5b5061021f611484565b3480156105a4575f80fd5b506102c56114a6565b3480156105b8575f80fd5b506102c56105c7366004613513565b6114ae565b3480156105d7575f80fd5b5061021f611542565b3480156105eb575f80fd5b50604080518082018252601981527f537461726b576172655f537461726b6e65745f323032345f3900000000000000602082015290516102299190613707565b5f61066a6040518060400160405280602081526020017f535441524b4e45545f312e305f4d5347494e475f4c31544f4c325f4e4f4e4345815250611560565b905090565b5f61067982611593565b92915050565b6040515f90819061069c9086903390869088908290602001613763565b6040516020818303038152906040528051906020012090505f6106bd6115bf565b5f83815260209190915260409020541161071e5760405162461bcd60e51b815260206004820152601a60248201527f494e56414c49445f4d4553534147455f544f5f434f4e53554d4500000000000060448201526064015b60405180910390fd5b336001600160a01b0316857f7a06c571aa77f34d9706c51e5d8122b5595aebeaa34233bfe866f22befb973b1868660405161075a9291906137b1565b60405180910390a3600161076c6115bf565b5f8381526020019081526020015f205f82825461078991906137d8565b909155509095945050505050565b5f6107a06115e1565b60010154905090565b6107b233611593565b6107ce5760405162461bcd60e51b8152600401610715906137eb565b6107d78161104d565b6108405760016107e561162a565b6001600160a01b0383165f8181526020928352604090819020805460ff19169415159490941790935591519182527f50a18c352ee1c02ffe058e15c2eb6e58be387c81e73cc1e17035286e54c19a5791015b60405180910390a15b50565b5f61084c6115e1565b60020154905090565b61085d6112b5565b1561087a5760405162461bcd60e51b815260040161071590613814565b61088333611593565b61089f5760405162461bcd60e51b8152600401610715906137eb565b337f393c6beb5756a944b2967f15f31ff671e312e945d7a84fd3bdcfd6b408b2dc796108c9611484565b60408051918252602082018590520160405180910390a26108408161164c565b5f805f34116109445760405162461bcd60e51b815260206004820152602160248201527f4c315f4d53475f4645455f4d5553545f42455f475245415445525f5448414e5f6044820152600360fc1b6064820152608401610715565b670de0b6b3a764000034111561099c5760405162461bcd60e51b815260206004820152601760248201527f4d41585f4c315f4d53475f4645455f45584345454445440000000000000000006044820152606401610715565b5f6109a561062b565b90506109f26040518060400160405280602081526020017f535441524b4e45545f312e305f4d5347494e475f4c31544f4c325f4e4f4e43458152508260016109ed9190613837565b61166a565b8587336001600160a01b03167fdb80dd488acf86d17c747445b0eabb5d57c541d3bd7b6b87af987858e5066b2b88888634604051610a33949392919061384a565b60405180910390a45f610a49888888888661169c565b9050610a56346001613837565b610a5e6116dc565b5f838152602091909152604090205597909650945050505050565b307f00000000000000000000000000000000000000000000000000000000000000006001600160a01b031603610aea5760405162461bcd60e51b81526020600482015260166024820152751112549150d517d0d0531317d11254d0531313d5d15160521b6044820152606401610715565b5f610af6816020613870565b90505f610b04826020613837565b905080831015610b4c5760405162461bcd60e51b81526020600482015260136024820152721253925517d110551057d513d3d7d4d3505313606a1b6044820152606401610715565b5f610b5982848688613887565b810190610b669190613468565b9050365f610b768582888a613887565b91509150365f610b888887818c613887565b90925090506001600160a01b03851615610bb257610ba78583836116fe565b505050505050505050565b610bba61183c565b15610c09578015610c045760405162461bcd60e51b8152602060048201526014602482015273554e45585045435445445f494e49545f4441544160601b6044820152606401610715565b610ba7565b610c13828261184c565b610c1d82826118f6565b610ba7611971565b5050565b610c3233611593565b610c4e5760405162461bcd60e51b8152600401610715906137eb565b610c566112b5565b15610c735760405162461bcd60e51b815260040161071590613814565b610c96604051806060016040528060318152602001613cd960319139600161166a565b6040517f6823b073d48d6e3a7d385eeb601452d680e74bb46afe3255a7d778f3a9b17681905f90a1565b610cc93361104d565b610ce55760405162461bcd60e51b8152600401610715906138ae565b600a8311610d315760405162461bcd60e51b815260206004820152601960248201527814d5105492d3915517d3d55514155517d513d3d7d4d213d495603a1b6044820152606401610715565b610d458484610d3e6115e1565b91906119ed565b83836008818110610d5857610d586138d5565b90506020020135600114610da75760405162461bcd60e51b8152602060048201526016602482015275554e45585045435445445f4b5a475f44415f464c414760501b6044820152606401610715565b610dbe610db784600a81886138e9565b8484611a81565b5f610dc985856120eb565b9050610dd685858361211d565b610dea8585610de36115e1565b91906124e8565b5050505050565b610dfa3361104d565b610e165760405162461bcd60e51b8152600401610715906138ae565b610e35838383610e246115e1565b600181019290925591815560020155565b505050565b5f8486336001600160a01b03167f8abd2ec2e0a10c82f5b60ea00455fa96c41fd144f225fcc52b8d83d94f803ed8878787604051610e7a93929190613914565b60405180910390a45f610e90878787878761169c565b90505f610e9b6116dc565b5f83815260209190915260408120549150819003610ef25760405162461bcd60e51b81526020600482015260146024820152731393d7d35154d4d051d157d513d7d0d05390d15360621b6044820152606401610715565b5f610efb612549565b5f84815260209190915260408120549150819003610f665760405162461bcd60e51b815260206004820152602260248201527f4d4553534147455f43414e43454c4c4154494f4e5f4e4f545f52455155455354604482015261115160f21b6064820152608401610715565b5f610f6f611268565b610f799083613837565b905081811015610fcb5760405162461bcd60e51b815260206004820152601c60248201527f43414e43454c5f414c4c4f5745445f54494d455f4f564552464c4f57000000006044820152606401610715565b804210156110275760405162461bcd60e51b8152602060048201526024808201527f4d4553534147455f43414e43454c4c4154494f4e5f4e4f545f414c4c4f57454460448201526317d6515560e21b6064820152608401610715565b5f6110306116dc565b5f8681526020919091526040902055509198975050505050505050565b5f61105661162a565b6001600160a01b039092165f90815260209290925250604090205460ff1690565b6110803361104d565b61109c5760405162461bcd60e51b8152600401610715906138ae565b600a83116110e85760405162461bcd60e51b815260206004820152601960248201527814d5105492d3915517d3d55514155517d513d3d7d4d213d495603a1b6044820152606401610715565b6110f58484610d3e6115e1565b83836008818110611108576111086138d5565b905060200201355f146111565760405162461bcd60e51b8152602060048201526016602482015275554e45585045435445445f4b5a475f44415f464c414760501b6044820152606401610715565b5f610dc9858560405180604001604052808781526020018681525061256b565b5f61117f6116dc565b5f92835260205250604090205490565b5f8486336001600160a01b03167f2e00dccd686fd6823ec7dc3e125582aa82881b6ff5f6b5a73856e1ea8338a3be8787876040516111cf93929190613914565b60405180910390a45f6111e5878787878761169c565b90505f6111f06116dc565b5f83815260209190915260409020549050806112455760405162461bcd60e51b81526020600482015260146024820152731393d7d35154d4d051d157d513d7d0d05390d15360621b6044820152606401610715565b4261124e612549565b5f8481526020919091526040902055509695505050505050565b5f61066a6040518060600160405280602d8152602001613c42602d9139611560565b610840816125e0565b5f61066a604051806060016040528060238152602001613c1f60239139611560565b5f61066a604051806060016040528060318152602001613cd960319139611560565b6112df6112b5565b156112fc5760405162461bcd60e51b815260040161071590613814565b61130533611593565b6113215760405162461bcd60e51b8152600401610715906137eb565b337f07688623ef226ae0c2f88d3fdc7f6bb41427c804bcec3f36699b07148e3f534061134b611542565b60408051918252602082018590520160405180910390a2610840816126f9565b6108408161271b565b61137c612883565b565b5f6113876115e1565b54919050565b61139633611593565b6113b25760405162461bcd60e51b8152600401610715906137eb565b6113bb8161104d565b15610840575f6113c961162a565b6001600160a01b0383165f8181526020928352604090819020805460ff19169415159490941790935591519182527fec5f6c3a91a1efb1f9a308bb33c6e9e66bf9090fad0732f127dfdbf516d0625d9101610837565b5f61117f612549565b5f61117f6115bf565b6114396112b5565b156114565760405162461bcd60e51b815260040161071590613814565b61145f33611593565b61147b5760405162461bcd60e51b8152600401610715906137eb565b61084081612907565b5f61066a604051806060016040528060218152602001613c6f60219139611560565b61137c612929565b6114b66112b5565b156114d35760405162461bcd60e51b815260040161071590613814565b6114dc33611593565b6114f85760405162461bcd60e51b8152600401610715906137eb565b337f600a61c1b32ac42fb2fe76e8fc7582a98106668fc16dcd85567cd3937363e49b611522611293565b60408051918252602082018590520160405180910390a2610840816129aa565b5f61066a6040518060600160405280602e8152602001613bf1602e91395b5f8082604051602001611573919061394e565b60408051601f198184030181529190528051602090910120549392505050565b5f8061159d6129cc565b6001600160a01b039093165f9081526020939093525050604090205460ff1690565b5f61066a604051806060016040528060238152602001613c9060239139612a14565b5f80604051806060016040528060278152602001613bca6027913960405160200161160c919061394e565b60408051601f19818403018152919052805160209091012092915050565b5f61066a604051806060016040528060288152602001613b7260289139612a14565b610840604051806060016040528060218152602001613c6f60219139825b5f8260405160200161167c919061394e565b604051602081830303815290604052805190602001209050818155505050565b6040515f906116bb90339088908590899088908a908290602001613959565b60405160208183030381529060405280519060200120905095945050505050565b5f61066a604051806060016040528060268152602001613cb360269139612a14565b6001600160a01b0383163b61174a5760405162461bcd60e51b8152602060048201526012602482015271115250d7d393d517d057d0d3d395149050d560721b6044820152606401610715565b5f80846001600160a01b031663439fab9160e01b8585604051602401611771929190613990565b60408051601f198184030181529181526020820180516001600160e01b03166001600160e01b03199094169390931790925290516117af919061394e565b5f60405180830381855af49150503d805f81146117e7576040519150601f19603f3d011682016040523d82523d5f602084013e6117ec565b606091505b50915091508181906118115760405162461bcd60e51b81526004016107159190613707565b5080518190156118345760405162461bcd60e51b81526004016107159190613707565b505050505050565b5f611845611293565b1515919050565b60e081146118955760405162461bcd60e51b8152602060048201526016602482015275494c4c4547414c5f494e49545f444154415f53495a4560501b6044820152606401610715565b5f6118a36020828486613887565b8101906118b09190613513565b9050805f03610e355760405162461bcd60e51b81526020600482015260126024820152712120a22fa4a724aa24a0a624ad20aa24a7a760711b6044820152606401610715565b5f80808080611907868801886139be565b9450945094509450945061191a856129aa565b611923846126f9565b61192c83612a46565b611953816119386115e1565b90805182556020810151600183015560400151600290910155565b61195c8261164c565b61196862069780612907565b50505050505050565b5f61197a6129cc565b6001810154909150600160a01b900460ff16156119cf5760405162461bcd60e51b81526020600482015260136024820152721053149150511657d253925512505312569151606a1b6044820152606401610715565b60018101805460ff60a01b1916600160a01b17905561084033612a68565b5f83600101545f1903611a0c575067080000000000001160c01b611a13565b5060018301545b8083836002818110611a2757611a276138d5565b9050602002013514611a7b5760405162461bcd60e51b815260206004820152601960248201527f494e56414c49445f505245565f424c4f434b5f4e554d424552000000000000006044820152606401610715565b50505050565b6002831015611aca5760405162461bcd60e51b815260206004820152601560248201527412d691d7d4d151d351539517d513d3d7d4d213d495605a1b6044820152606401610715565b5f84845f818110611add57611add6138d5565b905060200201355f1b90505f85856001818110611afc57611afc6138d5565b9050602002013590505f816002611b139190613870565b611b1e906002613837565b9050838214611b6f5760405162461bcd60e51b815260206004820152601c60248201527f494e56414c49445f4e554d4245525f4f465f4b5a475f50524f4f4653000000006044820152606401610715565b611b7a826002613870565b611b849082613837565b861015611bcb5760405162461bcd60e51b815260206004820152601560248201527412d691d7d4d151d351539517d513d3d7d4d213d495605a1b6044820152606401610715565b5f5b828110156120e15780495f819003611c1c5760405162461bcd60e51b81526020600482015260126024820152710929cac82989288be84989e84be929c888ab60731b6044820152606401610715565b600160f81b815f1a60f81b6001600160f81b03191614611c7e5760405162461bcd60e51b815260206004820152601c60248201527f554e45585045435445445f424c4f425f484153485f56455253494f4e000000006044820152606401610715565b60605f8a8a611c8e866002613870565b611c99906002613837565b818110611ca857611ca86138d5565b9050602002013590505f8b8b866002611cc19190613870565b611ccc906002613837565b611cd7906001613837565b818110611ce657611ce66138d5565b9050602002013590506001600160c01b038016821115611d415760405162461bcd60e51b81526020600482015260166024820152751253959053125117d2d691d7d0d3d35352551351539560521b6044820152606401610715565b6001600160c01b03811115611d915760405162461bcd60e51b81526020600482015260166024820152751253959053125117d2d691d7d0d3d35352551351539560521b6044820152606401610715565b6040805167ffffffffffffffff1992821b8316602082015292811b9091166038830152805180830360300181526050909201905290505f808b8b611dd6876002613870565b611de09089613837565b818110611def57611def6138d5565b9050602002013590505f8c8c876002611e089190613870565b611e12908a613837565b611e1d906001613837565b818110611e2c57611e2c6138d5565b9050602002013590506001600160801b038016821115611e805760405162461bcd60e51b815260206004820152600f60248201526e494e56414c49445f595f56414c554560881b6044820152606401610715565b6001600160801b03811115611ec95760405162461bcd60e51b815260206004820152600f60248201526e494e56414c49445f595f56414c554560881b6044820152606401610715565b611ed782608083901b613837565b5f1b925050506030898986818110611ef157611ef16138d5565b9050602002810190611f039190613a62565b905014611f4b5760405162461bcd60e51b8152602060048201526016602482015275494e56414c49445f4b5a475f50524f4f465f53495a4560501b6044820152606401610715565b5f80600a858a85878f8f8c818110611f6557611f656138d5565b9050602002810190611f779190613a62565b604051602001611f8c96959493929190613aa5565b60408051601f1981840301815290829052611fa69161394e565b5f60405180830381855afa9150503d805f8114611fde576040519150601f19603f3d011682016040523d82523d5f602084013e611fe3565b606091505b5091509150816120455760405162461bcd60e51b815260206004820152602760248201527f504f494e545f4556414c554154494f4e5f505245434f4d50494c455f43414c4c60448201526617d1905253115160ca1b6064820152608401610715565b805160208201207fb2157d3a40131b14c4c675335465dffde802f0ce5218ad012284d7f275d1b37c146120d05760405162461bcd60e51b815260206004820152602d60248201527f554e45585045435445445f504f494e545f4556414c554154494f4e5f5052454360448201526c13d35412531157d3d555141555609a1b6064820152608401610715565b505060019093019250611bcd915050565b5050505050505050565b5f82826040516020016120ff929190613ad8565b60405160208183030381529060405280519060200120905092915050565b6121278383612b0e565b61212f611484565b83836007818110612142576121426138d5565b905060200201351461218c5760405162461bcd60e51b81526020600482015260136024820152720929cac82989288be869e9c8c928ebe9082a69606b1b6044820152606401610715565b8282600981811061219f5761219f6138d5565b905060200201355f146121f45760405162461bcd60e51b815260206004820152601960248201527f46554c4c5f4f55545055545f4e4f545f535550504f52544544000000000000006044820152606401610715565b5f83836006818110612208576122086138d5565b905060200201355f146122a35761221d611293565b84846006818110612230576122306138d5565b90506020020135146122945760405162461bcd60e51b815260206004820152602760248201527f41474752454741544f525f4d4f44455f494e56414c49445f4f535f50524f47526044820152660829abe9082a6960cb1b6064820152608401610715565b61229c611542565b90506122ae565b6122ab611293565b90505b604080516020808201849052818301859052825180830384018152606090920190925280519101206122de612ba1565b6001600160a01b0316636a938567826040518263ffffffff1660e01b815260040161230b91815260200190565b602060405180830381865afa158015612326573d5f803e3d5ffd5b505050506040513d601f19601f8201168201806040525081019061234a9190613ae4565b6123965760405162461bcd60e51b815260206004820152601960248201527f4e4f5f53544154455f5452414e534954494f4e5f50524f4f46000000000000006044820152606401610715565b6040518381527f9866f8ddfe70bb512b2f2b28b49d4017c43f7ba775f1a20c61c13eea8cdac1119060200160405180910390a16123dd85856123d66115e1565b9190612bc3565b5f6123e88686612d47565b905061240860016123fb8784818b6138e9565b6124036115bf565b612de2565b6124129082613837565b905061242c5f6124248784818b6138e9565b6124036116dc565b6124369082613837565b90508481146124875760405162461bcd60e51b815260206004820152601860248201527f535441524b4e45545f4f55545055545f544f4f5f4c4f4e4700000000000000006044820152606401610715565b5f6124906115e1565b805460018201546002830154604080519384526020840192909252908201529091507fd342ddf7a308dec111745b00315c14b7efb2bdae570a6856e088ed0c65a3576c9060600160405180910390a150505050505050565b818160038181106124fb576124fb6138d5565b90506020020135836001015414610e355760405162461bcd60e51b81526020600482015260126024820152715245454e5452414e43595f4641494c55524560701b6044820152606401610715565b5f61066a604051806060016040528060308152602001613b9a60309139612a14565b5f828161257886836120eb565b90505f8183865f01518760200151866125919190613837565b6040805160208101959095528401929092526060830152608082015260a00160408051601f19818403018152919052805160209091012090506125d5816001613837565b979650505050505050565b6125e933611593565b6126055760405162461bcd60e51b8152600401610715906137eb565b6001600160a01b03811633036126545760405162461bcd60e51b8152602060048201526014602482015273474f5645524e4f525f53454c465f52454d4f564560601b6044820152606401610715565b5f61265d6129cc565b905061266882611593565b6126a35760405162461bcd60e51b815260206004820152600c60248201526b2727aa2fa3a7ab22a92727a960a11b6044820152606401610715565b6001600160a01b0382165f8181526020838152604091829020805460ff1916905590519182527fd75f94825e770b8b512be8e74759e252ad00e102e38f50cce2f7c6f868a2959991015b60405180910390a15050565b6108406040518060600160405280602e8152602001613bf1602e91398261166a565b61272433611593565b6127405760405162461bcd60e51b8152600401610715906137eb565b5f6127496129cc565b90506001600160a01b03821661278f5760405162461bcd60e51b815260206004820152600b60248201526a4241445f4144445245535360a81b6044820152606401610715565b61279882611593565b156127d85760405162461bcd60e51b815260206004820152601060248201526f20a62922a0a22cafa3a7ab22a92727a960811b6044820152606401610715565b60018101546001600160a01b0316156128335760405162461bcd60e51b815260206004820152601760248201527f4f544845525f43414e4449444154455f50454e44494e470000000000000000006044820152606401610715565b6001810180546001600160a01b0319166001600160a01b0384169081179091556040519081527f6166272c8d3f5f579082f2827532732f97195007983bb5b83ac12c56700b01a6906020016126ed565b5f61288c6129cc565b60018101549091506001600160a01b031633146128eb5760405162461bcd60e51b815260206004820152601760248201527f4f4e4c595f43414e4449444154455f474f5645524e4f520000000000000000006044820152606401610715565b6128f433612a68565b60010180546001600160a01b0319169055565b6108406040518060600160405280602d8152602001613c42602d91398261166a565b61293233611593565b61294e5760405162461bcd60e51b8152600401610715906137eb565b5f6129576129cc565b60018101549091506001600160a01b031615610840576001810180546001600160a01b03191690556040517f7a8dc7dd7fffb43c4807438fa62729225156941e641fd877938f4edade3429f5905f90a150565b610840604051806060016040528060238152602001613c1f602391398261166a565b5f806040518060400160405280601c81526020017f535441524b4e45545f312e305f474f5645524e414e43455f494e464f0000000081525060405160200161160c919061394e565b5f8082604051602001612a27919061394e565b60408051601f1981840301815291905280516020909101209392505050565b610840604051806060016040528060228152602001613b50602291398261339d565b612a7181611593565b15612ab15760405162461bcd60e51b815260206004820152601060248201526f20a62922a0a22cafa3a7ab22a92727a960811b6044820152606401610715565b5f612aba6129cc565b6001600160a01b0383165f8181526020838152604091829020805460ff1916600117905590519182529192507fcfb473e6c03f9a29ddaf990e736fa3de5188a0bd85d684f5b6e164ebfbfff5d291016126ed565b6001600167080000000000001160c01b01602083028401845b81811015612b475782813510612b3f575f9350612b47565b602001612b27565b50505080610e355760405162461bcd60e51b815260206004820152602160248201527f50524f4752414d5f4f55545055545f56414c55455f4f55545f4f465f52414e476044820152604560f81b6064820152608401610715565b5f61066a604051806060016040528060228152602001613b5060229139611560565b612bce8383836119ed565b5f82826003818110612be257612be26138d5565b90506020020135905083600101548113612c3e5760405162461bcd60e51b815260206004820152601860248201527f494e56414c49445f4e45575f424c4f434b5f4e554d42455200000000000000006044820152606401610715565b60018401819055600284015483836004818110612c5d57612c5d6138d5565b9050602002013514612cb15760405162461bcd60e51b815260206004820152601760248201527f494e56414c49445f505245565f424c4f434b5f484153480000000000000000006044820152606401610715565b82826005818110612cc457612cc46138d5565b6020029190910135600286015550365f612cde85856133f5565b91509150612cec828261341e565b865414612d335760405162461bcd60e51b81526020600482015260156024820152741253959053125117d41491559253d554d7d493d3d5605a1b6044820152606401610715565b612d3d8282613440565b9095555050505050565b5f82826008818110612d5b57612d5b6138d5565b905060200201355f03612d705750600a610679565b5f8383612d7f6001600a613837565b818110612d8e57612d8e6138d5565b905060200201359050806002612da49190613870565b612daf826002613870565b612dbb600a6001613837565b612dc6906001613837565b612dd09190613837565b612dda9190613837565b949350505050565b5f8084845f818110612df657612df66138d5565b90506020020135905063400000008110612e525760405162461bcd60e51b815260206004820152601c60248201527f494e56414c49445f4d4553534147455f5345474d454e545f53495a45000000006044820152606401610715565b60015f612e5f8383613837565b90505f88612e6e576004612e71565b60025b90505f5b828410156132ad575f612e888386613837565b9050888110612ecd5760405162461bcd60e51b8152602060048201526011602482015270135154d4d051d157d513d3d7d4d213d495607a1b6044820152606401610715565b5f8a8a83818110612ee057612ee06138d5565b90506020020135905063400000008110612f355760405162461bcd60e51b81526020600482015260166024820152750929cac82989288bea082b2989e8288be988a9c8ea8960531b6044820152606401610715565b5f81612f42846001613837565b612f4c9190613837565b90508a811115612f9e5760405162461bcd60e51b815260206004820152601960248201527f5452554e43415445445f4d4553534147455f5041594c4f4144000000000000006044820152606401610715565b8c156130ae575f8c8c89908492612fb7939291906138e9565b604051602001612fc8929190613ad8565b6040516020818303038152906040528051906020012090508c8c60018a612fef9190613837565b818110612ffe57612ffe6138d5565b905060200201356001600160a01b03168d8d5f8b61301c9190613837565b81811061302b5761302b6138d5565b905060200201357f4264ac208b5fde633ccdd42e0f12c3d6d443a4f3779bbf886925b94665b63a228f8f60038d6130629190613837565b61306e928892906138e9565b60405161307c9291906137b1565b60405180910390a35f81815260208c9052604081208054600192906130a2908490613837565b909155506132a3915050565b5f8c8c899084926130c1939291906138e9565b6040516020016130d2929190613ad8565b60408051601f1981840301815291815281516020928301205f818152928e9052912054909150806131455760405162461bcd60e51b815260206004820152601a60248201527f494e56414c49445f4d4553534147455f544f5f434f4e53554d450000000000006044820152606401610715565b6131506001826137d8565b61315a9087613837565b5f92835260208d90526040832083905595508d90508c61317b60028b613837565b81811061318a5761318a6138d5565b9050602002013590505f8d8d60058b6131a39190613837565b6131af928692906138e9565b808060200260200160405190810160405280939291908181526020018383602002808284375f81840152601f19601f8201169050808301925050505050505090508d8d60038b6131ff9190613837565b81811061320e5761320e6138d5565b905060200201358e8e60018c6132249190613837565b818110613233576132336138d5565b905060200201358f8f5f8d6132489190613837565b818110613257576132576138d5565b905060200201356001600160a01b03167f9592d37825c744e33fa80c469683bbd04d336241bb600b574758efd182abe26a8486604051613298929190613b03565b60405180910390a450505b9550612e75915050565b8284146132fc5760405162461bcd60e51b815260206004820152601c60248201527f494e56414c49445f4d4553534147455f5345474d454e545f53495a45000000006044820152606401610715565b801561338f576040515f90339083908381818185875af1925050503d805f8114613341576040519150601f19603f3d011682016040523d82523d5f602084013e613346565b606091505b505090508061338d5760405162461bcd60e51b815260206004820152601360248201527211551217d514905394d1915497d19052531151606a1b6044820152606401610715565b505b509198975050505050505050565b5f6133a783611560565b6001600160a01b0316146133eb5760405162461bcd60e51b815260206004820152600b60248201526a1053149150511657d4d15560aa1b6044820152606401610715565b610c25828261166a565b365f838184613405826002613837565b92613412939291906138e9565b915091505b9250929050565b5f82825f818110613431576134316138d5565b90506020020135905092915050565b5f82826001818110613431576134316138d5565b6001600160a01b0381168114610840575f80fd5b5f60208284031215613478575f80fd5b813561348381613454565b9392505050565b5f8083601f84011261349a575f80fd5b50813567ffffffffffffffff8111156134b1575f80fd5b6020830191508360208260051b8501011115613417575f80fd5b5f805f604084860312156134dd575f80fd5b83359250602084013567ffffffffffffffff8111156134fa575f80fd5b6135068682870161348a565b9497909650939450505050565b5f60208284031215613523575f80fd5b5035919050565b5f805f806060858703121561353d575f80fd5b8435935060208501359250604085013567ffffffffffffffff811115613561575f80fd5b61356d8782880161348a565b95989497509550505050565b5f806020838503121561358a575f80fd5b823567ffffffffffffffff8111156135a0575f80fd5b8301601f810185136135b0575f80fd5b803567ffffffffffffffff8111156135c6575f80fd5b8560208284010111156135d7575f80fd5b6020919091019590945092505050565b5f805f80604085870312156135fa575f80fd5b843567ffffffffffffffff811115613610575f80fd5b61361c8782880161348a565b909550935050602085013567ffffffffffffffff811115613561575f80fd5b5f805f6060848603121561364d575f80fd5b505081359360208301359350604090920135919050565b5f805f805f60808688031215613678575f80fd5b8535945060208601359350604086013567ffffffffffffffff81111561369c575f80fd5b6136a88882890161348a565b96999598509660600135949350505050565b5f805f80606085870312156136cd575f80fd5b843567ffffffffffffffff8111156136e3575f80fd5b6136ef8782880161348a565b90989097506020870135966040013595509350505050565b602081525f82518060208401528060208501604085015e5f604082850101526040601f19601f83011684010191505092915050565b5f6001600160fb1b03831115613750575f80fd5b8260051b80838637939093019392505050565b8581528460208201528360408201525f6125d560608301848661373c565b8183525f6001600160fb1b03831115613798575f80fd5b8260051b80836020870137939093016020019392505050565b602081525f612dda602083018486613781565b634e487b7160e01b5f52601160045260245ffd5b81810381811115610679576106796137c4565b6020808252600f908201526e4f4e4c595f474f5645524e414e434560881b604082015260600190565b60208082526009908201526811925390531256915160ba1b604082015260600190565b80820180821115610679576106796137c4565b606081525f61385d606083018688613781565b6020830194909452506040015292915050565b8082028115828204841417610679576106796137c4565b5f8085851115613895575f80fd5b838611156138a1575f80fd5b5050820193919092039150565b6020808252600d908201526c27a7262cafa7a822a920aa27a960991b604082015260600190565b634e487b7160e01b5f52603260045260245ffd5b5f80858511156138f7575f80fd5b83861115613903575f80fd5b5050600583901b0193919092039150565b604081525f613927604083018587613781565b9050826020830152949350505050565b5f81518060208401855e5f93019283525090919050565b5f6134838284613937565b8781528660208201528560408201528460608201528360808201525f61398360a08301848661373c565b9998505050505050505050565b60208152816020820152818360408301375f818301604090810191909152601f909201601f19160101919050565b5f805f805f85870360e08112156139d3575f80fd5b863595506020870135945060408701356139ec81613454565b93506060878101359350607f1982011215613a05575f80fd5b506040516060810181811067ffffffffffffffff82111715613a3557634e487b7160e01b5f52604160045260245ffd5b60409081526080880135825260a0880135602083015260c090970135968101969096525092959194509290565b5f808335601e19843603018112613a77575f80fd5b83018035915067ffffffffffffffff821115613a91575f80fd5b602001915036819003821315613417575f80fd5b8681528560208201528460408201525f613ac26060830186613937565b838582375f930192835250909695505050505050565b5f612dda82848661373c565b5f60208284031215613af4575f80fd5b81518015158114613483575f80fd5b604080825283519082018190525f9060208501906060840190835b81811015613b3c578351835260209384019390920191600101613b1e565b505060209390930193909352509291505056fe535441524b4e45545f312e305f494e49545f56455249464945525f41444452455353535441524b4e45545f312e305f524f4c45535f4f50455241544f52535f4d415050494e475f544147535441524b4e45545f312e305f4d5347494e475f4c31544f4c325f43414e43454c4c4154494f4e5f4d41505050494e47535441524b4e45545f312e305f494e49545f535441524b4e45545f53544154455f535452554354535441524b4e45545f312e305f494e49545f41474752454741544f525f50524f4752414d5f484153485f55494e54535441524b4e45545f312e305f494e49545f50524f4752414d5f484153485f55494e54535441524b4e45545f312e305f4d5347494e475f4c31544f4c325f43414e43454c4c4154494f4e5f44454c4159535441524b4e45545f312e305f535441524b4e45545f434f4e4649475f48415348535441524b4e45545f312e305f4d5347494e475f4c32544f4c315f4d41505050494e47535441524b4e45545f312e305f4d5347494e475f4c31544f4c325f4d41505050494e475f5632535441524b574152455f434f4e5452414354535f474f564552454e45445f46494e414c495a41424c455f312e305f544147a264697066735822122024565c1e09a784ae02357f33fd8fc7aebe9e11d21ded2fa3f067de4e87dd89ae64736f6c634300081a0033",
    "linkReferences": {}
  },
  "methodIdentifiers": {
    "aggregatorProgramHash()": "eb27feeb",
    "cancelL1ToL2Message(uint256,uint256,uint256[],uint256)": "6170ff1b",
    "configHash()": "e1f1176d",
    "consumeMessageFromL2(uint256,uint256[])": "2c9dd5c0",
    "finalize()": "4bb278f3",
    "getMaxL1MsgFee()": "54eccba4",
    "identify()": "eeb72866",
    "initialize(bytes)": "439fab91",
    "isFinalized()": "8d4e4083",
    "isFrozen()": "33eeb147",
    "isOperator(address)": "6d70f7ae",
    "l1ToL2MessageCancellations(bytes32)": "9be446bf",
    "l1ToL2MessageNonce()": "018cccdf",
    "l1ToL2Messages(bytes32)": "77c7d7a9",
    "l2ToL1Messages(bytes32)": "a46efaf3",
    "messageCancellationDelay()": "8303bd8a",
    "programHash()": "8a9bf090",
    "registerOperator(address)": "3682a450",
    "sendMessageToL2(uint256,uint256,uint256[])": "3e3aa6c5",
    "setAggregatorProgramHash(uint256)": "9020429c",
    "setConfigHash(uint256)": "3d07b336",
    "setMessageCancellationDelay(uint256)": "c99d397f",
    "setProgramHash(uint256)": "e87e7332",
    "starknetAcceptGovernance()": "946be3ed",
    "starknetCancelNomination()": "e37fec25",
    "starknetIsGovernor(address)": "01a01590",
    "starknetNominateNewGovernor(address)": "91a66a26",
    "starknetRemoveGovernor(address)": "84f921cd",
    "startL1ToL2MessageCancellation(uint256,uint256,uint256[],uint256)": "7a98660b",
    "stateBlockHash()": "382d83e3",
    "stateBlockNumber()": "35befa5d",
    "stateRoot()": "9588eca2",
    "unregisterOperator(address)": "96115bc2",
    "updateState(uint256[],uint256,uint256)": "77552641",
    "updateStateKzgDA(uint256[],bytes[])": "507ee528",
    "updateStateOverride(uint256,int256,uint256)": "61538cad"
  },
  "id": 16
}