{"abi":[{"type":"function","name":"checkDeploymentStatus","inputs":[{"name":"token","type":"address","internalType":"address"}],"outputs":[],"stateMutability":"nonpayable"},{"type":"function","name":"deactivate","inputs":[{"name":"token","type":"address","internalType":"address"}],"outputs":[],"stateMutability":"nonpayable"},{"type":"function","name":"deposit","inputs":[{"name":"token","type":"address","internalType":"address"},{"name":"amount","type":"uint256","internalType":"uint256"},{"name":"l2Recipient","type":"uint256","internalType":"uint256"}],"outputs":[],"stateMutability":"payable"},{"type":"function","name":"depositCancelRequest","inputs":[{"name":"token","type":"address","internalType":"address"},{"name":"amount","type":"uint256","internalType":"uint256"},{"name":"l2Recipient","type":"uint256","internalType":"uint256"},{"name":"nonce","type":"uint256","internalType":"uint256"}],"outputs":[],"stateMutability":"nonpayable"},{"type":"function","name":"depositReclaim","inputs":[{"name":"token","type":"address","internalType":"address"},{"name":"amount","type":"uint256","internalType":"uint256"},{"name":"l2Recipient","type":"uint256","internalType":"uint256"},{"name":"nonce","type":"uint256","internalType":"uint256"}],"outputs":[],"stateMutability":"nonpayable"},{"type":"function","name":"depositWithMessage","inputs":[{"name":"token","type":"address","internalType":"address"},{"name":"amount","type":"uint256","internalType":"uint256"},{"name":"l2Recipient","type":"uint256","internalType":"uint256"},{"name":"message","type":"uint256[]","internalType":"uint256[]"}],"outputs":[],"stateMutability":"payable"},{"type":"function","name":"depositWithMessageCancelRequest","inputs":[{"name":"token","type":"address","internalType":"address"},{"name":"amount","type":"uint256","internalType":"uint256"},{"name":"l2Recipient","type":"uint256","internalType":"uint256"},{"name":"message","type":"uint256[]","internalType":"uint256[]"},{"name":"nonce","type":"uint256","internalType":"uint256"}],"outputs":[],"stateMutability":"nonpayable"},{"type":"function","name":"depositWithMessageReclaim","inputs":[{"name":"token","type":"address","internalType":"address"},{"name":"amount","type":"uint256","internalType":"uint256"},{"name":"l2Recipient","type":"uint256","internalType":"uint256"},{"name":"message","type":"uint256[]","internalType":"uint256[]"},{"name":"nonce","type":"uint256","internalType":"uint256"}],"outputs":[],"stateMutability":"nonpayable"},{"type":"function","name":"disableWithdrawalLimit","inputs":[{"name":"token","type":"address","internalType":"address"}],"outputs":[],"stateMutability":"nonpayable"},{"type":"function","name":"enableWithdrawalLimit","inputs":[{"name":"token","type":"address","internalType":"address"}],"outputs":[],"stateMutability":"nonpayable"},{"type":"function","name":"enrollToken","inputs":[{"name":"token","type":"address","internalType":"address"}],"outputs":[],"stateMutability":"payable"},{"type":"function","name":"estimateDepositFeeWei","inputs":[],"outputs":[{"name":"","type":"uint256","internalType":"uint256"}],"stateMutability":"pure"},{"type":"function","name":"estimateEnrollmentFeeWei","inputs":[],"outputs":[{"name":"","type":"uint256","internalType":"uint256"}],"stateMutability":"pure"},{"type":"function","name":"getMaxTotalBalance","inputs":[{"name":"token","type":"address","internalType":"address"}],"outputs":[{"name":"","type":"uint256","internalType":"uint256"}],"stateMutability":"view"},{"type":"function","name":"getRemainingIntradayAllowance","inputs":[{"name":"token","type":"address","internalType":"address"}],"outputs":[{"name":"","type":"uint256","internalType":"uint256"}],"stateMutability":"view"},{"type":"function","name":"getStatus","inputs":[{"name":"token","type":"address","internalType":"address"}],"outputs":[{"name":"","type":"uint8","internalType":"enum StarknetTokenStorage.TokenStatus"}],"stateMutability":"view"},{"type":"function","name":"identify","inputs":[],"outputs":[{"name":"","type":"string","internalType":"string"}],"stateMutability":"pure"},{"type":"function","name":"initialize","inputs":[{"name":"data","type":"bytes","internalType":"bytes"}],"outputs":[],"stateMutability":"nonpayable"},{"type":"function","name":"isAppGovernor","inputs":[{"name":"account","type":"address","internalType":"address"}],"outputs":[{"name":"","type":"bool","internalType":"bool"}],"stateMutability":"view"},{"type":"function","name":"isAppRoleAdmin","inputs":[{"name":"account","type":"address","internalType":"address"}],"outputs":[{"name":"","type":"bool","internalType":"bool"}],"stateMutability":"view"},{"type":"function","name":"isFrozen","inputs":[],"outputs":[{"name":"","type":"bool","internalType":"bool"}],"stateMutability":"view"},{"type":"function","name":"isGovernanceAdmin","inputs":[{"name":"account","type":"address","internalType":"address"}],"outputs":[{"name":"","type":"bool","internalType":"bool"}],"stateMutability":"view"},{"type":"function","name":"isOperator","inputs":[{"name":"account","type":"address","internalType":"address"}],"outputs":[{"name":"","type":"bool","internalType":"bool"}],"stateMutability":"view"},{"type":"function","name":"isSecurityAdmin","inputs":[{"name":"account","type":"address","internalType":"address"}],"outputs":[{"name":"","type":"bool","internalType":"bool"}],"stateMutability":"view"},{"type":"function","name":"isSecurityAgent","inputs":[{"name":"account","type":"address","internalType":"address"}],"outputs":[{"name":"","type":"bool","internalType":"bool"}],"stateMutability":"view"},{"type":"function","name":"isServicingToken","inputs":[{"name":"token","type":"address","internalType":"address"}],"outputs":[{"name":"","type":"bool","internalType":"bool"}],"stateMutability":"view"},{"type":"function","name":"isTokenAdmin","inputs":[{"name":"account","type":"address","internalType":"address"}],"outputs":[{"name":"","type":"bool","internalType":"bool"}],"stateMutability":"view"},{"type":"function","name":"isUpgradeGovernor","inputs":[{"name":"account","type":"address","internalType":"address"}],"outputs":[{"name":"","type":"bool","internalType":"bool"}],"stateMutability":"view"},{"type":"function","name":"maxDeposit","inputs":[],"outputs":[{"name":"","type":"uint256","internalType":"uint256"}],"stateMutability":"pure"},{"type":"function","name":"registerAppGovernor","inputs":[{"name":"account","type":"address","internalType":"address"}],"outputs":[],"stateMutability":"nonpayable"},{"type":"function","name":"registerAppRoleAdmin","inputs":[{"name":"account","type":"address","internalType":"address"}],"outputs":[],"stateMutability":"nonpayable"},{"type":"function","name":"registerGovernanceAdmin","inputs":[{"name":"account","type":"address","internalType":"address"}],"outputs":[],"stateMutability":"nonpayable"},{"type":"function","name":"registerOperator","inputs":[{"name":"account","type":"address","internalType":"address"}],"outputs":[],"stateMutability":"nonpayable"},{"type":"function","name":"registerSecurityAdmin","inputs":[{"name":"account","type":"address","internalType":"address"}],"outputs":[],"stateMutability":"nonpayable"},{"type":"function","name":"registerSecurityAgent","inputs":[{"name":"account","type":"address","internalType":"address"}],"outputs":[],"stateMutability":"nonpayable"},{"type":"function","name":"registerTokenAdmin","inputs":[{"name":"account","type":"address","internalType":"address"}],"outputs":[],"stateMutability":"nonpayable"},{"type":"function","name":"registerUpgradeGovernor","inputs":[{"name":"account","type":"address","internalType":"address"}],"outputs":[],"stateMutability":"nonpayable"},{"type":"function","name":"renounceRole","inputs":[{"name":"role","type":"bytes32","internalType":"bytes32"},{"name":"account","type":"address","internalType":"address"}],"outputs":[],"stateMutability":"nonpayable"},{"type":"function","name":"revokeAppGovernor","inputs":[{"name":"account","type":"address","internalType":"address"}],"outputs":[],"stateMutability":"nonpayable"},{"type":"function","name":"revokeAppRoleAdmin","inputs":[{"name":"account","type":"address","internalType":"address"}],"outputs":[],"stateMutability":"nonpayable"},{"type":"function","name":"revokeGovernanceAdmin","inputs":[{"name":"account","type":"address","internalType":"address"}],"outputs":[],"stateMutability":"nonpayable"},{"type":"function","name":"revokeOperator","inputs":[{"name":"account","type":"address","internalType":"address"}],"outputs":[],"stateMutability":"nonpayable"},{"type":"function","name":"revokeSecurityAdmin","inputs":[{"name":"account","type":"address","internalType":"address"}],"outputs":[],"stateMutability":"nonpayable"},{"type":"function","name":"revokeSecurityAgent","inputs":[{"name":"account","type":"address","internalType":"address"}],"outputs":[],"stateMutability":"nonpayable"},{"type":"function","name":"revokeTokenAdmin","inputs":[{"name":"account","type":"address","internalType":"address"}],"outputs":[],"stateMutability":"nonpayable"},{"type":"function","name":"revokeUpgradeGovernor","inputs":[{"name":"account","type":"address","internalType":"address"}],"outputs":[],"stateMutability":"nonpayable"},{"type":"function","name":"setL2TokenBridge","inputs":[{"name":"l2TokenBridge_","type":"uint256","internalType":"uint256"}],"outputs":[],"stateMutability":"nonpayable"},{"type":"function","name":"setMaxTotalBalance","inputs":[{"name":"token","type":"address","internalType":"address"},{"name":"maxTotalBalance_","type":"uint256","internalType":"uint256"}],"outputs":[],"stateMutability":"nonpayable"},{"type":"function","name":"withdraw","inputs":[{"name":"token","type":"address","internalType":"address"},{"name":"amount","type":"uint256","internalType":"uint256"},{"name":"recipient","type":"address","internalType":"address"}],"outputs":[],"stateMutability":"nonpayable"},{"type":"function","name":"withdraw","inputs":[{"name":"token","type":"address","internalType":"address"},{"name":"amount","type":"uint256","internalType":"uint256"}],"outputs":[],"stateMutability":"nonpayable"},{"type":"event","name":"Deposit","inputs":[{"name":"sender","type":"address","indexed":true,"internalType":"address"},{"name":"token","type":"address","indexed":true,"internalType":"address"},{"name":"amount","type":"uint256","indexed":false,"internalType":"uint256"},{"name":"l2Recipient","type":"uint256","indexed":true,"internalType":"uint256"},{"name":"nonce","type":"uint256","indexed":false,"internalType":"uint256"},{"name":"fee","type":"uint256","indexed":false,"internalType":"uint256"}],"anonymous":false},{"type":"event","name":"DepositCancelRequest","inputs":[{"name":"sender","type":"address","indexed":true,"internalType":"address"},{"name":"token","type":"address","indexed":true,"internalType":"address"},{"name":"amount","type":"uint256","indexed":false,"internalType":"uint256"},{"name":"l2Recipient","type":"uint256","indexed":true,"internalType":"uint256"},{"name":"nonce","type":"uint256","indexed":false,"internalType":"uint256"}],"anonymous":false},{"type":"event","name":"DepositReclaimed","inputs":[{"name":"sender","type":"address","indexed":true,"internalType":"address"},{"name":"token","type":"address","indexed":true,"internalType":"address"},{"name":"amount","type":"uint256","indexed":false,"internalType":"uint256"},{"name":"l2Recipient","type":"uint256","indexed":true,"internalType":"uint256"},{"name":"nonce","type":"uint256","indexed":false,"internalType":"uint256"}],"anonymous":false},{"type":"event","name":"DepositWithMessage","inputs":[{"name":"sender","type":"address","indexed":true,"internalType":"address"},{"name":"token","type":"address","indexed":true,"internalType":"address"},{"name":"amount","type":"uint256","indexed":false,"internalType":"uint256"},{"name":"l2Recipient","type":"uint256","indexed":true,"internalType":"uint256"},{"name":"message","type":"uint256[]","indexed":false,"internalType":"uint256[]"},{"name":"nonce","type":"uint256","indexed":false,"internalType":"uint256"},{"name":"fee","type":"uint256","indexed":false,"internalType":"uint256"}],"anonymous":false},{"type":"event","name":"DepositWithMessageCancelRequest","inputs":[{"name":"sender","type":"address","indexed":true,"internalType":"address"},{"name":"token","type":"address","indexed":true,"internalType":"address"},{"name":"amount","type":"uint256","indexed":false,"internalType":"uint256"},{"name":"l2Recipient","type":"uint256","indexed":true,"internalType":"uint256"},{"name":"message","type":"uint256[]","indexed":false,"internalType":"uint256[]"},{"name":"nonce","type":"uint256","indexed":false,"internalType":"uint256"}],"anonymous":false},{"type":"event","name":"DepositWithMessageReclaimed","inputs":[{"name":"sender","type":"address","indexed":true,"internalType":"address"},{"name":"token","type":"address","indexed":true,"internalType":"address"},{"name":"amount","type":"uint256","indexed":false,"internalType":"uint256"},{"name":"l2Recipient","type":"uint256","indexed":true,"internalType":"uint256"},{"name":"message","type":"uint256[]","indexed":false,"internalType":"uint256[]"},{"name":"nonce","type":"uint256","indexed":false,"internalType":"uint256"}],"anonymous":false},{"type":"event","name":"RoleAdminChanged","inputs":[{"name":"role","type":"bytes32","indexed":true,"internalType":"bytes32"},{"name":"previousAdminRole","type":"bytes32","indexed":true,"internalType":"bytes32"},{"name":"newAdminRole","type":"bytes32","indexed":true,"internalType":"bytes32"}],"anonymous":false},{"type":"event","name":"RoleGranted","inputs":[{"name":"role","type":"bytes32","indexed":true,"internalType":"bytes32"},{"name":"account","type":"address","indexed":true,"internalType":"address"},{"name":"sender","type":"address","indexed":true,"internalType":"address"}],"anonymous":false},{"type":"event","name":"RoleRevoked","inputs":[{"name":"role","type":"bytes32","indexed":true,"internalType":"bytes32"},{"name":"account","type":"address","indexed":true,"internalType":"address"},{"name":"sender","type":"address","indexed":true,"internalType":"address"}],"anonymous":false},{"type":"event","name":"SetL2TokenBridge","inputs":[{"name":"value","type":"uint256","indexed":false,"internalType":"uint256"}],"anonymous":false},{"type":"event","name":"SetMaxTotalBalance","inputs":[{"name":"token","type":"address","indexed":true,"internalType":"address"},{"name":"value","type":"uint256","indexed":false,"internalType":"uint256"}],"anonymous":false},{"type":"event","name":"TokenDeactivated","inputs":[{"name":"token","type":"address","indexed":false,"internalType":"address"}],"anonymous":false},{"type":"event","name":"TokenEnrollmentInitiated","inputs":[{"name":"token","type":"address","indexed":false,"internalType":"address"},{"name":"deploymentMsgHash","type":"bytes32","indexed":false,"internalType":"bytes32"}],"anonymous":false},{"type":"event","name":"Withdrawal","inputs":[{"name":"recipient","type":"address","indexed":true,"internalType":"address"},{"name":"token","type":"address","indexed":true,"internalType":"address"},{"name":"amount","type":"uint256","indexed":false,"internalType":"uint256"}],"anonymous":false},{"type":"event","name":"WithdrawalLimitDisabled","inputs":[{"name":"sender","type":"address","indexed":true,"internalType":"address"},{"name":"token","type":"address","indexed":true,"internalType":"address"}],"anonymous":false},{"type":"event","name":"WithdrawalLimitEnabled","inputs":[{"name":"sender","type":"address","indexed":true,"internalType":"address"},{"name":"token","type":"address","indexed":true,"internalType":"address"}],"anonymous":false}],"bytecode":{"object":"0x60e060405246600114620000155760016200001c565b64e8d4a510005b64ffffffffff166080523480156200003357600080fd5b503060a052600160c08190526200004962000050565b5062000519565b336200005d818062000060565b50565b6200006a620001c1565b1562000103576001600160a01b03821660009081527fa5fdb349cc4ffac7e8ce7d3b075149d1bc847367d814e69a9beca89ef02db8b0602052604090205460ff16620000fd5760405162461bcd60e51b815260206004820152601960248201527f524f4c45535f414c52454144595f494e495449414c495a45440000000000000060448201526064015b60405180910390fd5b6200010e565b6200010e8262000215565b6200011862000360565b15620001b6576001600160a01b03811660009081527f2c11a1f9c63817dbb9f0faa966615764d2db5d6e008269e948a99e0b52181c23602052604090205460ff16620001b25760405162461bcd60e51b815260206004820152602260248201527f53454355524954595f524f4c45535f414c52454144595f494e495449414c495a604482015261115160f21b6064820152608401620000f4565b5050565b620001b281620003b2565b60008051602062004e84833981519152600090815260008051602062004ec48339815191526020527fa5fdb349cc4ffac7e8ce7d3b075149d1bc847367d814e69a9beca89ef02db8b15481905b1415905090565b6200023060008051602062004e84833981519152826200041e565b6200026a7ed2ead78c620e94b02d0a996e99298c59ddccfa1d8a0149080ac3a20de0606860008051602062004ee4833981519152620004c0565b6200029460008051602062004ee483398151915260008051602062004e84833981519152620004c0565b620002af60008051602062004e8483398151915280620004c0565b620002ea7f023edb77f7c8cc9e38e8afe78954f703aeeda7fffe014eeb6e56ea84e62f6da760008051602062004ee4833981519152620004c0565b620003257f0128d63adbf6b09002c26caf55c47e2f26635807e3ef1b027218aa74c8d61a3e60008051602062004ee4833981519152620004c0565b6200005d7f0251e864ca2a080f55bce5da2452e8cfcafdbc951a3e7fff5023d558452ec22860008051602062004e84833981519152620004c0565b60008051602062004ea4833981519152600090815260008051602062004ec48339815191526020527f2c11a1f9c63817dbb9f0faa966615764d2db5d6e008269e948a99e0b52181c245481906200020e565b620003cd60008051602062004ea483398151915280620004c0565b620004087f037693ba312785932d430dccf0f56ffedd0aa7c0f8b6da2cc4530c2717689b9660008051602062004ea4833981519152620004c0565b6200005d60008051602062004ea4833981519152825b600082815260008051602062004ec4833981519152602090815260408083206001600160a01b038516845290915290205460ff16620001b257600082815260008051602062004ec4833981519152602090815260408083206001600160a01b0385168085529252808320805460ff1916600117905551339285917f2f8788117e7eff1d82e926ec794901d17c78024a50270940304540a733656f0d9190a45050565b600082815260008051602062004ec48339815191526020526040808220600101805490849055905190918391839186917fbd79b86ffe0ab8e8776151514217cd7cacd52c909f66475c3af44e129f0b00ff9190a4505050565b60805160a05160c05161493b620005496000396000610c7901526000610e3901526000612d59015261493b6000f3fe6080604052600436106102c95760003560e01c8063757bd9ab11610175578063cdd1f70d116100dc578063deec9c5a11610095578063eeb728661161006f578063eeb7286614610892578063f3fef3a3146108b4578063fa0f73ba146108d4578063fad8b32a146108f457600080fd5b8063deec9c5a14610832578063ed9ef16a14610852578063ee0e68071461087257600080fd5b8063cdd1f70d14610772578063cf50fd1c14610792578063d08fb6cb146107b2578063d12fc182146107d2578063d2b51eea146107f2578063d9fa70911461081257600080fd5b8063a6d1d6c61161012e578063a6d1d6c6146106d7578063ad8b92b4146106f7578063af8bc15e1461070a578063b5cd0c3c1461071f578063be58b18e1461073f578063cb1cccce1461075257600080fd5b8063757bd9ab146106175780637fc2ab3e146106375780638101b64c146106575780638e5224ff146106775780639463629a14610697578063a2bdde3d146106b757600080fd5b80633ea053eb116102345780635a72af89116101ed57806369328dec116101c757806369328dec146105975780636c04d9d5146105b75780636d70f7ae146105d75780636fc97cbf146105f757600080fd5b80635a72af89146105425780636083e59a1461056257806362a143761461057757600080fd5b80633ea053eb1461047f578063439fab911461049f578063496ae54c146104bf5780634baf43da146104ed5780634d8b92a51461050d5780635a5d1bb91461052257600080fd5b806323205c521161028657806323205c52146103985780632f951985146103b857806330ccebb5146103d857806333eeb1471461042b57806336568abe1461043f5780633682a4501461045f57600080fd5b80630b3a2d21146102ce5780630c6f8664146102f05780630e770f23146103255780630efe6a8b1461034557806314af98b3146103585780631789638314610378575b600080fd5b3480156102da57600080fd5b506102ee6102e9366004613db6565b610914565b005b3480156102fc57600080fd5b5061031061030b366004613db6565b61092f565b60405190151581526020015b60405180910390f35b34801561033157600080fd5b506102ee610340366004613db6565b610990565b6102ee610353366004613dd3565b6109a8565b34801561036457600080fd5b506102ee610373366004613db6565b610a64565b34801561038457600080fd5b506102ee610393366004613db6565b610b0c565b3480156103a457600080fd5b506102ee6103b3366004613e08565b610b24565b3480156103c457600080fd5b506102ee6103d3366004613db6565b610c1a565b3480156103e457600080fd5b5061041e6103f3366004613db6565b6001600160a01b031660009081526000805160206148a6833981519152602052604090205460ff1690565b60405161031c9190613e59565b34801561043757600080fd5b506000610310565b34801561044b57600080fd5b506102ee61045a366004613e81565b610c5f565b34801561046b57600080fd5b506102ee61047a366004613db6565b610cf1565b34801561048b57600080fd5b506102ee61049a366004613db6565b610d09565b3480156104ab57600080fd5b506102ee6104ba366004613eb1565b610e36565b3480156104cb57600080fd5b506104df6104da366004613db6565b610fe7565b60405190815260200161031c565b3480156104f957600080fd5b506104df610508366004613db6565b61102e565b34801561051957600080fd5b506104df61106d565b34801561052e57600080fd5b5061031061053d366004613db6565b61107c565b34801561054e57600080fd5b506102ee61055d366004613db6565b611096565b34801561056e57600080fd5b506000196104df565b34801561058357600080fd5b506102ee610592366004613db6565b61113b565b3480156105a357600080fd5b506102ee6105b2366004613f23565b611153565b3480156105c357600080fd5b506103106105d2366004613db6565b611240565b3480156105e357600080fd5b506103106105f2366004613db6565b61125a565b34801561060357600080fd5b506102ee610612366004613db6565b611274565b34801561062357600080fd5b50610310610632366004613db6565b61128c565b34801561064357600080fd5b506102ee610652366004613f65565b6112a6565b34801561066357600080fd5b506102ee610672366004613db6565b6113cb565b34801561068357600080fd5b50610310610692366004613db6565b61140c565b3480156106a357600080fd5b506102ee6106b2366004613db6565b611426565b3480156106c357600080fd5b506103106106d2366004613db6565b61143e565b3480156106e357600080fd5b506102ee6106f2366004613e08565b611458565b6102ee610705366004613db6565b611539565b34801561071657600080fd5b506104df611786565b34801561072b57600080fd5b506102ee61073a366004613fca565b611790565b6102ee61074d36600461403c565b6118c7565b34801561075e57600080fd5b5061031061076d366004613db6565b6119da565b34801561077e57600080fd5b506102ee61078d366004613db6565b6119f4565b34801561079e57600080fd5b506102ee6107ad366004613fca565b611a0c565b3480156107be57600080fd5b506103106107cd366004613db6565b611b28565b3480156107de57600080fd5b506102ee6107ed366004613db6565b611b42565b3480156107fe57600080fd5b506102ee61080d3660046140a6565b611d67565b34801561081e57600080fd5b506102ee61082d366004613db6565b611e70565b34801561083e57600080fd5b506102ee61084d366004613db6565b611e88565b34801561085e57600080fd5b506102ee61086d366004613db6565b611ea0565b34801561087e57600080fd5b506102ee61088d366004613db6565b611eb8565b34801561089e57600080fd5b506108a7611ef9565b60405161031c91906140f6565b3480156108c057600080fd5b506102ee6108cf3660046140a6565b611f19565b3480156108e057600080fd5b506102ee6108ef366004613db6565b611f24565b34801561090057600080fd5b506102ee61090f366004613db6565b611f3c565b61092c6000805160206148e683398151915282611f54565b50565b6001600160a01b03811660009081526000805160206148a6833981519152602052604081205460ff16600181600381111561096c5761096c613e43565b14806109895750600281600381111561098757610987613e43565b145b9392505050565b61092c6000805160206147d283398151915282611f54565b826109b28161092f565b6109f85760405162461bcd60e51b81526020600482015260126024820152711513d2d15397d393d517d4d154959250d15160721b60448201526064015b60405180910390fd5b6040805160008082526020820190925290610a138686611f75565b90506000610a338787878660008051602061488683398151915287612059565b9050610a528787878660008051602061488683398151915286886121be565b610a5b87611b42565b50505050505050565b610a6d3361128c565b610aaf5760405162461bcd60e51b815260206004820152601360248201527213d3931657d4d150d55492551657d051d15395606a1b60448201526064016109ef565b6001600160a01b03811660008181526000805160206148a68339815191526020526040808220600401805460ff191660011790555133917fe2deca319add01142d26def2de47e64bf1fdc70e6f90c13a1862a48bdaaa7cfd91a350565b61092c6000805160206147f283398151915282611f54565b610b2c6122d3565b6001600160a01b0316636170ff1b610b426122f6565b600080516020614886833981519152610b5c888888612319565b856040518563ffffffff1660e01b8152600401610b7c949392919061417b565b6020604051808303816000875af1158015610b9b573d6000803e3d6000fd5b505050506040513d601f19601f82011682018060405250810190610bbf91906141ab565b50610bcb848433612344565b604080518481526020810183905283916001600160a01b0387169133917f50485fb0face2cfd73784044ab4191986b4a6713f01854414e2331a6bb41837d91015b60405180910390a450505050565b80336001600160a01b03821603610c435760405162461bcd60e51b81526004016109ef906141c4565b610c5b6000805160206147f28339815191528361234f565b5050565b6000805160206146c483398151915282148015610c9a57507f0000000000000000000000000000000000000000000000000000000000000000155b15610ce75760405162461bcd60e51b815260206004820181905260248201527f43414e4e4f545f52454e4f554e43455f474f5645524e414e43455f41444d494e60448201526064016109ef565b610c5b828261236b565b61092c6000805160206148c683398151915282611f54565b33610d126123e5565b6001600160a01b031614610d575760405162461bcd60e51b815260206004820152600c60248201526b27a7262cafa6a0a720a3a2a960a11b60448201526064016109ef565b6001600160a01b03811660009081526000805160206148a6833981519152602052604081205460ff166003811115610d9157610d91613e43565b03610dce5760405162461bcd60e51b815260206004820152600d60248201526c2aa725a727aba72faa27a5a2a760991b60448201526064016109ef565b6001600160a01b03811660008181526000805160206148a68339815191526020908152604091829020805460ff1916600317905590519182527f86d6e4556eae726303caf49a75add7d92ac713e46db458dab0622aa263fb48e691015b60405180910390a150565b307f00000000000000000000000000000000000000000000000000000000000000006001600160a01b031603610ea75760405162461bcd60e51b81526020600482015260166024820152751112549150d517d0d0531317d11254d0531313d5d15160521b60448201526064016109ef565b6000610eb481602061420a565b90506000610ec3826020614221565b905080831015610f0b5760405162461bcd60e51b81526020600482015260136024820152721253925517d110551057d513d3d7d4d3505313606a1b60448201526064016109ef565b6000610f1982848688614234565b810190610f269190613db6565b9050366000610f378582888a614234565b91509150366000610f4a8887818c614234565b90925090506001600160a01b03851615610f7457610f69858383612408565b505050505050505050565b610f7c61254a565b15610fcb578015610fc65760405162461bcd60e51b8152602060048201526014602482015273554e45585045435445445f494e49545f4441544160601b60448201526064016109ef565b610f69565b610fd58282612565565b610fdf828261267d565b610f696126ac565b6001600160a01b03811660009081526000805160206148a6833981519152602052604081206004015460ff1661101f57600019611028565b611028826126b7565b92915050565b6001600160a01b03811660009081526000805160206148a6833981519152602052604081206003015480156110635780610989565b6000199392505050565b60006110776126d8565b905090565b600061102860008051602061472b833981519152836126ec565b61109f33611b28565b6110e15760405162461bcd60e51b815260206004820152601360248201527227a7262cafa9a2a1aaa924aa2cafa0a226a4a760691b60448201526064016109ef565b6001600160a01b03811660008181526000805160206148a68339815191526020526040808220600401805460ff191690555133917f109dee66091b7a145f557f52c55d7beccb6a29011fc705557e2975749474076b91a350565b61092c6000805160206146e483398151915282611f54565b6001600160a01b03811661119d5760405162461bcd60e51b81526020600482015260116024820152701253959053125117d49150d25412515395607a1b60448201526064016109ef565b6111a8838383612724565b6001600160a01b03831660009081526000805160206148a6833981519152602052604090206004015460ff16156111e3576111e383836128c3565b6111ee838383612344565b826001600160a01b0316816001600160a01b03167f2717ead6b9200dd235aad468c9809ea400fe33ac69b5bfaa6d3e90fc922b63988460405161123391815260200190565b60405180910390a3505050565b600061102860008051602061474b833981519152836126ec565b60006110286000805160206148c6833981519152836126ec565b61092c60008051602061474b83398151915282611f54565b60006110286000805160206147d2833981519152836126ec565b6112af3361107c565b6112ef5760405162461bcd60e51b815260206004820152601160248201527027a7262cafa0a8282fa3a7ab22a92727a960791b60448201526064016109ef565b6112f761254a565b6113435760405162461bcd60e51b815260206004820152601860248201527f434f4e54524143545f4e4f545f494e495449414c495a4544000000000000000060448201526064016109ef565b61134c81612933565b6113925760405162461bcd60e51b81526020600482015260176024820152764c325f414444524553535f4f55545f4f465f52414e474560481b60448201526064016109ef565b61139b81612956565b6040518181527f90fc3f39f8e4669d1bf5f9038707949f8af42a973f62988143be0fa7c3997f1890602001610e2b565b80336001600160a01b038216036113f45760405162461bcd60e51b81526004016109ef906141c4565b610c5b6000805160206146e48339815191528361234f565b60006110286000805160206147f2833981519152836126ec565b61092c6000805160206146c483398151915282611f54565b60006110286000805160206148e6833981519152836126ec565b6114606122d3565b6001600160a01b0316637a98660b6114766122f6565b600080516020614886833981519152611490888888612319565b856040518563ffffffff1660e01b81526004016114b0949392919061417b565b6020604051808303816000875af11580156114cf573d6000803e3d6000fd5b505050506040513d601f19601f820116820180604052508101906114f391906141ab565b50604080518481526020810183905283916001600160a01b0387169133917f8f3da3ce93acd45e015b069c8f032d37be93dc9efcaaeda368aa9ca74f64c30a9101610c0c565b336115426123e5565b6001600160a01b0316146115875760405162461bcd60e51b815260206004820152600c60248201526b27a7262cafa6a0a720a3a2a960a11b60448201526064016109ef565b6001600160a01b03811660009081526000805160206148a6833981519152602052604081205460ff1660038111156115c1576115c1613e43565b146116075760405162461bcd60e51b81526020600482015260166024820152751513d2d15397d053149150511657d1539493d313115160521b60448201526064016109ef565b600061161282612978565b9050600061161e6122d3565b6001600160a01b03166377c7d7a9836040518263ffffffff1660e01b815260040161164b91815260200190565b602060405180830381865afa158015611668573d6000803e3d6000fd5b505050506040513d601f19601f8201168201806040525081019061168c91906141ab565b116116d95760405162461bcd60e51b815260206004820152601c60248201527f4445504c4f594d454e545f4d4553534147455f4e4f545f45584953540000000060448201526064016109ef565b6001600160a01b03821660009081526000805160206148a683398151915260205260409020805460ff1916600190811782550181905561171c6206978042614221565b6000805160206148a68339815191526001600160a01b038416600081815260209283526040908190206002019390935582519081529081018390527fb670c236b17dd3aaf925b2bc17b1a1cc9a5c1523d8f620f09e33f4403fb1c73a910160405180910390a15050565b6000611077612a5d565b6117986122d3565b6001600160a01b0316636170ff1b6117ae6122f6565b6000805160206147b28339815191526117fe8a8a8a60018b8b80806020026020016040519081016040528093929190818152602001838360200280828437600092019190915250612a7092505050565b856040518563ffffffff1660e01b815260040161181e949392919061417b565b6020604051808303816000875af115801561183d573d6000803e3d6000fd5b505050506040513d601f19601f8201168201806040525081019061186191906141ab565b5061186d868633612344565b83866001600160a01b0316336001600160a01b03167fa465a02eedf06ceffd1d99159ad98c5d8fa7f17b870eb22e0bfcec06398a8f73888787876040516118b7949392919061425e565b60405180910390a4505050505050565b846118d18161092f565b6119125760405162461bcd60e51b81526020600482015260126024820152711513d2d15397d393d517d4d154959250d15160721b60448201526064016109ef565b600061191e8787611f75565b905060006119738888888888808060200260200160405190810160405280939291908181526020018383602002808284376000920191909152506000805160206147b283398151915292508991506120599050565b90506119c78888888888808060200260200160405190810160405280939291908181526020018383602002808284376000920191909152506000805160206147b283398151915292508891508990506121be565b6119d088611b42565b5050505050505050565b60006110286000805160206146c4833981519152836126ec565b61092c60008051602061472b83398151915282611f54565b611a146122d3565b6001600160a01b0316637a98660b611a2a6122f6565b6000805160206147b2833981519152611a7a8a8a8a60018b8b80806020026020016040519081016040528093929190818152602001838360200280828437600092019190915250612a7092505050565b856040518563ffffffff1660e01b8152600401611a9a949392919061417b565b6020604051808303816000875af1158015611ab9573d6000803e3d6000fd5b505050506040513d601f19601f82011682018060405250810190611add91906141ab565b5083866001600160a01b0316336001600160a01b03167f889e470f207032611b2f68dbd2124e3139794f19a6b536c83892fd5057603860888787876040516118b7949392919061425e565b60006110286000805160206146e4833981519152836126ec565b6001600160a01b03811660009081526000805160206148a68339815191526020526040902054819060019060ff166003811115611b8157611b81613e43565b14611b8a575050565b6001600160a01b03821660009081526000805160206148a6833981519152602052604090206001810154611bbc6122d3565b6001600160a01b03166377c7d7a9826040518263ffffffff1660e01b8152600401611be991815260200190565b602060405180830381865afa158015611c06573d6000803e3d6000fd5b505050506040513d601f19601f82011682018060405250810190611c2a91906141ab565b600003611c4157815460ff19166002178255611d61565b8160020154421115611d61576001600160a01b03841660009081526000805160206148a683398151915260205260408120805460ff199081168255600182018390556002820183905560038201839055600490910180549091169055611ca56123e5565b6001600160a01b0316635ab1bd536040518163ffffffff1660e01b8152600401602060405180830381865afa158015611ce2573d6000803e3d6000fd5b505050506040513d601f19601f82011682018060405250810190611d0691906142a4565b604051630caca05160e31b81526001600160a01b03878116600483015291925090821690636565028890602401600060405180830381600087803b158015611d4d57600080fd5b505af1158015610f69573d6000803e3d6000fd5b50505050565b611d703361107c565b611db05760405162461bcd60e51b815260206004820152601160248201527027a7262cafa0a8282fa3a7ab22a92727a960791b60448201526064016109ef565b80600003611e005760405162461bcd60e51b815260206004820152601960248201527f494e56414c49445f4d41585f544f54414c5f42414c414e43450000000000000060448201526064016109ef565b816001600160a01b03167fb895637c7d86c9b7b5b747e72195206a3fc21d8df0e019edd2312454ffa733b182604051611e3b91815260200190565b60405180910390a26001600160a01b039190911660009081526000805160206148a68339815191526020526040902060030155565b61092c6000805160206147d28339815191528261234f565b61092c60008051602061472b8339815191528261234f565b61092c60008051602061474b8339815191528261234f565b80336001600160a01b03821603611ee15760405162461bcd60e51b81526004016109ef906141c4565b610c5b6000805160206146c48339815191528361234f565b606060405180606001604052806023815260200161483860239139905090565b610c5b828233611153565b61092c6000805160206148e68339815191528261234f565b61092c6000805160206148c68339815191528261234f565b611f5d82612cb5565b611f6681612cd7565b611f708383612ce1565b505050565b6000611f8034612d57565b6040516370a0823160e01b81523060048201526000906001600160a01b038516906370a0823190602401602060405180830381865afa158015611fc7573d6000803e3d6000fd5b505050506040513d601f19601f82011682018060405250810190611feb91906141ab565b9050611ff68461102e565b6120008483614221565b11156120455760405162461bcd60e51b815260206004820152601460248201527313505617d09053105390d157d15610d15151115160621b60448201526064016109ef565b612050843385612e0c565b50349392505050565b60006120636122f6565b6000036120825760405162461bcd60e51b81526004016109ef906142c1565b600086116120c15760405162461bcd60e51b815260206004820152600c60248201526b16915493d7d1115413d4d25560a21b60448201526064016109ef565b6120ca85612933565b6121105760405162461bcd60e51b81526020600482015260176024820152764c325f414444524553535f4f55545f4f465f52414e474560481b60448201526064016109ef565b6000805160206147b28339815191528314600061212b6122d3565b6001600160a01b0316633e3aa6c5856121426122f6565b886121508e8e8e8a8f612a70565b6040518563ffffffff1660e01b815260040161216e939291906142ec565b604080518083038185885af115801561218b573d6000803e3d6000fd5b50505050506040513d601f19601f820116820180604052508101906121b0919061430b565b9a9950505050505050505050565b600080516020614886833981519152830361222857604080518781526020810184905290810182905285906001600160a01b0389169033907f5f971bd00bf3ffbca8a6d72cdd4fd92cfd4f62636161921d1e5a64f0b64ccb6d9060600160405180910390a4610a5b565b6000805160206147b283398151915283146122785760405162461bcd60e51b815260206004820152601060248201526f2aa725a727aba72fa9a2a622a1aa27a960811b60448201526064016109ef565b84876001600160a01b0316336001600160a01b03167f2203a49c69f1a46c1164f5e4a30643dd77b7c59c0ff9bc433256048365c247f1898887876040516122c2949392919061432f565b60405180910390a450505050505050565b600061107760405180606001604052806028815260200161469c60289139613003565b600061107760405180606001604052806027815260200161478b60279139613003565b604080516000808252602082019092526060915061233b858585600085612a70565b95945050505050565b611f70838284613037565b61235882612cb5565b61236181612cd7565b611f708383613174565b6001600160a01b03811633146123db5760405162461bcd60e51b815260206004820152602f60248201527f416363657373436f6e74726f6c3a2063616e206f6e6c792072656e6f756e636560448201526e103937b632b9903337b91039b2b63360891b60648201526084016109ef565b610c5b8282613174565b600061107760405180606001604052806026815260200161481260269139613003565b6001600160a01b0383163b6124545760405162461bcd60e51b8152602060048201526012602482015271115250d7d393d517d057d0d3d395149050d560721b60448201526064016109ef565b600080846001600160a01b031663439fab9160e01b858560405160240161247c92919061435b565b60408051601f198184030181529181526020820180516001600160e01b03166001600160e01b03199094169390931790925290516124ba919061438a565b600060405180830381855af49150503d80600081146124f5576040519150601f19603f3d011682016040523d82523d6000602084013e6124fa565b606091505b509150915081819061251f5760405162461bcd60e51b81526004016109ef91906140f6565b5080518190156125425760405162461bcd60e51b81526004016109ef91906140f6565b505050505050565b6000806125556122d3565b6001600160a01b03161415905090565b604081146125a95760405162461bcd60e51b8152602060048201526011602482015270494c4c4547414c5f444154415f53495a4560781b60448201526064016109ef565b6000806125b8838501856143a6565b915091506125cf816001600160a01b03163b151590565b6126265760405162461bcd60e51b815260206004820152602260248201527f494e56414c49445f4d4553534147494e475f434f4e54524143545f4144445245604482015261535360f01b60648201526084016109ef565b6001600160a01b0382163b611d615760405162461bcd60e51b815260206004820181905260248201527f494e56414c49445f4d414e414745525f434f4e54524143545f4144445245535360448201526064016109ef565b60008061268c838501856143a6565b91509150612699816131e8565b6126a28261320a565b611d61600561322c565b3361092c818061324e565b60006126c282613352565b6126cf5761102882613381565b61102882613434565b600061107764012a05f200620186a061420a565b600091825260008051602061476b833981519152602090815260408084206001600160a01b0393909316845291905290205460ff1690565b61272c6122f6565b60000361274b5760405162461bcd60e51b81526004016109ef906142c1565b60408051600580825260c082019092526000916020820160a080368337019050509050600081600081518110612783576127836143d4565b602002602001018181525050816001600160a01b0316816001815181106127ac576127ac6143d4565b602002602001018181525050836001600160a01b0316816002815181106127d5576127d56143d4565b602090810291909101015260016127ee608060026144ce565b6127f891906144da565b83168160038151811061280d5761280d6143d4565b602002602001018181525050608083901c81600481518110612831576128316143d4565b6020026020010181815250506128456122d3565b6001600160a01b0316632c9dd5c061285b6122f6565b836040518363ffffffff1660e01b81526004016128799291906144ed565b6020604051808303816000875af1158015612898573d6000803e3d6000fd5b505050506040513d601f19601f820116820180604052508101906128bc91906141ab565b5050505050565b60006128ce836126b7565b9050818110156129205760405162461bcd60e51b815260206004820152601d60248201527f455843454544535f474c4f42414c5f57495448445241575f4c494d495400000060448201526064016109ef565b611f708361292e84846144da565b613464565b60008115801590611028575061102882600167080000000000001160c01b011190565b61092c60405180606001604052806027815260200161478b6027913982613497565b60006129826122f6565b6000036129a15760405162461bcd60e51b81526004016109ef906142c1565b6129aa34612d57565b60006129b46122d3565b6001600160a01b0316633e3aa6c5346129cb6122f6565b7f03d78c7ddffebbba7bd7263963b2e0e86b2ed9e990a4fc1b9aed7acd11b37dbc6129f5886134e5565b6040518563ffffffff1660e01b8152600401612a13939291906142ec565b604080518083038185885af1158015612a30573d6000803e3d6000fd5b50505050506040513d601f19601f82011682018060405250810190612a55919061430b565b509392505050565b600061107764012a05f200614e2061420a565b6060600083612a80576005612a8c565b612a8c60016005614221565b90506000835182612a9d9190614221565b67ffffffffffffffff811115612ab557612ab5614129565b604051908082528060200260200182016040528015612ade578160200160208202803683370190505b509050876001600160a01b031681600081518110612afe57612afe6143d4565b602002602001018181525050336001600160a01b031681600181518110612b2757612b276143d4565b6020026020010181815250508581600281518110612b4757612b476143d4565b60209081029190910101526001612b60608060026144ce565b612b6a91906144da565b871681600381518110612b7f57612b7f6143d4565b602002602001018181525050608087901c81600481518110612ba357612ba36143d4565b6020026020010181815250508415612caa57835181612bc36001856144da565b81518110612bd357612bd36143d4565b60200260200101818152505060005b8451811015612ca857612c1b858281518110612c0057612c006143d4565b6020026020010151600167080000000000001160c01b011190565b612c5e5760405162461bcd60e51b8152602060048201526014602482015273494e56414c49445f4d4553534147455f4441544160601b60448201526064016109ef565b848181518110612c7057612c706143d4565b6020026020010151828483612c859190614221565b81518110612c9557612c956143d4565b6020908102919091010152600101612be2565b505b979650505050505050565b600090815260008051602061476b833981519152602052604090206001015490565b61092c81336136ad565b612ceb82826126ec565b610c5b57600082815260008051602061476b833981519152602090815260408083206001600160a01b0385168085529252808320805460ff1916600117905551339285917f2f8788117e7eff1d82e926ec794901d17c78024a50270940304540a733656f0d9190a45050565b7f0000000000000000000000000000000000000000000000000000000000000000811015612dc05760405162461bcd60e51b8152602060048201526016602482015275494e53554646494349454e545f4645455f56414c554560501b60448201526064016109ef565b662386f26fc1000081111561092c5760405162461bcd60e51b815260206004820152601260248201527108c8a8abeac8298aa8abea89e9ebe90928e960731b60448201526064016109ef565b80600003612e1957505050565b6040516370a0823160e01b815230600482015283906000906001600160a01b038316906370a0823190602401602060405180830381865afa158015612e62573d6000803e3d6000fd5b505050506040513d601f19601f82011682018060405250810190612e8691906141ab565b90506000612e948483614221565b905081811015612ed15760405162461bcd60e51b81526020600482015260086024820152674f564552464c4f5760c01b60448201526064016109ef565b6040516001600160a01b0386166024820152306044820152606481018590526000906323b872dd60e01b906084015b60408051601f198184030181529190526020810180516001600160e01b03166001600160e01b0319909316929092179091529050612f476001600160a01b03881682613711565b6040516370a0823160e01b81523060048201526000906001600160a01b038616906370a0823190602401602060405180830381865afa158015612f8e573d6000803e3d6000fd5b505050506040513d601f19601f82011682018060405250810190612fb291906141ab565b90508281146119d05760405162461bcd60e51b815260206004820152601c60248201527f494e434f52524543545f414d4f554e545f5452414e534645525245440000000060448201526064016109ef565b60008082604051602001613017919061438a565b60408051601f198184030181529190528051602090910120549392505050565b6001600160a01b0382166130815760405162461bcd60e51b81526020600482015260116024820152701253959053125117d49150d25412515395607a1b60448201526064016109ef565b8060000361308e57505050565b6040516370a0823160e01b815230600482015283906000906001600160a01b038316906370a0823190602401602060405180830381865afa1580156130d7573d6000803e3d6000fd5b505050506040513d601f19601f820116820180604052508101906130fb91906141ab565b9050600061310984836144da565b9050818111156131475760405162461bcd60e51b8152602060048201526009602482015268554e444552464c4f5760b81b60448201526064016109ef565b6040516001600160a01b03861660248201526044810185905260009063a9059cbb60e01b90606401612f00565b61317e82826126ec565b15610c5b57600082815260008051602061476b833981519152602090815260408083206001600160a01b0385168085529252808320805460ff1916905551339285917ff6391f5c32d9c69d2a47ea670b442974b53935d1edc7fd64eb21e047a839171b9190a45050565b61092c60405180606001604052806028815260200161469c6028913982613836565b61092c6040518060600160405280602681526020016148126026913982613836565b61092c6040518060600160405280602b815260200161485b602b913982613885565b6132566138b8565b156132c4576132736000805160206146c4833981519152836126ec565b6132bf5760405162461bcd60e51b815260206004820152601960248201527f524f4c45535f414c52454144595f494e495449414c495a45440000000000000060448201526064016109ef565b6132cd565b6132cd826138d9565b6132d56139c7565b15613349576132f26000805160206146e4833981519152826126ec565b610c5b5760405162461bcd60e51b815260206004820152602260248201527f53454355524954595f524f4c45535f414c52454144595f494e495449414c495a604482015261115160f21b60648201526084016109ef565b610c5b816139e1565b600061335c613a37565b600061336784613a5a565b815260200190815260200160002054600014159050919050565b60008062455447196001600160a01b0384160161339f57504761340a565b6040516370a0823160e01b81523060048201526001600160a01b038416906370a0823190602401602060405180830381865afa1580156133e3573d6000803e3d6000fd5b505050506040513d601f19601f8201168201806040525081019061340791906141ab565b90505b6000613414613aa7565b90506064613422828461420a565b61342c9190614506565b949350505050565b60006001613440613a37565b600061344b85613a5a565b81526020019081526020016000205461102891906144da565b61346f600182614221565b613477613a37565b600061348285613a5a565b81526020810191909152604001600020555050565b6134a082613003565b156134db5760405162461bcd60e51b815260206004820152600b60248201526a1053149150511657d4d15560aa1b60448201526064016109ef565b610c5b8282613885565b60408051600480825260a08201909252606091839160009160208201608080368337019050509050836001600160a01b03168160008151811061352a5761352a6143d4565b6020026020010181815250506135a4826001600160a01b03166306fdde036040518163ffffffff1660e01b8152600401600060405180830381865afa158015613577573d6000803e3d6000fd5b505050506040513d6000823e601f3d908101601f1916820160405261359f9190810190614528565b613aca565b816001815181106135b7576135b76143d4565b602002602001018181525050613604826001600160a01b03166395d89b416040518163ffffffff1660e01b8152600401600060405180830381865afa158015613577573d6000803e3d6000fd5b81600281518110613617576136176143d4565b602002602001018181525050816001600160a01b031663313ce5676040518163ffffffff1660e01b8152600401602060405180830381865afa158015613661573d6000803e3d6000fd5b505050506040513d601f19601f8201168201806040525081019061368591906145ca565b60ff168160038151811061369b5761369b6143d4565b60209081029190910101529392505050565b6136b782826126ec565b610c5b576136cf816001600160a01b03166014613aeb565b6136da836020613aeb565b6040516020016136eb9291906145ed565b60408051601f198184030181529082905262461bcd60e51b82526109ef916004016140f6565b813b6137535760405162461bcd60e51b81526020600482015260116024820152704241445f544f4b454e5f4144445245535360781b60448201526064016109ef565b600080836001600160a01b03168360405161376e919061438a565b6000604051808303816000865af19150503d80600081146137ab576040519150601f19603f3d011682016040523d82523d6000602084013e6137b0565b606091505b50915091508181906137d55760405162461bcd60e51b81526004016109ef91906140f6565b50805115611d6157808060200190518101906137f19190614662565b611d615760405162461bcd60e51b81526020600482015260166024820152751513d2d15397d3d4115490551253d397d1905253115160521b60448201526064016109ef565b600061384183613003565b6001600160a01b0316146134db5760405162461bcd60e51b815260206004820152600b60248201526a1053149150511657d4d15560aa1b60448201526064016109ef565b600082604051602001613898919061438a565b604051602081830303815290604052805190602001209050818155505050565b6000806138d26000805160206146c4833981519152612cb5565b1415905090565b6138f16000805160206146c483398151915282612ce1565b61391760008051602061472b8339815191526000805160206147f2833981519152613c87565b61393d6000805160206147f28339815191526000805160206146c4833981519152613c87565b6139556000805160206146c483398151915280613c87565b61397b6000805160206148c68339815191526000805160206147f2833981519152613c87565b6139a16000805160206148e68339815191526000805160206147f2833981519152613c87565b61092c60008051602061474b8339815191526000805160206146c4833981519152613c87565b6000806138d26000805160206146e4833981519152612cb5565b6139f96000805160206146e483398151915280613c87565b613a1f6000805160206147d28339815191526000805160206146e4833981519152613c87565b61092c6000805160206146e483398151915282612ce1565b600061107760405180606001604052806027815260200161470460279139613ce7565b600080613a6a6201518042614506565b604080516001600160a01b038616602082015290810182905290915060600160405160208183030381529060405280519060200120915050919050565b60006110776040518060600160405280602b815260200161485b602b9139613003565b600080613adf601f613ada855190565b613d1a565b90506109898382613d30565b60606000613afa83600261420a565b613b05906002614221565b67ffffffffffffffff811115613b1d57613b1d614129565b6040519080825280601f01601f191660200182016040528015613b47576020820181803683370190505b509050600360fc1b81600081518110613b6257613b626143d4565b60200101906001600160f81b031916908160001a905350600f60fb1b81600181518110613b9157613b916143d4565b60200101906001600160f81b031916908160001a9053506000613bb584600261420a565b613bc0906001614221565b90505b6001811115613c38576f181899199a1a9b1b9c1cb0b131b232b360811b85600f1660108110613bf457613bf46143d4565b1a60f81b828281518110613c0a57613c0a6143d4565b60200101906001600160f81b031916908160001a90535060049490941c93613c3181614684565b9050613bc3565b5083156109895760405162461bcd60e51b815260206004820181905260248201527f537472696e67733a20686578206c656e67746820696e73756666696369656e7460448201526064016109ef565b6000613c9283612cb5565b600084815260008051602061476b8339815191526020526040808220600101859055519192508391839186917fbd79b86ffe0ab8e8776151514217cd7cacd52c909f66475c3af44e129f0b00ff9190a4505050565b60008082604051602001613cfb919061438a565b60408051601f1981840301815291905280516020909101209392505050565b6000818310613d295781610989565b5090919050565b6000601f821115613d755760405162461bcd60e51b815260206004820152600f60248201526e535452494e475f544f4f5f4c4f4e4760881b60448201526064016109ef565b60208381015190600090613d8a9085906144da565b613d9590600861420a565b9190911c949350505050565b6001600160a01b038116811461092c57600080fd5b600060208284031215613dc857600080fd5b813561098981613da1565b600080600060608486031215613de857600080fd5b8335613df381613da1565b95602085013595506040909401359392505050565b60008060008060808587031215613e1e57600080fd5b8435613e2981613da1565b966020860135965060408601359560600135945092505050565b634e487b7160e01b600052602160045260246000fd5b6020810160048310613e7b57634e487b7160e01b600052602160045260246000fd5b91905290565b60008060408385031215613e9457600080fd5b823591506020830135613ea681613da1565b809150509250929050565b60008060208385031215613ec457600080fd5b823567ffffffffffffffff80821115613edc57600080fd5b818501915085601f830112613ef057600080fd5b813581811115613eff57600080fd5b866020828501011115613f1157600080fd5b60209290920196919550909350505050565b600080600060608486031215613f3857600080fd5b8335613f4381613da1565b9250602084013591506040840135613f5a81613da1565b809150509250925092565b600060208284031215613f7757600080fd5b5035919050565b60008083601f840112613f9057600080fd5b50813567ffffffffffffffff811115613fa857600080fd5b6020830191508360208260051b8501011115613fc357600080fd5b9250929050565b60008060008060008060a08789031215613fe357600080fd5b8635613fee81613da1565b95506020870135945060408701359350606087013567ffffffffffffffff81111561401857600080fd5b61402489828a01613f7e565b979a9699509497949695608090950135949350505050565b60008060008060006080868803121561405457600080fd5b853561405f81613da1565b94506020860135935060408601359250606086013567ffffffffffffffff81111561408957600080fd5b61409588828901613f7e565b969995985093965092949392505050565b600080604083850312156140b957600080fd5b82356140c481613da1565b946020939093013593505050565b60005b838110156140ed5781810151838201526020016140d5565b50506000910152565b60208152600082518060208401526141158160408501602087016140d2565b601f01601f19169190910160400192915050565b634e487b7160e01b600052604160045260246000fd5b60008151808452602080850194506020840160005b8381101561417057815187529582019590820190600101614154565b509495945050505050565b84815283602082015260806040820152600061419a608083018561413f565b905082606083015295945050505050565b6000602082840312156141bd57600080fd5b5051919050565b60208082526016908201527521a0a72727aa2fa822a92327a926afa7a72fa9a2a62360511b604082015260600190565b634e487b7160e01b600052601160045260246000fd5b8082028115828204841417611028576110286141f4565b80820180821115611028576110286141f4565b6000808585111561424457600080fd5b8386111561425157600080fd5b5050820193919092039150565b848152606060208201819052810183905260006001600160fb1b0384111561428557600080fd5b8360051b80866080850137604083019390935250016080019392505050565b6000602082840312156142b657600080fd5b815161098981613da1565b602080825260119082015270130c97d094925111d157d393d517d4d155607a1b604082015260600190565b83815282602082015260606040820152600061233b606083018461413f565b6000806040838503121561431e57600080fd5b505080516020909101519092909150565b848152608060208201526000614348608083018661413f565b6040830194909452506060015292915050565b60208152816020820152818360408301376000818301604090810191909152601f909201601f19160101919050565b6000825161439c8184602087016140d2565b9190910192915050565b600080604083850312156143b957600080fd5b82356143c481613da1565b91506020830135613ea681613da1565b634e487b7160e01b600052603260045260246000fd5b600181815b8085111561442557816000190482111561440b5761440b6141f4565b8085161561441857918102915b93841c93908002906143ef565b509250929050565b60008261443c57506001611028565b8161444957506000611028565b816001811461445f576002811461446957614485565b6001915050611028565b60ff84111561447a5761447a6141f4565b50506001821b611028565b5060208310610133831016604e8410600b84101617156144a8575081810a611028565b6144b283836143ea565b80600019048211156144c6576144c66141f4565b029392505050565b6000610989838361442d565b81810381811115611028576110286141f4565b82815260406020820152600061342c604083018461413f565b60008261452357634e487b7160e01b600052601260045260246000fd5b500490565b60006020828403121561453a57600080fd5b815167ffffffffffffffff8082111561455257600080fd5b818401915084601f83011261456657600080fd5b81518181111561457857614578614129565b604051601f8201601f19908116603f011681019083821181831017156145a0576145a0614129565b816040528281528760208487010111156145b957600080fd5b612caa8360208301602088016140d2565b6000602082840312156145dc57600080fd5b815160ff8116811461098957600080fd5b7f416363657373436f6e74726f6c3a206163636f756e74200000000000000000008152600083516146258160178501602088016140d2565b7001034b99036b4b9b9b4b733903937b6329607d1b60179184019182015283516146568160288401602088016140d2565b01602801949350505050565b60006020828403121561467457600080fd5b8151801515811461098957600080fd5b600081614693576146936141f4565b50600019019056fe535441524b4e45545f544f4b454e5f4252494447455f4d4553534147494e475f434f4e545241435403711c9d994faf6055172091cb841fd4831aa743e6f3315163b06a122c841846026bd110619d11cfdfc28e281df893bc24828e89177318e9dbd860cdaedeb6b357495448445241574c5f4c494d49545f494e5452414441595f51554f54415f534c4f545f54414700d2ead78c620e94b02d0a996e99298c59ddccfa1d8a0149080ac3a20de060680251e864ca2a080f55bce5da2452e8cfcafdbc951a3e7fff5023d558452ec22853e43b954ba190a7e49386f1f78b01dcd9f628db23f432fa029a7dfd6d98e8fb535441524b4e45545f544f4b454e5f4252494447455f4c325f544f4b454e5f434f4e5452414354008bce41827dd5484d80312a2e43bc42a896e3fcf75bf84c2b49339168dfa00a037693ba312785932d430dccf0f56ffedd0aa7c0f8b6da2cc4530c2717689b9603e615638e0b79444a70f8c695bf8f2a47033bf1cf95691ec3130f64939cee99535441524b4e45545f544f4b454e5f4252494447455f4d414e414745525f534c4f545f544147537461726b576172655f537461726b6e6574546f6b656e4272696467655f322e305f3457495448445241574c5f4c494d49545f57495448445241575f4c494d49545f5043545f534c4f545f54414701b64b1b3b690b43b9b514fb81377518f4039cd3e4f4914d8a6bdf01d679fb19c59c20aaa96597268f595db30ec21108a505370e3266ed3a6515637f16b8b689023edb77f7c8cc9e38e8afe78954f703aeeda7fffe014eeb6e56ea84e62f6da70128d63adbf6b09002c26caf55c47e2f26635807e3ef1b027218aa74c8d61a3ea26469706673582212205f9a5b9db6c38b24b13e0fc52789c3e207f0c1feb121b54ab7d98ecaa02daa4964736f6c6343000817003303711c9d994faf6055172091cb841fd4831aa743e6f3315163b06a122c841846026bd110619d11cfdfc28e281df893bc24828e89177318e9dbd860cdaedeb6b353e43b954ba190a7e49386f1f78b01dcd9f628db23f432fa029a7dfd6d98e8fb03e615638e0b79444a70f8c695bf8f2a47033bf1cf95691ec3130f64939cee99","linkReferences":{}},"methodIdentifiers":{"checkDeploymentStatus(address)":"d12fc182","deactivate(address)":"3ea053eb","deposit(address,uint256,uint256)":"0efe6a8b","depositCancelRequest(address,uint256,uint256,uint256)":"a6d1d6c6","depositReclaim(address,uint256,uint256,uint256)":"23205c52","depositWithMessage(address,uint256,uint256,uint256[])":"be58b18e","depositWithMessageCancelRequest(address,uint256,uint256,uint256[],uint256)":"cf50fd1c","depositWithMessageReclaim(address,uint256,uint256,uint256[],uint256)":"b5cd0c3c","disableWithdrawalLimit(address)":"5a72af89","enableWithdrawalLimit(address)":"14af98b3","enrollToken(address)":"ad8b92b4","estimateDepositFeeWei()":"af8bc15e","estimateEnrollmentFeeWei()":"4d8b92a5","getMaxTotalBalance(address)":"4baf43da","getRemainingIntradayAllowance(address)":"496ae54c","getStatus(address)":"30ccebb5","identify()":"eeb72866","initialize(bytes)":"439fab91","isAppGovernor(address)":"5a5d1bb9","isAppRoleAdmin(address)":"8e5224ff","isFrozen()":"33eeb147","isGovernanceAdmin(address)":"cb1cccce","isOperator(address)":"6d70f7ae","isSecurityAdmin(address)":"d08fb6cb","isSecurityAgent(address)":"757bd9ab","isServicingToken(address)":"0c6f8664","isTokenAdmin(address)":"a2bdde3d","isUpgradeGovernor(address)":"6c04d9d5","maxDeposit()":"6083e59a","registerAppGovernor(address)":"cdd1f70d","registerAppRoleAdmin(address)":"17896383","registerGovernanceAdmin(address)":"9463629a","registerOperator(address)":"3682a450","registerSecurityAdmin(address)":"62a14376","registerSecurityAgent(address)":"0e770f23","registerTokenAdmin(address)":"0b3a2d21","registerUpgradeGovernor(address)":"6fc97cbf","renounceRole(bytes32,address)":"36568abe","revokeAppGovernor(address)":"deec9c5a","revokeAppRoleAdmin(address)":"2f951985","revokeGovernanceAdmin(address)":"ee0e6807","revokeOperator(address)":"fad8b32a","revokeSecurityAdmin(address)":"8101b64c","revokeSecurityAgent(address)":"d9fa7091","revokeTokenAdmin(address)":"fa0f73ba","revokeUpgradeGovernor(address)":"ed9ef16a","setL2TokenBridge(uint256)":"7fc2ab3e","setMaxTotalBalance(address,uint256)":"d2b51eea","withdraw(address,uint256)":"f3fef3a3","withdraw(address,uint256,address)":"69328dec"},"id":36}