{"abi":[{"type":"function","name":"blockToken","inputs":[{"name":"token","type":"address","internalType":"address"}],"outputs":[],"stateMutability":"nonpayable"},{"type":"function","name":"enlistToken","inputs":[{"name":"token","type":"address","internalType":"address"},{"name":"bridge","type":"address","internalType":"address"}],"outputs":[],"stateMutability":"nonpayable"},{"type":"function","name":"getBridge","inputs":[{"name":"token","type":"address","internalType":"address"}],"outputs":[{"name":"","type":"address","internalType":"address"}],"stateMutability":"view"},{"type":"function","name":"getWithdrawalBridges","inputs":[{"name":"token","type":"address","internalType":"address"}],"outputs":[{"name":"bridges","type":"address[]","internalType":"address[]"}],"stateMutability":"view"},{"type":"function","name":"identify","inputs":[],"outputs":[{"name":"","type":"string","internalType":"string"}],"stateMutability":"pure"},{"type":"function","name":"initialize","inputs":[{"name":"data","type":"bytes","internalType":"bytes"}],"outputs":[],"stateMutability":"nonpayable"},{"type":"function","name":"isAppGovernor","inputs":[{"name":"account","type":"address","internalType":"address"}],"outputs":[{"name":"","type":"bool","internalType":"bool"}],"stateMutability":"view"},{"type":"function","name":"isAppRoleAdmin","inputs":[{"name":"account","type":"address","internalType":"address"}],"outputs":[{"name":"","type":"bool","internalType":"bool"}],"stateMutability":"view"},{"type":"function","name":"isFrozen","inputs":[],"outputs":[{"name":"","type":"bool","internalType":"bool"}],"stateMutability":"view"},{"type":"function","name":"isGovernanceAdmin","inputs":[{"name":"account","type":"address","internalType":"address"}],"outputs":[{"name":"","type":"bool","internalType":"bool"}],"stateMutability":"view"},{"type":"function","name":"isOperator","inputs":[{"name":"account","type":"address","internalType":"address"}],"outputs":[{"name":"","type":"bool","internalType":"bool"}],"stateMutability":"view"},{"type":"function","name":"isSecurityAdmin","inputs":[{"name":"account","type":"address","internalType":"address"}],"outputs":[{"name":"","type":"bool","internalType":"bool"}],"stateMutability":"view"},{"type":"function","name":"isSecurityAgent","inputs":[{"name":"account","type":"address","internalType":"address"}],"outputs":[{"name":"","type":"bool","internalType":"bool"}],"stateMutability":"view"},{"type":"function","name":"isTokenAdmin","inputs":[{"name":"account","type":"address","internalType":"address"}],"outputs":[{"name":"","type":"bool","internalType":"bool"}],"stateMutability":"view"},{"type":"function","name":"isUpgradeGovernor","inputs":[{"name":"account","type":"address","internalType":"address"}],"outputs":[{"name":"","type":"bool","internalType":"bool"}],"stateMutability":"view"},{"type":"function","name":"registerAppGovernor","inputs":[{"name":"account","type":"address","internalType":"address"}],"outputs":[],"stateMutability":"nonpayable"},{"type":"function","name":"registerAppRoleAdmin","inputs":[{"name":"account","type":"address","internalType":"address"}],"outputs":[],"stateMutability":"nonpayable"},{"type":"function","name":"registerGovernanceAdmin","inputs":[{"name":"account","type":"address","internalType":"address"}],"outputs":[],"stateMutability":"nonpayable"},{"type":"function","name":"registerOperator","inputs":[{"name":"account","type":"address","internalType":"address"}],"outputs":[],"stateMutability":"nonpayable"},{"type":"function","name":"registerSecurityAdmin","inputs":[{"name":"account","type":"address","internalType":"address"}],"outputs":[],"stateMutability":"nonpayable"},{"type":"function","name":"registerSecurityAgent","inputs":[{"name":"account","type":"address","internalType":"address"}],"outputs":[],"stateMutability":"nonpayable"},{"type":"function","name":"registerTokenAdmin","inputs":[{"name":"account","type":"address","internalType":"address"}],"outputs":[],"stateMutability":"nonpayable"},{"type":"function","name":"registerUpgradeGovernor","inputs":[{"name":"account","type":"address","internalType":"address"}],"outputs":[],"stateMutability":"nonpayable"},{"type":"function","name":"renounceRole","inputs":[{"name":"role","type":"bytes32","internalType":"bytes32"},{"name":"account","type":"address","internalType":"address"}],"outputs":[],"stateMutability":"nonpayable"},{"type":"function","name":"revokeAppGovernor","inputs":[{"name":"account","type":"address","internalType":"address"}],"outputs":[],"stateMutability":"nonpayable"},{"type":"function","name":"revokeAppRoleAdmin","inputs":[{"name":"account","type":"address","internalType":"address"}],"outputs":[],"stateMutability":"nonpayable"},{"type":"function","name":"revokeGovernanceAdmin","inputs":[{"name":"account","type":"address","internalType":"address"}],"outputs":[],"stateMutability":"nonpayable"},{"type":"function","name":"revokeOperator","inputs":[{"name":"account","type":"address","internalType":"address"}],"outputs":[],"stateMutability":"nonpayable"},{"type":"function","name":"revokeSecurityAdmin","inputs":[{"name":"account","type":"address","internalType":"address"}],"outputs":[],"stateMutability":"nonpayable"},{"type":"function","name":"revokeSecurityAgent","inputs":[{"name":"account","type":"address","internalType":"address"}],"outputs":[],"stateMutability":"nonpayable"},{"type":"function","name":"revokeTokenAdmin","inputs":[{"name":"account","type":"address","internalType":"address"}],"outputs":[],"stateMutability":"nonpayable"},{"type":"function","name":"revokeUpgradeGovernor","inputs":[{"name":"account","type":"address","internalType":"address"}],"outputs":[],"stateMutability":"nonpayable"},{"type":"function","name":"selfRemove","inputs":[{"name":"token","type":"address","internalType":"address"}],"outputs":[],"stateMutability":"nonpayable"},{"type":"event","name":"RoleAdminChanged","inputs":[{"name":"role","type":"bytes32","indexed":true,"internalType":"bytes32"},{"name":"previousAdminRole","type":"bytes32","indexed":true,"internalType":"bytes32"},{"name":"newAdminRole","type":"bytes32","indexed":true,"internalType":"bytes32"}],"anonymous":false},{"type":"event","name":"RoleGranted","inputs":[{"name":"role","type":"bytes32","indexed":true,"internalType":"bytes32"},{"name":"account","type":"address","indexed":true,"internalType":"address"},{"name":"sender","type":"address","indexed":true,"internalType":"address"}],"anonymous":false},{"type":"event","name":"RoleRevoked","inputs":[{"name":"role","type":"bytes32","indexed":true,"internalType":"bytes32"},{"name":"account","type":"address","indexed":true,"internalType":"address"},{"name":"sender","type":"address","indexed":true,"internalType":"address"}],"anonymous":false},{"type":"event","name":"TokenEnlisted","inputs":[{"name":"token","type":"address","indexed":true,"internalType":"address"},{"name":"bridge","type":"address","indexed":true,"internalType":"address"}],"anonymous":false},{"type":"event","name":"TokenSelfRemoved","inputs":[{"name":"token","type":"address","indexed":true,"internalType":"address"},{"name":"bridge","type":"address","indexed":true,"internalType":"address"}],"anonymous":false},{"type":"event","name":"TokenStatusBlocked","inputs":[{"name":"token","type":"address","indexed":true,"internalType":"address"}],"anonymous":false}],"bytecode":{"object":"0x60c06040523480156200001157600080fd5b5030608052600160a0819052620000276200002e565b50620004f7565b336200003b81806200003e565b50565b620000486200019f565b15620000e1576001600160a01b03821660009081527fa5fdb349cc4ffac7e8ce7d3b075149d1bc847367d814e69a9beca89ef02db8b0602052604090205460ff16620000db5760405162461bcd60e51b815260206004820152601960248201527f524f4c45535f414c52454144595f494e495449414c495a45440000000000000060448201526064015b60405180910390fd5b620000ec565b620000ec82620001f3565b620000f66200033e565b1562000194576001600160a01b03811660009081527f2c11a1f9c63817dbb9f0faa966615764d2db5d6e008269e948a99e0b52181c23602052604090205460ff16620001905760405162461bcd60e51b815260206004820152602260248201527f53454355524954595f524f4c45535f414c52454144595f494e495449414c495a604482015261115160f21b6064820152608401620000d2565b5050565b620001908162000390565b600080516020620024458339815191526000908152600080516020620024858339815191526020527fa5fdb349cc4ffac7e8ce7d3b075149d1bc847367d814e69a9beca89ef02db8b15481905b1415905090565b6200020e6000805160206200244583398151915282620003fc565b620002487ed2ead78c620e94b02d0a996e99298c59ddccfa1d8a0149080ac3a20de06068600080516020620024a58339815191526200049e565b62000272600080516020620024a5833981519152600080516020620024458339815191526200049e565b6200028d60008051602062002445833981519152806200049e565b620002c87f023edb77f7c8cc9e38e8afe78954f703aeeda7fffe014eeb6e56ea84e62f6da7600080516020620024a58339815191526200049e565b620003037f0128d63adbf6b09002c26caf55c47e2f26635807e3ef1b027218aa74c8d61a3e600080516020620024a58339815191526200049e565b6200003b7f0251e864ca2a080f55bce5da2452e8cfcafdbc951a3e7fff5023d558452ec228600080516020620024458339815191526200049e565b600080516020620024658339815191526000908152600080516020620024858339815191526020527f2c11a1f9c63817dbb9f0faa966615764d2db5d6e008269e948a99e0b52181c24548190620001ec565b620003ab60008051602062002465833981519152806200049e565b620003e67f037693ba312785932d430dccf0f56ffedd0aa7c0f8b6da2cc4530c2717689b96600080516020620024658339815191526200049e565b6200003b60008051602062002465833981519152825b600082815260008051602062002485833981519152602090815260408083206001600160a01b038516845290915290205460ff166200019057600082815260008051602062002485833981519152602090815260408083206001600160a01b0385168085529252808320805460ff1916600117905551339285917f2f8788117e7eff1d82e926ec794901d17c78024a50270940304540a733656f0d9190a45050565b6000828152600080516020620024858339815191526020526040808220600101805490849055905190918391839186917fbd79b86ffe0ab8e8776151514217cd7cacd52c909f66475c3af44e129f0b00ff9190a4505050565b60805160a051611f286200051d6000396000610554015260006105e70152611f286000f3fe608060405234801561001057600080fd5b50600436106101fb5760003560e01c8063757bd9ab1161011a578063d08fb6cb116100ad578063ee0e68071161007c578063ee0e680714610428578063eeb728661461043b578063f44c7c8f14610450578063fa0f73ba1461047b578063fad8b32a1461048e57600080fd5b8063d08fb6cb146103dc578063d9fa7091146103ef578063deec9c5a14610402578063ed9ef16a1461041557600080fd5b8063a2bdde3d116100e9578063a2bdde3d14610390578063a3ecff8f146103a3578063cb1cccce146103b6578063cdd1f70d146103c957600080fd5b8063757bd9ab146103445780638101b64c146103575780638e5224ff1461036a5780639463629a1461037d57600080fd5b8063557133f6116101925780636c04d9d5116101615780636c04d9d5146102f85780636d70f7ae1461030b5780636fc97cbf1461031e578063726176e81461033157600080fd5b8063557133f61461029f5780635a5d1bb9146102bf57806362a14376146102d257806365650288146102e557600080fd5b806333eeb147116101ce57806333eeb1471461024e57806336568abe146102665780633682a45014610279578063439fab911461028c57600080fd5b80630b3a2d21146102005780630e770f231461021557806317896383146102285780632f9519851461023b575b600080fd5b61021361020e3660046119dc565b6104a1565b005b6102136102233660046119dc565b6104bc565b6102136102363660046119dc565b6104d4565b6102136102493660046119dc565b6104ec565b60005b60405190151581526020015b60405180910390f35b6102136102743660046119f9565b61053a565b6102136102873660046119dc565b6105cc565b61021361029a366004611a29565b6105e4565b6102b26102ad3660046119dc565b610795565b60405161025d9190611a9b565b6102516102cd3660046119dc565b610814565b6102136102e03660046119dc565b610834565b6102136102f33660046119dc565b61084c565b6102516103063660046119dc565b6109ef565b6102516103193660046119dc565b610a09565b61021361032c3660046119dc565b610a23565b61021361033f3660046119dc565b610a3b565b6102516103523660046119dc565b610ac7565b6102136103653660046119dc565b610ae1565b6102516103783660046119dc565b610b22565b61021361038b3660046119dc565b610b3c565b61025161039e3660046119dc565b610b54565b6102136103b1366004611ae8565b610b6e565b6102516103c43660046119dc565b610d8a565b6102136103d73660046119dc565b610da4565b6102516103ea3660046119dc565b610dbc565b6102136103fd3660046119dc565b610dd6565b6102136104103660046119dc565b610dee565b6102136104233660046119dc565b610e06565b6102136104363660046119dc565b610e1e565b610443610e5f565b60405161025d9190611b3a565b61046361045e3660046119dc565b610e7f565b6040516001600160a01b03909116815260200161025d565b6102136104893660046119dc565b610eac565b61021361049c3660046119dc565b610ec4565b6104b9600080516020611ed383398151915282610edc565b50565b6104b9600080516020611e0483398151915282610edc565b6104b9600080516020611e2483398151915282610edc565b80336001600160a01b0382160361051e5760405162461bcd60e51b815260040161051590611b6d565b60405180910390fd5b610536600080516020611e2483398151915283610ef8565b5050565b600080516020611d2d8339815191528214801561057557507f0000000000000000000000000000000000000000000000000000000000000000155b156105c25760405162461bcd60e51b815260206004820181905260248201527f43414e4e4f545f52454e4f554e43455f474f5645524e414e43455f41444d494e6044820152606401610515565b6105368282610f14565b6104b9600080516020611eb383398151915282610edc565b307f00000000000000000000000000000000000000000000000000000000000000006001600160a01b0316036106555760405162461bcd60e51b81526020600482015260166024820152751112549150d517d0d0531317d11254d0531313d5d15160521b6044820152606401610515565b6000610662816020611bb3565b90506000610671826020611bca565b9050808310156106b95760405162461bcd60e51b81526020600482015260136024820152721253925517d110551057d513d3d7d4d3505313606a1b6044820152606401610515565b60006106c782848688611bdd565b8101906106d491906119dc565b90503660006106e58582888a611bdd565b915091503660006106f88887818c611bdd565b90925090506001600160a01b0385161561072257610717858383610f8e565b505050505050505050565b61072a6110d0565b156107795780156107745760405162461bcd60e51b8152602060048201526014602482015273554e45585045435445445f494e49545f4441544160601b6044820152606401610515565b610717565b61078382826110eb565b61078d8282611196565b6107176111c8565b606061079f6111d3565b6001600160a01b038316600090815260209182526040908190208054825181850281018501909352808352919290919083018282801561080857602002820191906000526020600020905b81546001600160a01b031681526001909101906020018083116107ea575b50505050509050919050565b600061082e600080516020611da4833981519152836111fb565b92915050565b6104b9600080516020611d4d83398151915282610edc565b33610855611233565b6001600160a01b03808416600090815260209290925260409091205416146108cb5760405162461bcd60e51b815260206004820152602360248201527f4252494447455f4d49534d415443485f43414e4e4f545f52454d4f56455f544f60448201526225a2a760e91b6064820152608401610515565b60405163031be19960e21b81526001600160a01b03821660048201523390630c6f866490602401602060405180830381865afa15801561090f573d6000803e3d6000fd5b505050506040513d601f19601f820116820180604052508101906109339190611c07565b156109805760405162461bcd60e51b815260206004820152601760248201527f544f4b454e5f49535f5354494c4c5f53455256494345440000000000000000006044820152606401610515565b60405133906001600160a01b038316907f0d8ce137b708fa1f68a42ceb628ec64227e0381c4ecfd1c920804fa9e718a30890600090a360006109c0611233565b6001600160a01b0392831660009081526020919091526040902080546001600160a01b03191691909216179055565b600061082e600080516020611dc4833981519152836111fb565b600061082e600080516020611eb3833981519152836111fb565b6104b9600080516020611dc483398151915282610edc565b33610a44611256565b6001600160a01b031614610a895760405162461bcd60e51b815260206004820152600c60248201526b27a7262cafa6a0a720a3a2a960a11b6044820152606401610515565b6040516001600160a01b038216907f8f41c4654c849cdf55aec592405d4ed6fcad4c16895633c4e8ff23bb4ebdd2a290600090a260016109c0611233565b600061082e600080516020611e04833981519152836111fb565b80336001600160a01b03821603610b0a5760405162461bcd60e51b815260040161051590611b6d565b610536600080516020611d4d83398151915283610ef8565b600061082e600080516020611e24833981519152836111fb565b6104b9600080516020611d2d83398151915282610edc565b600061082e600080516020611ed3833981519152836111fb565b33610b77611256565b6001600160a01b031614610bbc5760405162461bcd60e51b815260206004820152600c60248201526b27a7262cafa6a0a720a3a2a960a11b6044820152606401610515565b6000610bc6611233565b6001600160a01b038085166000908152602092909252604090912054169050801580610bfb57506001600160a01b0381166001145b610c405760405162461bcd60e51b81526020600482015260166024820152751513d2d15397d053149150511657d1539493d313115160521b6044820152606401610515565b816001600160a01b0316836001600160a01b03167f169097aa60be141cd725083125ddf0d1330273f15ba137cf74914d24b4c6d36260405160405180910390a381610c89611233565b6001600160a01b038581166000908152602092909252604090912080546001600160a01b03191692909116919091179055610d39610cc56111d3565b6001600160a01b0385166000908152602091825260409081902080548251818502810185019093528083529192909190830182828015610d2e57602002820191906000526020600020905b81546001600160a01b03168152600190910190602001808311610d10575b505050505083611279565b610d8557610d456111d3565b6001600160a01b038481166000908152602092835260408120805460018101825590825292902090910180546001600160a01b0319169184169190911790555b505050565b600061082e600080516020611d2d833981519152836111fb565b6104b9600080516020611da483398151915282610edc565b600061082e600080516020611d4d833981519152836111fb565b6104b9600080516020611e0483398151915282610ef8565b6104b9600080516020611da483398151915282610ef8565b6104b9600080516020611dc483398151915282610ef8565b80336001600160a01b03821603610e475760405162461bcd60e51b815260040161051590611b6d565b610536600080516020611d2d83398151915283610ef8565b6060604051806060016040528060218152602001611e4460219139905090565b6000610e89611233565b6001600160a01b0392831660009081526020919091526040902054909116919050565b6104b9600080516020611ed383398151915282610ef8565b6104b9600080516020611eb383398151915282610ef8565b610ee5826112d4565b610eee816112f6565b610d858383611300565b610f01826112d4565b610f0a816112f6565b610d858383611376565b6001600160a01b0381163314610f845760405162461bcd60e51b815260206004820152602f60248201527f416363657373436f6e74726f6c3a2063616e206f6e6c792072656e6f756e636560448201526e103937b632b9903337b91039b2b63360891b6064820152608401610515565b6105368282611376565b6001600160a01b0383163b610fda5760405162461bcd60e51b8152602060048201526012602482015271115250d7d393d517d057d0d3d395149050d560721b6044820152606401610515565b600080846001600160a01b031663439fab9160e01b8585604051602401611002929190611c29565b60408051601f198184030181529181526020820180516001600160e01b03166001600160e01b03199094169390931790925290516110409190611c58565b600060405180830381855af49150503d806000811461107b576040519150601f19603f3d011682016040523d82523d6000602084013e611080565b606091505b50915091508181906110a55760405162461bcd60e51b81526004016105159190611b3a565b5080518190156110c85760405162461bcd60e51b81526004016105159190611b3a565b505050505050565b6000806110db611256565b6001600160a01b03161415905090565b6020811461112f5760405162461bcd60e51b8152602060048201526011602482015270494c4c4547414c5f444154415f53495a4560781b6044820152606401610515565b600061113d828401846119dc565b90506001600160a01b0381163b610d855760405162461bcd60e51b815260206004820181905260248201527f494e56414c49445f4d414e414745525f434f4e54524143545f414444524553536044820152606401610515565b60006111a4828401846119dc565b9050610d85604051806060016040528060238152602001611e9060239139826113ea565b336104b98180611443565b60006111f6604051806060016040528060378152602001611d6d60379139611547565b905090565b6000918252600080516020611de4833981519152602090815260408084206001600160a01b0393909316845291905290205460ff1690565b60006111f66040518060600160405280602b8152602001611e65602b9139611547565b60006111f6604051806060016040528060238152602001611e906023913961157a565b6000805b83518110156112ca57826001600160a01b03168482815181106112a2576112a2611c74565b60200260200101516001600160a01b0316036112c257600191505061082e565b60010161127d565b5060009392505050565b6000908152600080516020611de4833981519152602052604090206001015490565b6104b981336115ae565b61130a82826111fb565b610536576000828152600080516020611de4833981519152602090815260408083206001600160a01b0385168085529252808320805460ff1916600117905551339285917f2f8788117e7eff1d82e926ec794901d17c78024a50270940304540a733656f0d9190a45050565b61138082826111fb565b15610536576000828152600080516020611de4833981519152602090815260408083206001600160a01b0385168085529252808320805460ff1916905551339285917ff6391f5c32d9c69d2a47ea670b442974b53935d1edc7fd64eb21e047a839171b9190a45050565b60006113f58361157a565b6001600160a01b0316146114395760405162461bcd60e51b815260206004820152600b60248201526a1053149150511657d4d15560aa1b6044820152606401610515565b6105368282611612565b61144b611645565b156114b957611468600080516020611d2d833981519152836111fb565b6114b45760405162461bcd60e51b815260206004820152601960248201527f524f4c45535f414c52454144595f494e495449414c495a4544000000000000006044820152606401610515565b6114c2565b6114c282611666565b6114ca611754565b1561153e576114e7600080516020611d4d833981519152826111fb565b6105365760405162461bcd60e51b815260206004820152602260248201527f53454355524954595f524f4c45535f414c52454144595f494e495449414c495a604482015261115160f21b6064820152608401610515565b6105368161176e565b6000808260405160200161155b9190611c58565b60408051601f1981840301815291905280516020909101209392505050565b6000808260405160200161158e9190611c58565b60408051601f198184030181529190528051602090910120549392505050565b6115b882826111fb565b610536576115d0816001600160a01b031660146117c4565b6115db8360206117c4565b6040516020016115ec929190611c8a565b60408051601f198184030181529082905262461bcd60e51b825261051591600401611b3a565b6000826040516020016116259190611c58565b604051602081830303815290604052805190602001209050818155505050565b60008061165f600080516020611d2d8339815191526112d4565b1415905090565b61167e600080516020611d2d83398151915282611300565b6116a4600080516020611da4833981519152600080516020611e24833981519152611967565b6116ca600080516020611e24833981519152600080516020611d2d833981519152611967565b6116e2600080516020611d2d83398151915280611967565b611708600080516020611eb3833981519152600080516020611e24833981519152611967565b61172e600080516020611ed3833981519152600080516020611e24833981519152611967565b6104b9600080516020611dc4833981519152600080516020611d2d833981519152611967565b60008061165f600080516020611d4d8339815191526112d4565b611786600080516020611d4d83398151915280611967565b6117ac600080516020611e04833981519152600080516020611d4d833981519152611967565b6104b9600080516020611d4d83398151915282611300565b606060006117d3836002611bb3565b6117de906002611bca565b67ffffffffffffffff8111156117f6576117f6611cff565b6040519080825280601f01601f191660200182016040528015611820576020820181803683370190505b509050600360fc1b8160008151811061183b5761183b611c74565b60200101906001600160f81b031916908160001a905350600f60fb1b8160018151811061186a5761186a611c74565b60200101906001600160f81b031916908160001a905350600061188e846002611bb3565b611899906001611bca565b90505b6001811115611911576f181899199a1a9b1b9c1cb0b131b232b360811b85600f16601081106118cd576118cd611c74565b1a60f81b8282815181106118e3576118e3611c74565b60200101906001600160f81b031916908160001a90535060049490941c9361190a81611d15565b905061189c565b5083156119605760405162461bcd60e51b815260206004820181905260248201527f537472696e67733a20686578206c656e67746820696e73756666696369656e746044820152606401610515565b9392505050565b6000611972836112d4565b6000848152600080516020611de48339815191526020526040808220600101859055519192508391839186917fbd79b86ffe0ab8e8776151514217cd7cacd52c909f66475c3af44e129f0b00ff9190a4505050565b6001600160a01b03811681146104b957600080fd5b6000602082840312156119ee57600080fd5b8135611960816119c7565b60008060408385031215611a0c57600080fd5b823591506020830135611a1e816119c7565b809150509250929050565b60008060208385031215611a3c57600080fd5b823567ffffffffffffffff80821115611a5457600080fd5b818501915085601f830112611a6857600080fd5b813581811115611a7757600080fd5b866020828501011115611a8957600080fd5b60209290920196919550909350505050565b6020808252825182820181905260009190848201906040850190845b81811015611adc5783516001600160a01b031683529284019291840191600101611ab7565b50909695505050505050565b60008060408385031215611afb57600080fd5b8235611b06816119c7565b91506020830135611a1e816119c7565b60005b83811015611b31578181015183820152602001611b19565b50506000910152565b6020815260008251806020840152611b59816040850160208701611b16565b601f01601f19169190910160400192915050565b60208082526016908201527521a0a72727aa2fa822a92327a926afa7a72fa9a2a62360511b604082015260600190565b634e487b7160e01b600052601160045260246000fd5b808202811582820484141761082e5761082e611b9d565b8082018082111561082e5761082e611b9d565b60008085851115611bed57600080fd5b83861115611bfa57600080fd5b5050820193919092039150565b600060208284031215611c1957600080fd5b8151801515811461196057600080fd5b60208152816020820152818360408301376000818301604090810191909152601f909201601f19160101919050565b60008251611c6a818460208701611b16565b9190910192915050565b634e487b7160e01b600052603260045260246000fd5b7f416363657373436f6e74726f6c3a206163636f756e7420000000000000000000815260008351611cc2816017850160208801611b16565b7001034b99036b4b9b9b4b733903937b6329607d1b6017918401918201528351611cf3816028840160208801611b16565b01602801949350505050565b634e487b7160e01b600052604160045260246000fd5b600081611d2457611d24611b9d565b50600019019056fe03711c9d994faf6055172091cb841fd4831aa743e6f3315163b06a122c841846026bd110619d11cfdfc28e281df893bc24828e89177318e9dbd860cdaedeb6b3535441524b474154455f52454749535452595f544f4b454e5f544f5f5749544844524157414c5f425249444745535f534c4f545f54414700d2ead78c620e94b02d0a996e99298c59ddccfa1d8a0149080ac3a20de060680251e864ca2a080f55bce5da2452e8cfcafdbc951a3e7fff5023d558452ec22853e43b954ba190a7e49386f1f78b01dcd9f628db23f432fa029a7dfd6d98e8fb037693ba312785932d430dccf0f56ffedd0aa7c0f8b6da2cc4530c2717689b9603e615638e0b79444a70f8c695bf8f2a47033bf1cf95691ec3130f64939cee99537461726b576172655f537461726b6761746552656769737472795f322e305f31535441524b474154455f52454749535452595f544f4b454e5f544f5f4252494447455f534c4f545f544147535441524b474154455f52454749535452595f4d414e414745525f534c4f545f544147023edb77f7c8cc9e38e8afe78954f703aeeda7fffe014eeb6e56ea84e62f6da70128d63adbf6b09002c26caf55c47e2f26635807e3ef1b027218aa74c8d61a3ea26469706673582212201c915e23942801f08009e20abe4df8c33135e94c07eb138deeb652be137d340b64736f6c6343000817003303711c9d994faf6055172091cb841fd4831aa743e6f3315163b06a122c841846026bd110619d11cfdfc28e281df893bc24828e89177318e9dbd860cdaedeb6b353e43b954ba190a7e49386f1f78b01dcd9f628db23f432fa029a7dfd6d98e8fb03e615638e0b79444a70f8c695bf8f2a47033bf1cf95691ec3130f64939cee99","linkReferences":{}},"methodIdentifiers":{"blockToken(address)":"726176e8","enlistToken(address,address)":"a3ecff8f","getBridge(address)":"f44c7c8f","getWithdrawalBridges(address)":"557133f6","identify()":"eeb72866","initialize(bytes)":"439fab91","isAppGovernor(address)":"5a5d1bb9","isAppRoleAdmin(address)":"8e5224ff","isFrozen()":"33eeb147","isGovernanceAdmin(address)":"cb1cccce","isOperator(address)":"6d70f7ae","isSecurityAdmin(address)":"d08fb6cb","isSecurityAgent(address)":"757bd9ab","isTokenAdmin(address)":"a2bdde3d","isUpgradeGovernor(address)":"6c04d9d5","registerAppGovernor(address)":"cdd1f70d","registerAppRoleAdmin(address)":"17896383","registerGovernanceAdmin(address)":"9463629a","registerOperator(address)":"3682a450","registerSecurityAdmin(address)":"62a14376","registerSecurityAgent(address)":"0e770f23","registerTokenAdmin(address)":"0b3a2d21","registerUpgradeGovernor(address)":"6fc97cbf","renounceRole(bytes32,address)":"36568abe","revokeAppGovernor(address)":"deec9c5a","revokeAppRoleAdmin(address)":"2f951985","revokeGovernanceAdmin(address)":"ee0e6807","revokeOperator(address)":"fad8b32a","revokeSecurityAdmin(address)":"8101b64c","revokeSecurityAgent(address)":"d9fa7091","revokeTokenAdmin(address)":"fa0f73ba","revokeUpgradeGovernor(address)":"ed9ef16a","selfRemove(address)":"65650288"},"id":30}