{"abi":[{"type":"function","name":"addExistingBridge","inputs":[{"name":"token","type":"address","internalType":"address"},{"name":"bridge_","type":"address","internalType":"address"}],"outputs":[],"stateMutability":"nonpayable"},{"type":"function","name":"blockToken","inputs":[{"name":"token","type":"address","internalType":"address"}],"outputs":[],"stateMutability":"nonpayable"},{"type":"function","name":"deactivateToken","inputs":[{"name":"token","type":"address","internalType":"address"}],"outputs":[],"stateMutability":"nonpayable"},{"type":"function","name":"enrollTokenBridge","inputs":[{"name":"token","type":"address","internalType":"address"}],"outputs":[],"stateMutability":"payable"},{"type":"function","name":"getRegistry","inputs":[],"outputs":[{"name":"","type":"address","internalType":"address"}],"stateMutability":"view"},{"type":"function","name":"identify","inputs":[],"outputs":[{"name":"","type":"string","internalType":"string"}],"stateMutability":"pure"},{"type":"function","name":"initialize","inputs":[{"name":"data","type":"bytes","internalType":"bytes"}],"outputs":[],"stateMutability":"nonpayable"},{"type":"function","name":"isAppGovernor","inputs":[{"name":"account","type":"address","internalType":"address"}],"outputs":[{"name":"","type":"bool","internalType":"bool"}],"stateMutability":"view"},{"type":"function","name":"isAppRoleAdmin","inputs":[{"name":"account","type":"address","internalType":"address"}],"outputs":[{"name":"","type":"bool","internalType":"bool"}],"stateMutability":"view"},{"type":"function","name":"isFrozen","inputs":[],"outputs":[{"name":"","type":"bool","internalType":"bool"}],"stateMutability":"view"},{"type":"function","name":"isGovernanceAdmin","inputs":[{"name":"account","type":"address","internalType":"address"}],"outputs":[{"name":"","type":"bool","internalType":"bool"}],"stateMutability":"view"},{"type":"function","name":"isOperator","inputs":[{"name":"account","type":"address","internalType":"address"}],"outputs":[{"name":"","type":"bool","internalType":"bool"}],"stateMutability":"view"},{"type":"function","name":"isSecurityAdmin","inputs":[{"name":"account","type":"address","internalType":"address"}],"outputs":[{"name":"","type":"bool","internalType":"bool"}],"stateMutability":"view"},{"type":"function","name":"isSecurityAgent","inputs":[{"name":"account","type":"address","internalType":"address"}],"outputs":[{"name":"","type":"bool","internalType":"bool"}],"stateMutability":"view"},{"type":"function","name":"isTokenAdmin","inputs":[{"name":"account","type":"address","internalType":"address"}],"outputs":[{"name":"","type":"bool","internalType":"bool"}],"stateMutability":"view"},{"type":"function","name":"isUpgradeGovernor","inputs":[{"name":"account","type":"address","internalType":"address"}],"outputs":[{"name":"","type":"bool","internalType":"bool"}],"stateMutability":"view"},{"type":"function","name":"registerAppGovernor","inputs":[{"name":"account","type":"address","internalType":"address"}],"outputs":[],"stateMutability":"nonpayable"},{"type":"function","name":"registerAppRoleAdmin","inputs":[{"name":"account","type":"address","internalType":"address"}],"outputs":[],"stateMutability":"nonpayable"},{"type":"function","name":"registerGovernanceAdmin","inputs":[{"name":"account","type":"address","internalType":"address"}],"outputs":[],"stateMutability":"nonpayable"},{"type":"function","name":"registerOperator","inputs":[{"name":"account","type":"address","internalType":"address"}],"outputs":[],"stateMutability":"nonpayable"},{"type":"function","name":"registerSecurityAdmin","inputs":[{"name":"account","type":"address","internalType":"address"}],"outputs":[],"stateMutability":"nonpayable"},{"type":"function","name":"registerSecurityAgent","inputs":[{"name":"account","type":"address","internalType":"address"}],"outputs":[],"stateMutability":"nonpayable"},{"type":"function","name":"registerTokenAdmin","inputs":[{"name":"account","type":"address","internalType":"address"}],"outputs":[],"stateMutability":"nonpayable"},{"type":"function","name":"registerUpgradeGovernor","inputs":[{"name":"account","type":"address","internalType":"address"}],"outputs":[],"stateMutability":"nonpayable"},{"type":"function","name":"renounceRole","inputs":[{"name":"role","type":"bytes32","internalType":"bytes32"},{"name":"account","type":"address","internalType":"address"}],"outputs":[],"stateMutability":"nonpayable"},{"type":"function","name":"revokeAppGovernor","inputs":[{"name":"account","type":"address","internalType":"address"}],"outputs":[],"stateMutability":"nonpayable"},{"type":"function","name":"revokeAppRoleAdmin","inputs":[{"name":"account","type":"address","internalType":"address"}],"outputs":[],"stateMutability":"nonpayable"},{"type":"function","name":"revokeGovernanceAdmin","inputs":[{"name":"account","type":"address","internalType":"address"}],"outputs":[],"stateMutability":"nonpayable"},{"type":"function","name":"revokeOperator","inputs":[{"name":"account","type":"address","internalType":"address"}],"outputs":[],"stateMutability":"nonpayable"},{"type":"function","name":"revokeSecurityAdmin","inputs":[{"name":"account","type":"address","internalType":"address"}],"outputs":[],"stateMutability":"nonpayable"},{"type":"function","name":"revokeSecurityAgent","inputs":[{"name":"account","type":"address","internalType":"address"}],"outputs":[],"stateMutability":"nonpayable"},{"type":"function","name":"revokeTokenAdmin","inputs":[{"name":"account","type":"address","internalType":"address"}],"outputs":[],"stateMutability":"nonpayable"},{"type":"function","name":"revokeUpgradeGovernor","inputs":[{"name":"account","type":"address","internalType":"address"}],"outputs":[],"stateMutability":"nonpayable"},{"type":"event","name":"ExistingBridgeAdded","inputs":[{"name":"token","type":"address","indexed":true,"internalType":"address"},{"name":"bridge","type":"address","indexed":true,"internalType":"address"}],"anonymous":false},{"type":"event","name":"RoleAdminChanged","inputs":[{"name":"role","type":"bytes32","indexed":true,"internalType":"bytes32"},{"name":"previousAdminRole","type":"bytes32","indexed":true,"internalType":"bytes32"},{"name":"newAdminRole","type":"bytes32","indexed":true,"internalType":"bytes32"}],"anonymous":false},{"type":"event","name":"RoleGranted","inputs":[{"name":"role","type":"bytes32","indexed":true,"internalType":"bytes32"},{"name":"account","type":"address","indexed":true,"internalType":"address"},{"name":"sender","type":"address","indexed":true,"internalType":"address"}],"anonymous":false},{"type":"event","name":"RoleRevoked","inputs":[{"name":"role","type":"bytes32","indexed":true,"internalType":"bytes32"},{"name":"account","type":"address","indexed":true,"internalType":"address"},{"name":"sender","type":"address","indexed":true,"internalType":"address"}],"anonymous":false},{"type":"event","name":"TokenBlocked","inputs":[{"name":"token","type":"address","indexed":true,"internalType":"address"},{"name":"sender","type":"address","indexed":true,"internalType":"address"}],"anonymous":false},{"type":"event","name":"TokenDeactivated","inputs":[{"name":"token","type":"address","indexed":true,"internalType":"address"},{"name":"sender","type":"address","indexed":true,"internalType":"address"}],"anonymous":false},{"type":"event","name":"TokenEnrolled","inputs":[{"name":"token","type":"address","indexed":true,"internalType":"address"},{"name":"sender","type":"address","indexed":true,"internalType":"address"}],"anonymous":false}],"bytecode":{"object":"0x60c06040523480156200001157600080fd5b5030608052600160a0819052620000276200002e565b50620004f7565b336200003b81806200003e565b50565b620000486200019f565b15620000e1576001600160a01b03821660009081527fa5fdb349cc4ffac7e8ce7d3b075149d1bc847367d814e69a9beca89ef02db8b0602052604090205460ff16620000db5760405162461bcd60e51b815260206004820152601960248201527f524f4c45535f414c52454144595f494e495449414c495a45440000000000000060448201526064015b60405180910390fd5b620000ec565b620000ec82620001f3565b620000f66200033e565b1562000194576001600160a01b03811660009081527f2c11a1f9c63817dbb9f0faa966615764d2db5d6e008269e948a99e0b52181c23602052604090205460ff16620001905760405162461bcd60e51b815260206004820152602260248201527f53454355524954595f524f4c45535f414c52454144595f494e495449414c495a604482015261115160f21b6064820152608401620000d2565b5050565b620001908162000390565b600080516020620029628339815191526000908152600080516020620029a28339815191526020527fa5fdb349cc4ffac7e8ce7d3b075149d1bc847367d814e69a9beca89ef02db8b15481905b1415905090565b6200020e6000805160206200296283398151915282620003fc565b620002487ed2ead78c620e94b02d0a996e99298c59ddccfa1d8a0149080ac3a20de06068600080516020620029c28339815191526200049e565b62000272600080516020620029c2833981519152600080516020620029628339815191526200049e565b6200028d60008051602062002962833981519152806200049e565b620002c87f023edb77f7c8cc9e38e8afe78954f703aeeda7fffe014eeb6e56ea84e62f6da7600080516020620029c28339815191526200049e565b620003037f0128d63adbf6b09002c26caf55c47e2f26635807e3ef1b027218aa74c8d61a3e600080516020620029c28339815191526200049e565b6200003b7f0251e864ca2a080f55bce5da2452e8cfcafdbc951a3e7fff5023d558452ec228600080516020620029628339815191526200049e565b600080516020620029828339815191526000908152600080516020620029a28339815191526020527f2c11a1f9c63817dbb9f0faa966615764d2db5d6e008269e948a99e0b52181c24548190620001ec565b620003ab60008051602062002982833981519152806200049e565b620003e67f037693ba312785932d430dccf0f56ffedd0aa7c0f8b6da2cc4530c2717689b96600080516020620029828339815191526200049e565b6200003b60008051602062002982833981519152825b6000828152600080516020620029a2833981519152602090815260408083206001600160a01b038516845290915290205460ff1662000190576000828152600080516020620029a2833981519152602090815260408083206001600160a01b0385168085529252808320805460ff1916600117905551339285917f2f8788117e7eff1d82e926ec794901d17c78024a50270940304540a733656f0d9190a45050565b6000828152600080516020620029a28339815191526020526040808220600101805490849055905190918391839186917fbd79b86ffe0ab8e8776151514217cd7cacd52c909f66475c3af44e129f0b00ff9190a4505050565b60805160a0516124456200051d60003960006106f90152600061078c01526124456000f3fe6080604052600436106101ee5760003560e01c8063726176e81161010d578063cdd1f70d116100a0578063ed9ef16a1161006f578063ed9ef16a1461057a578063ee0e68071461059a578063eeb72866146105ba578063fa0f73ba14610606578063fad8b32a1461062657600080fd5b8063cdd1f70d146104fa578063d08fb6cb1461051a578063d9fa70911461053a578063deec9c5a1461055a57600080fd5b80639463629a116100dc5780639463629a14610487578063a2bdde3d146104a7578063c1d220fe146104c7578063cb1cccce146104da57600080fd5b8063726176e814610407578063757bd9ab146104275780638101b64c146104475780638e5224ff1461046757600080fd5b80634ee165d61161018557806368173bcf1161015457806368173bcf146103875780636c04d9d5146103a75780636d70f7ae146103c75780636fc97cbf146103e757600080fd5b80634ee165d6146102fa5780635a5d1bb91461031a5780635ab1bd531461033a57806362a143761461036757600080fd5b806333eeb147116101c157806333eeb1471461027557806336568abe1461029a5780633682a450146102ba578063439fab91146102da57600080fd5b80630b3a2d21146101f35780630e770f231461021557806317896383146102355780632f95198514610255575b600080fd5b3480156101ff57600080fd5b5061021361020e366004611eae565b610646565b005b34801561022157600080fd5b50610213610230366004611eae565b610661565b34801561024157600080fd5b50610213610250366004611eae565b610679565b34801561026157600080fd5b50610213610270366004611eae565b610691565b34801561028157600080fd5b5060005b60405190151581526020015b60405180910390f35b3480156102a657600080fd5b506102136102b5366004611ecb565b6106df565b3480156102c657600080fd5b506102136102d5366004611eae565b610771565b3480156102e657600080fd5b506102136102f5366004611efb565b610789565b34801561030657600080fd5b50610213610315366004611f6d565b61093a565b34801561032657600080fd5b50610285610335366004611eae565b610a81565b34801561034657600080fd5b5061034f610aa1565b6040516001600160a01b039091168152602001610291565b34801561037357600080fd5b50610213610382366004611eae565b610ab0565b34801561039357600080fd5b506102136103a2366004611eae565b610ac8565b3480156103b357600080fd5b506102856103c2366004611eae565b610de0565b3480156103d357600080fd5b506102856103e2366004611eae565b610dfa565b3480156103f357600080fd5b50610213610402366004611eae565b610e14565b34801561041357600080fd5b50610213610422366004611eae565b610e2c565b34801561043357600080fd5b50610285610442366004611eae565b61104c565b34801561045357600080fd5b50610213610462366004611eae565b611066565b34801561047357600080fd5b50610285610482366004611eae565b6110a7565b34801561049357600080fd5b506102136104a2366004611eae565b6110c1565b3480156104b357600080fd5b506102856104c2366004611eae565b6110d9565b6102136104d5366004611eae565b6110f3565b3480156104e657600080fd5b506102856104f5366004611eae565b6112b6565b34801561050657600080fd5b50610213610515366004611eae565b6112d0565b34801561052657600080fd5b50610285610535366004611eae565b6112e8565b34801561054657600080fd5b50610213610555366004611eae565b611302565b34801561056657600080fd5b50610213610575366004611eae565b61131a565b34801561058657600080fd5b50610213610595366004611eae565b611332565b3480156105a657600080fd5b506102136105b5366004611eae565b61134a565b3480156105c657600080fd5b5060408051808201825260208082527f537461726b576172655f537461726b676174654d616e616765725f322e305f319082015290516102919190611fbf565b34801561061257600080fd5b50610213610621366004611eae565b61138b565b34801561063257600080fd5b50610213610641366004611eae565b6113a3565b61065e6000805160206123f0833981519152826113bb565b50565b61065e60008051602061236f833981519152826113bb565b61065e60008051602061238f833981519152826113bb565b80336001600160a01b038216036106c35760405162461bcd60e51b81526004016106ba90611ff2565b60405180910390fd5b6106db60008051602061238f833981519152836113d7565b5050565b6000805160206122ac8339815191528214801561071a57507f0000000000000000000000000000000000000000000000000000000000000000155b156107675760405162461bcd60e51b815260206004820181905260248201527f43414e4e4f545f52454e4f554e43455f474f5645524e414e43455f41444d494e60448201526064016106ba565b6106db82826113f3565b61065e6000805160206123d0833981519152826113bb565b307f00000000000000000000000000000000000000000000000000000000000000006001600160a01b0316036107fa5760405162461bcd60e51b81526020600482015260166024820152751112549150d517d0d0531317d11254d0531313d5d15160521b60448201526064016106ba565b6000610807816020612038565b9050600061081682602061204f565b90508083101561085e5760405162461bcd60e51b81526020600482015260136024820152721253925517d110551057d513d3d7d4d3505313606a1b60448201526064016106ba565b600061086c82848688612062565b8101906108799190611eae565b905036600061088a8582888a612062565b9150915036600061089d8887818c612062565b90925090506001600160a01b038516156108c7576108bc85838361146d565b505050505050505050565b6108cf6115af565b1561091e5780156109195760405162461bcd60e51b8152602060048201526014602482015273554e45585045435445445f494e49545f4441544160601b60448201526064016106ba565b6108bc565b61092882826115ca565b61093282826116e7565b6108bc61170c565b610943336110d9565b61095f5760405162461bcd60e51b81526004016106ba9061208c565b806001600160a01b0316610971611717565b6001600160a01b0316036109d85760405162461bcd60e51b815260206004820152602860248201527f43414e4e4f545f4144445f4d41494e5f4d554c54495f4252494447455f41535f6044820152674558495354494e4760c01b60648201526084016106ba565b6109e061173a565b60405163a3ecff8f60e01b81526001600160a01b0384811660048301528381166024830152919091169063a3ecff8f90604401600060405180830381600087803b158015610a2d57600080fd5b505af1158015610a41573d6000803e3d6000fd5b50506040516001600160a01b038085169350851691507ff4b704dd6f08403eab5741ede579b6c3f7f8984842d9ca8ddb2b58efc9a8cef090600090a35050565b6000610a9b6000805160206122ec8339815191528361175d565b92915050565b6000610aab61173a565b905090565b61065e6000805160206122cc833981519152826113bb565b610ad1336110d9565b610aed5760405162461bcd60e51b81526004016106ba9061208c565b6000610af761173a565b60405163f44c7c8f60e01b81526001600160a01b03848116600483015291925060009183169063f44c7c8f90602401602060405180830381865afa158015610b43573d6000803e3d6000fd5b505050506040513d601f19601f82011682018060405250810190610b6791906120c6565b90506001600160a01b038116610bb45760405162461bcd60e51b81526020600482015260126024820152711513d2d15397d393d517d1539493d313115160721b60448201526064016106ba565b6000196001600160a01b03821601610cc457604051632ab899fb60e11b81526001600160a01b0384811660048301526000919084169063557133f690602401600060405180830381865afa158015610c10573d6000803e3d6000fd5b505050506040513d6000823e601f3d908101601f19168201604052610c3891908101906120f9565b5115610c79576040518060400160405280601981526020017f544f4b454e5f414c52454144595f444541435449564154454400000000000000815250610ca8565b604051806040016040528060158152602001741513d2d15397d053149150511657d09313d0d2d151605a1b8152505b90508060405162461bcd60e51b81526004016106ba9190611fbf565b60405133906001600160a01b038516907e068b447690811e3678da5fdb0b8f068476a81898e529dfc87d3dc69af019ff90600090a3604051630e4c2edd60e31b81526001600160a01b03848116600483015283169063726176e890602401600060405180830381600087803b158015610d3c57600080fd5b505af1158015610d50573d6000803e3d6000fd5b50505050610d5c611717565b6001600160a01b0316816001600160a01b031603610ddb57610d7c611717565b604051633ea053eb60e01b81526001600160a01b0385811660048301529190911690633ea053eb906024015b600060405180830381600087803b158015610dc257600080fd5b505af1158015610dd6573d6000803e3d6000fd5b505050505b505050565b6000610a9b60008051602061230c8339815191528361175d565b6000610a9b6000805160206123d08339815191528361175d565b61065e60008051602061230c833981519152826113bb565b610e35336110d9565b610e515760405162461bcd60e51b81526004016106ba9061208c565b6000610e5b61173a565b60405163f44c7c8f60e01b81526001600160a01b03848116600483015291925060009183169063f44c7c8f90602401602060405180830381865afa158015610ea7573d6000803e3d6000fd5b505050506040513d601f19601f82011682018060405250810190610ecb91906120c6565b90506001600160a01b038116610f3f5760405133906001600160a01b038516907f9069e4065b5a726f2c4660d01a195dfe89fec6c66ddeb2820353bc5a7518c7e990600090a3604051630e4c2edd60e31b81526001600160a01b03848116600483015283169063726176e890602401610da8565b6000196001600160a01b0382160161100457604051632ab899fb60e11b81526001600160a01b0384811660048301526000919084169063557133f690602401600060405180830381865afa158015610f9b573d6000803e3d6000fd5b505050506040513d6000823e601f3d908101601f19168201604052610fc391908101906120f9565b5115610c79576040518060400160405280601e81526020017f43414e4e4f545f424c4f434b5f44454143544956415445445f544f4b454e0000815250610ca8565b60405162461bcd60e51b815260206004820152601d60248201527f43414e4e4f545f424c4f434b5f544f4b454e5f494e5f5345525649434500000060448201526064016106ba565b6000610a9b60008051602061236f8339815191528361175d565b80336001600160a01b0382160361108f5760405162461bcd60e51b81526004016106ba90611ff2565b6106db6000805160206122cc833981519152836113d7565b6000610a9b60008051602061238f8339815191528361175d565b61065e6000805160206122ac833981519152826113bb565b6000610a9b6000805160206123f08339815191528361175d565b60006110fd61173a565b60405163f44c7c8f60e01b81526001600160a01b03848116600483015291925060019183169063f44c7c8f90602401602060405180830381865afa158015611149573d6000803e3d6000fd5b505050506040513d601f19601f8201168201806040525081019061116d91906120c6565b6001600160a01b0316036111ba5760405162461bcd60e51b815260206004820152601460248201527343414e4e4f545f4445504c4f595f42524944474560601b60448201526064016106ba565b60405133906001600160a01b038416907f22a7d63273ca5d74f19d48b49212c82be27729cc3353449d494d000fc435bee490600090a3806001600160a01b031663a3ecff8f83611208611717565b6040516001600160e01b031960e085901b1681526001600160a01b03928316600482015291166024820152604401600060405180830381600087803b15801561125057600080fd5b505af1158015611264573d6000803e3d6000fd5b50505050611270611717565b604051632b62e4ad60e21b81526001600160a01b038481166004830152919091169063ad8b92b49034906024016000604051808303818588803b158015610dc257600080fd5b6000610a9b6000805160206122ac8339815191528361175d565b61065e6000805160206122ec833981519152826113bb565b6000610a9b6000805160206122cc8339815191528361175d565b61065e60008051602061236f833981519152826113d7565b61065e6000805160206122ec833981519152826113d7565b61065e60008051602061230c833981519152826113d7565b80336001600160a01b038216036113735760405162461bcd60e51b81526004016106ba90611ff2565b6106db6000805160206122ac833981519152836113d7565b61065e6000805160206123f0833981519152826113d7565b61065e6000805160206123d0833981519152826113d7565b6113c482611795565b6113cd816117b7565b610ddb83836117c1565b6113e082611795565b6113e9816117b7565b610ddb8383611837565b6001600160a01b03811633146114635760405162461bcd60e51b815260206004820152602f60248201527f416363657373436f6e74726f6c3a2063616e206f6e6c792072656e6f756e636560448201526e103937b632b9903337b91039b2b63360891b60648201526084016106ba565b6106db8282611837565b6001600160a01b0383163b6114b95760405162461bcd60e51b8152602060048201526012602482015271115250d7d393d517d057d0d3d395149050d560721b60448201526064016106ba565b600080846001600160a01b031663439fab9160e01b85856040516024016114e19291906121be565b60408051601f198184030181529181526020820180516001600160e01b03166001600160e01b031990941693909317909252905161151f91906121ed565b600060405180830381855af49150503d806000811461155a576040519150601f19603f3d011682016040523d82523d6000602084013e61155f565b606091505b50915091508181906115845760405162461bcd60e51b81526004016106ba9190611fbf565b5080518190156115a75760405162461bcd60e51b81526004016106ba9190611fbf565b505050505050565b6000806115ba61173a565b6001600160a01b03161415905090565b6040811461160e5760405162461bcd60e51b8152602060048201526011602482015270494c4c4547414c5f444154415f53495a4560781b60448201526064016106ba565b60008061161d83850185611f6d565b91509150611634826001600160a01b03163b151590565b61168a5760405162461bcd60e51b815260206004820152602160248201527f494e56414c49445f52454749535452595f434f4e54524143545f4144445245536044820152605360f81b60648201526084016106ba565b6001600160a01b0381163b6116e15760405162461bcd60e51b815260206004820152601f60248201527f494e56414c49445f4252494447455f434f4e54524143545f414444524553530060448201526064016106ba565b50505050565b6000806116f683850185611f6d565b91509150611703826118ab565b6116e1816118cd565b3361065e81806118ef565b6000610aab6040518060600160405280602181526020016123af602191396119f3565b6000610aab60405180606001604052806023815260200161234c602391396119f3565b600091825260008051602061232c833981519152602090815260408084206001600160a01b0393909316845291905290205460ff1690565b600090815260008051602061232c833981519152602052604090206001015490565b61065e8133611a27565b6117cb828261175d565b6106db57600082815260008051602061232c833981519152602090815260408083206001600160a01b0385168085529252808320805460ff1916600117905551339285917f2f8788117e7eff1d82e926ec794901d17c78024a50270940304540a733656f0d9190a45050565b611841828261175d565b156106db57600082815260008051602061232c833981519152602090815260408083206001600160a01b0385168085529252808320805460ff1916905551339285917ff6391f5c32d9c69d2a47ea670b442974b53935d1edc7fd64eb21e047a839171b9190a45050565b61065e60405180606001604052806023815260200161234c6023913982611a8b565b61065e6040518060600160405280602181526020016123af6021913982611a8b565b6118f7611ae4565b15611965576119146000805160206122ac8339815191528361175d565b6119605760405162461bcd60e51b815260206004820152601960248201527f524f4c45535f414c52454144595f494e495449414c495a45440000000000000060448201526064016106ba565b61196e565b61196e82611b05565b611976611bf3565b156119ea576119936000805160206122cc8339815191528261175d565b6106db5760405162461bcd60e51b815260206004820152602260248201527f53454355524954595f524f4c45535f414c52454144595f494e495449414c495a604482015261115160f21b60648201526084016106ba565b6106db81611c0d565b60008082604051602001611a0791906121ed565b60408051601f198184030181529190528051602090910120549392505050565b611a31828261175d565b6106db57611a49816001600160a01b03166014611c63565b611a54836020611c63565b604051602001611a65929190612209565b60408051601f198184030181529082905262461bcd60e51b82526106ba91600401611fbf565b6000611a96836119f3565b6001600160a01b031614611ada5760405162461bcd60e51b815260206004820152600b60248201526a1053149150511657d4d15560aa1b60448201526064016106ba565b6106db8282611e06565b600080611afe6000805160206122ac833981519152611795565b1415905090565b611b1d6000805160206122ac833981519152826117c1565b611b436000805160206122ec83398151915260008051602061238f833981519152611e39565b611b6960008051602061238f8339815191526000805160206122ac833981519152611e39565b611b816000805160206122ac83398151915280611e39565b611ba76000805160206123d083398151915260008051602061238f833981519152611e39565b611bcd6000805160206123f083398151915260008051602061238f833981519152611e39565b61065e60008051602061230c8339815191526000805160206122ac833981519152611e39565b600080611afe6000805160206122cc833981519152611795565b611c256000805160206122cc83398151915280611e39565b611c4b60008051602061236f8339815191526000805160206122cc833981519152611e39565b61065e6000805160206122cc833981519152826117c1565b60606000611c72836002612038565b611c7d90600261204f565b67ffffffffffffffff811115611c9557611c956120e3565b6040519080825280601f01601f191660200182016040528015611cbf576020820181803683370190505b509050600360fc1b81600081518110611cda57611cda61227e565b60200101906001600160f81b031916908160001a905350600f60fb1b81600181518110611d0957611d0961227e565b60200101906001600160f81b031916908160001a9053506000611d2d846002612038565b611d3890600161204f565b90505b6001811115611db0576f181899199a1a9b1b9c1cb0b131b232b360811b85600f1660108110611d6c57611d6c61227e565b1a60f81b828281518110611d8257611d8261227e565b60200101906001600160f81b031916908160001a90535060049490941c93611da981612294565b9050611d3b565b508315611dff5760405162461bcd60e51b815260206004820181905260248201527f537472696e67733a20686578206c656e67746820696e73756666696369656e7460448201526064016106ba565b9392505050565b600082604051602001611e1991906121ed565b604051602081830303815290604052805190602001209050818155505050565b6000611e4483611795565b600084815260008051602061232c8339815191526020526040808220600101859055519192508391839186917fbd79b86ffe0ab8e8776151514217cd7cacd52c909f66475c3af44e129f0b00ff9190a4505050565b6001600160a01b038116811461065e57600080fd5b600060208284031215611ec057600080fd5b8135611dff81611e99565b60008060408385031215611ede57600080fd5b823591506020830135611ef081611e99565b809150509250929050565b60008060208385031215611f0e57600080fd5b823567ffffffffffffffff80821115611f2657600080fd5b818501915085601f830112611f3a57600080fd5b813581811115611f4957600080fd5b866020828501011115611f5b57600080fd5b60209290920196919550909350505050565b60008060408385031215611f8057600080fd5b8235611f8b81611e99565b91506020830135611ef081611e99565b60005b83811015611fb6578181015183820152602001611f9e565b50506000910152565b6020815260008251806020840152611fde816040850160208701611f9b565b601f01601f19169190910160400192915050565b60208082526016908201527521a0a72727aa2fa822a92327a926afa7a72fa9a2a62360511b604082015260600190565b634e487b7160e01b600052601160045260246000fd5b8082028115828204841417610a9b57610a9b612022565b80820180821115610a9b57610a9b612022565b6000808585111561207257600080fd5b8386111561207f57600080fd5b5050820193919092039150565b60208082526010908201526f27a7262cafaa27a5a2a72fa0a226a4a760811b604082015260600190565b80516120c181611e99565b919050565b6000602082840312156120d857600080fd5b8151611dff81611e99565b634e487b7160e01b600052604160045260246000fd5b6000602080838503121561210c57600080fd5b825167ffffffffffffffff8082111561212457600080fd5b818501915085601f83011261213857600080fd5b81518181111561214a5761214a6120e3565b8060051b604051601f19603f8301168101818110858211171561216f5761216f6120e3565b60405291825284820192508381018501918883111561218d57600080fd5b938501935b828510156121b2576121a3856120b6565b84529385019392850192612192565b98975050505050505050565b60208152816020820152818360408301376000818301604090810191909152601f909201601f19160101919050565b600082516121ff818460208701611f9b565b9190910192915050565b7f416363657373436f6e74726f6c3a206163636f756e7420000000000000000000815260008351612241816017850160208801611f9b565b7001034b99036b4b9b9b4b733903937b6329607d1b6017918401918201528351612272816028840160208801611f9b565b01602801949350505050565b634e487b7160e01b600052603260045260246000fd5b6000816122a3576122a3612022565b50600019019056fe03711c9d994faf6055172091cb841fd4831aa743e6f3315163b06a122c841846026bd110619d11cfdfc28e281df893bc24828e89177318e9dbd860cdaedeb6b300d2ead78c620e94b02d0a996e99298c59ddccfa1d8a0149080ac3a20de060680251e864ca2a080f55bce5da2452e8cfcafdbc951a3e7fff5023d558452ec22853e43b954ba190a7e49386f1f78b01dcd9f628db23f432fa029a7dfd6d98e8fb535441524b474154455f4d414e414745525f52454749535452595f534c4f545f544147037693ba312785932d430dccf0f56ffedd0aa7c0f8b6da2cc4530c2717689b9603e615638e0b79444a70f8c695bf8f2a47033bf1cf95691ec3130f64939cee99535441524b474154455f4d414e414745525f4252494447455f534c4f545f544147023edb77f7c8cc9e38e8afe78954f703aeeda7fffe014eeb6e56ea84e62f6da70128d63adbf6b09002c26caf55c47e2f26635807e3ef1b027218aa74c8d61a3ea2646970667358221220cd36da92815ef578b14e116ffb30dc8824458229727a0d3f24d3a4de18c97f6564736f6c6343000817003303711c9d994faf6055172091cb841fd4831aa743e6f3315163b06a122c841846026bd110619d11cfdfc28e281df893bc24828e89177318e9dbd860cdaedeb6b353e43b954ba190a7e49386f1f78b01dcd9f628db23f432fa029a7dfd6d98e8fb03e615638e0b79444a70f8c695bf8f2a47033bf1cf95691ec3130f64939cee99","linkReferences":{}},"methodIdentifiers":{"addExistingBridge(address,address)":"4ee165d6","blockToken(address)":"726176e8","deactivateToken(address)":"68173bcf","enrollTokenBridge(address)":"c1d220fe","getRegistry()":"5ab1bd53","identify()":"eeb72866","initialize(bytes)":"439fab91","isAppGovernor(address)":"5a5d1bb9","isAppRoleAdmin(address)":"8e5224ff","isFrozen()":"33eeb147","isGovernanceAdmin(address)":"cb1cccce","isOperator(address)":"6d70f7ae","isSecurityAdmin(address)":"d08fb6cb","isSecurityAgent(address)":"757bd9ab","isTokenAdmin(address)":"a2bdde3d","isUpgradeGovernor(address)":"6c04d9d5","registerAppGovernor(address)":"cdd1f70d","registerAppRoleAdmin(address)":"17896383","registerGovernanceAdmin(address)":"9463629a","registerOperator(address)":"3682a450","registerSecurityAdmin(address)":"62a14376","registerSecurityAgent(address)":"0e770f23","registerTokenAdmin(address)":"0b3a2d21","registerUpgradeGovernor(address)":"6fc97cbf","renounceRole(bytes32,address)":"36568abe","revokeAppGovernor(address)":"deec9c5a","revokeAppRoleAdmin(address)":"2f951985","revokeGovernanceAdmin(address)":"ee0e6807","revokeOperator(address)":"fad8b32a","revokeSecurityAdmin(address)":"8101b64c","revokeSecurityAgent(address)":"d9fa7091","revokeTokenAdmin(address)":"fa0f73ba","revokeUpgradeGovernor(address)":"ed9ef16a"},"id":29}