{
  "abi": [
    {
      "type": "constructor",
      "inputs": [
        {
          "name": "upgradeActivationDelay",
          "type": "uint256",
          "internalType": "uint256"
        }
      ],
      "stateMutability": "nonpayable"
    },
    {
      "type": "fallback",
      "stateMutability": "payable"
    },
    {
      "type": "receive",
      "stateMutability": "payable"
    },
    {
      "type": "function",
      "name": "ENABLE_WINDOW_DURATION_SLOT",
      "inputs": [],
      "outputs": [
        {
          "name": "",
          "type": "bytes32",
          "internalType": "bytes32"
        }
      ],
      "stateMutability": "view"
    },
    {
      "type": "function",
      "name": "MAX_UPGRADE_DELAY",
      "inputs": [],
      "outputs": [
        {
          "name": "",
          "type": "uint256",
          "internalType": "uint256"
        }
      ],
      "stateMutability": "view"
    },
    {
      "type": "function",
      "name": "PROXY_VERSION",
      "inputs": [],
      "outputs": [
        {
          "name": "",
          "type": "string",
          "internalType": "string"
        }
      ],
      "stateMutability": "view"
    },
    {
      "type": "function",
      "name": "UPGRADE_DELAY_SLOT",
      "inputs": [],
      "outputs": [
        {
          "name": "",
          "type": "bytes32",
          "internalType": "bytes32"
        }
      ],
      "stateMutability": "view"
    },
    {
      "type": "function",
      "name": "addImplementation",
      "inputs": [
        {
          "name": "newImplementation",
          "type": "address",
          "internalType": "address"
        },
        {
          "name": "data",
          "type": "bytes",
          "internalType": "bytes"
        },
        {
          "name": "finalize",
          "type": "bool",
          "internalType": "bool"
        }
      ],
      "outputs": [],
      "stateMutability": "nonpayable"
    },
    {
      "type": "function",
      "name": "getEnableWindowDuration",
      "inputs": [],
      "outputs": [
        {
          "name": "duration",
          "type": "uint256",
          "internalType": "uint256"
        }
      ],
      "stateMutability": "view"
    },
    {
      "type": "function",
      "name": "getUpgradeActivationDelay",
      "inputs": [],
      "outputs": [
        {
          "name": "delay",
          "type": "uint256",
          "internalType": "uint256"
        }
      ],
      "stateMutability": "view"
    },
    {
      "type": "function",
      "name": "implementation",
      "inputs": [],
      "outputs": [
        {
          "name": "_implementation",
          "type": "address",
          "internalType": "address"
        }
      ],
      "stateMutability": "view"
    },
    {
      "type": "function",
      "name": "initialize",
      "inputs": [
        {
          "name": "",
          "type": "bytes",
          "internalType": "bytes"
        }
      ],
      "outputs": [],
      "stateMutability": "pure"
    },
    {
      "type": "function",
      "name": "isAppGovernor",
      "inputs": [
        {
          "name": "account",
          "type": "address",
          "internalType": "address"
        }
      ],
      "outputs": [
        {
          "name": "",
          "type": "bool",
          "internalType": "bool"
        }
      ],
      "stateMutability": "view"
    },
    {
      "type": "function",
      "name": "isAppRoleAdmin",
      "inputs": [
        {
          "name": "account",
          "type": "address",
          "internalType": "address"
        }
      ],
      "outputs": [
        {
          "name": "",
          "type": "bool",
          "internalType": "bool"
        }
      ],
      "stateMutability": "view"
    },
    {
      "type": "function",
      "name": "isGovernanceAdmin",
      "inputs": [
        {
          "name": "account",
          "type": "address",
          "internalType": "address"
        }
      ],
      "outputs": [
        {
          "name": "",
          "type": "bool",
          "internalType": "bool"
        }
      ],
      "stateMutability": "view"
    },
    {
      "type": "function",
      "name": "isNotFinalized",
      "inputs": [],
      "outputs": [
        {
          "name": "notFinal",
          "type": "bool",
          "internalType": "bool"
        }
      ],
      "stateMutability": "view"
    },
    {
      "type": "function",
      "name": "isOperator",
      "inputs": [
        {
          "name": "account",
          "type": "address",
          "internalType": "address"
        }
      ],
      "outputs": [
        {
          "name": "",
          "type": "bool",
          "internalType": "bool"
        }
      ],
      "stateMutability": "view"
    },
    {
      "type": "function",
      "name": "isSecurityAdmin",
      "inputs": [
        {
          "name": "account",
          "type": "address",
          "internalType": "address"
        }
      ],
      "outputs": [
        {
          "name": "",
          "type": "bool",
          "internalType": "bool"
        }
      ],
      "stateMutability": "view"
    },
    {
      "type": "function",
      "name": "isSecurityAgent",
      "inputs": [
        {
          "name": "account",
          "type": "address",
          "internalType": "address"
        }
      ],
      "outputs": [
        {
          "name": "",
          "type": "bool",
          "internalType": "bool"
        }
      ],
      "stateMutability": "view"
    },
    {
      "type": "function",
      "name": "isTokenAdmin",
      "inputs": [
        {
          "name": "account",
          "type": "address",
          "internalType": "address"
        }
      ],
      "outputs": [
        {
          "name": "",
          "type": "bool",
          "internalType": "bool"
        }
      ],
      "stateMutability": "view"
    },
    {
      "type": "function",
      "name": "isUpgradeGovernor",
      "inputs": [
        {
          "name": "account",
          "type": "address",
          "internalType": "address"
        }
      ],
      "outputs": [
        {
          "name": "",
          "type": "bool",
          "internalType": "bool"
        }
      ],
      "stateMutability": "view"
    },
    {
      "type": "function",
      "name": "registerAppGovernor",
      "inputs": [
        {
          "name": "account",
          "type": "address",
          "internalType": "address"
        }
      ],
      "outputs": [],
      "stateMutability": "nonpayable"
    },
    {
      "type": "function",
      "name": "registerAppRoleAdmin",
      "inputs": [
        {
          "name": "account",
          "type": "address",
          "internalType": "address"
        }
      ],
      "outputs": [],
      "stateMutability": "nonpayable"
    },
    {
      "type": "function",
      "name": "registerGovernanceAdmin",
      "inputs": [
        {
          "name": "account",
          "type": "address",
          "internalType": "address"
        }
      ],
      "outputs": [],
      "stateMutability": "nonpayable"
    },
    {
      "type": "function",
      "name": "registerOperator",
      "inputs": [
        {
          "name": "account",
          "type": "address",
          "internalType": "address"
        }
      ],
      "outputs": [],
      "stateMutability": "nonpayable"
    },
    {
      "type": "function",
      "name": "registerSecurityAdmin",
      "inputs": [
        {
          "name": "account",
          "type": "address",
          "internalType": "address"
        }
      ],
      "outputs": [],
      "stateMutability": "nonpayable"
    },
    {
      "type": "function",
      "name": "registerSecurityAgent",
      "inputs": [
        {
          "name": "account",
          "type": "address",
          "internalType": "address"
        }
      ],
      "outputs": [],
      "stateMutability": "nonpayable"
    },
    {
      "type": "function",
      "name": "registerTokenAdmin",
      "inputs": [
        {
          "name": "account",
          "type": "address",
          "internalType": "address"
        }
      ],
      "outputs": [],
      "stateMutability": "nonpayable"
    },
    {
      "type": "function",
      "name": "registerUpgradeGovernor",
      "inputs": [
        {
          "name": "account",
          "type": "address",
          "internalType": "address"
        }
      ],
      "outputs": [],
      "stateMutability": "nonpayable"
    },
    {
      "type": "function",
      "name": "removeImplementation",
      "inputs": [
        {
          "name": "removedImplementation",
          "type": "address",
          "internalType": "address"
        },
        {
          "name": "data",
          "type": "bytes",
          "internalType": "bytes"
        },
        {
          "name": "finalize",
          "type": "bool",
          "internalType": "bool"
        }
      ],
      "outputs": [],
      "stateMutability": "nonpayable"
    },
    {
      "type": "function",
      "name": "renounceRole",
      "inputs": [
        {
          "name": "role",
          "type": "bytes32",
          "internalType": "bytes32"
        },
        {
          "name": "account",
          "type": "address",
          "internalType": "address"
        }
      ],
      "outputs": [],
      "stateMutability": "nonpayable"
    },
    {
      "type": "function",
      "name": "revokeAppGovernor",
      "inputs": [
        {
          "name": "account",
          "type": "address",
          "internalType": "address"
        }
      ],
      "outputs": [],
      "stateMutability": "nonpayable"
    },
    {
      "type": "function",
      "name": "revokeAppRoleAdmin",
      "inputs": [
        {
          "name": "account",
          "type": "address",
          "internalType": "address"
        }
      ],
      "outputs": [],
      "stateMutability": "nonpayable"
    },
    {
      "type": "function",
      "name": "revokeGovernanceAdmin",
      "inputs": [
        {
          "name": "account",
          "type": "address",
          "internalType": "address"
        }
      ],
      "outputs": [],
      "stateMutability": "nonpayable"
    },
    {
      "type": "function",
      "name": "revokeOperator",
      "inputs": [
        {
          "name": "account",
          "type": "address",
          "internalType": "address"
        }
      ],
      "outputs": [],
      "stateMutability": "nonpayable"
    },
    {
      "type": "function",
      "name": "revokeSecurityAdmin",
      "inputs": [
        {
          "name": "account",
          "type": "address",
          "internalType": "address"
        }
      ],
      "outputs": [],
      "stateMutability": "nonpayable"
    },
    {
      "type": "function",
      "name": "revokeSecurityAgent",
      "inputs": [
        {
          "name": "account",
          "type": "address",
          "internalType": "address"
        }
      ],
      "outputs": [],
      "stateMutability": "nonpayable"
    },
    {
      "type": "function",
      "name": "revokeTokenAdmin",
      "inputs": [
        {
          "name": "account",
          "type": "address",
          "internalType": "address"
        }
      ],
      "outputs": [],
      "stateMutability": "nonpayable"
    },
    {
      "type": "function",
      "name": "revokeUpgradeGovernor",
      "inputs": [
        {
          "name": "account",
          "type": "address",
          "internalType": "address"
        }
      ],
      "outputs": [],
      "stateMutability": "nonpayable"
    },
    {
      "type": "function",
      "name": "upgradeTo",
      "inputs": [
        {
          "name": "newImplementation",
          "type": "address",
          "internalType": "address"
        },
        {
          "name": "data",
          "type": "bytes",
          "internalType": "bytes"
        },
        {
          "name": "finalize",
          "type": "bool",
          "internalType": "bool"
        }
      ],
      "outputs": [],
      "stateMutability": "payable"
    },
    {
      "type": "event",
      "name": "FinalizedImplementation",
      "inputs": [
        {
          "name": "implementation",
          "type": "address",
          "indexed": true,
          "internalType": "address"
        }
      ],
      "anonymous": false
    },
    {
      "type": "event",
      "name": "ImplementationAdded",
      "inputs": [
        {
          "name": "implementation",
          "type": "address",
          "indexed": true,
          "internalType": "address"
        },
        {
          "name": "initializer",
          "type": "bytes",
          "indexed": false,
          "internalType": "bytes"
        },
        {
          "name": "finalize",
          "type": "bool",
          "indexed": false,
          "internalType": "bool"
        }
      ],
      "anonymous": false
    },
    {
      "type": "event",
      "name": "ImplementationRemoved",
      "inputs": [
        {
          "name": "implementation",
          "type": "address",
          "indexed": true,
          "internalType": "address"
        },
        {
          "name": "initializer",
          "type": "bytes",
          "indexed": false,
          "internalType": "bytes"
        },
        {
          "name": "finalize",
          "type": "bool",
          "indexed": false,
          "internalType": "bool"
        }
      ],
      "anonymous": false
    },
    {
      "type": "event",
      "name": "ImplementationUpgraded",
      "inputs": [
        {
          "name": "implementation",
          "type": "address",
          "indexed": true,
          "internalType": "address"
        },
        {
          "name": "initializer",
          "type": "bytes",
          "indexed": false,
          "internalType": "bytes"
        }
      ],
      "anonymous": false
    },
    {
      "type": "event",
      "name": "RoleAdminChanged",
      "inputs": [
        {
          "name": "role",
          "type": "bytes32",
          "indexed": true,
          "internalType": "bytes32"
        },
        {
          "name": "previousAdminRole",
          "type": "bytes32",
          "indexed": true,
          "internalType": "bytes32"
        },
        {
          "name": "newAdminRole",
          "type": "bytes32",
          "indexed": true,
          "internalType": "bytes32"
        }
      ],
      "anonymous": false
    },
    {
      "type": "event",
      "name": "RoleGranted",
      "inputs": [
        {
          "name": "role",
          "type": "bytes32",
          "indexed": true,
          "internalType": "bytes32"
        },
        {
          "name": "account",
          "type": "address",
          "indexed": true,
          "internalType": "address"
        },
        {
          "name": "sender",
          "type": "address",
          "indexed": true,
          "internalType": "address"
        }
      ],
      "anonymous": false
    },
    {
      "type": "event",
      "name": "RoleRevoked",
      "inputs": [
        {
          "name": "role",
          "type": "bytes32",
          "indexed": true,
          "internalType": "bytes32"
        },
        {
          "name": "account",
          "type": "address",
          "indexed": true,
          "internalType": "address"
        },
        {
          "name": "sender",
          "type": "address",
          "indexed": true,
          "internalType": "address"
        }
      ],
      "anonymous": false
    }
  ],
  "bytecode": {
    "object": "0x60a060405234801562000010575f80fd5b5060405162002631380380620026318339810160408190526200003391620005ad565b5f608081905262000043620000a0565b506200006d817fc21dbb3089fcb2c4f4c6a67854ab4db2b0f233ea4b21b21f912d52d18fc5db1f55565b62000099621275007fb00a6109e73dbe7bbf8d3f18fb9221d2d024dc2671e3d5ff02532ccc4059073855565b50620005c5565b33620000ad8180620000b0565b50565b620000ba6200020f565b1562000152576001600160a01b0382165f9081527fa5fdb349cc4ffac7e8ce7d3b075149d1bc847367d814e69a9beca89ef02db8b0602052604090205460ff166200014c5760405162461bcd60e51b815260206004820152601960248201527f524f4c45535f414c52454144595f494e495449414c495a45440000000000000060448201526064015b60405180910390fd5b6200015d565b6200015d8262000260565b6200016762000400565b1562000204576001600160a01b0381165f9081527f2c11a1f9c63817dbb9f0faa966615764d2db5d6e008269e948a99e0b52181c23602052604090205460ff16620002005760405162461bcd60e51b815260206004820152602260248201527f53454355524954595f524f4c45535f414c52454144595f494e495449414c495a604482015261115160f21b606482015260840162000143565b5050565b62000200816200044f565b5f80516020620025518339815191525f9081525f80516020620025b18339815191526020527fa5fdb349cc4ffac7e8ce7d3b075149d1bc847367d814e69a9beca89ef02db8b15481905b1415905090565b6200027a5f805160206200255183398151915282620004b8565b620002a57ed2ead78c620e94b02d0a996e99298c59ddccfa1d8a0149080ac3a20de0606882620004b8565b620002bf5f80516020620025d183398151915282620004b8565b620002d95f80516020620025f183398151915282620004b8565b620002f35f805160206200261183398151915282620004b8565b6200030d5f805160206200259183398151915282620004b8565b620003467ed2ead78c620e94b02d0a996e99298c59ddccfa1d8a0149080ac3a20de060685f80516020620025d183398151915262000556565b6200036e5f80516020620025d18339815191525f805160206200255183398151915262000556565b620003885f80516020620025518339815191528062000556565b620003b05f80516020620025f18339815191525f80516020620025d183398151915262000556565b620003d85f80516020620026118339815191525f80516020620025d183398151915262000556565b620000ad5f80516020620025918339815191525f805160206200255183398151915262000556565b5f80516020620025718339815191525f9081525f80516020620025b18339815191526020527f2c11a1f9c63817dbb9f0faa966615764d2db5d6e008269e948a99e0b52181c2454819062000259565b620004695f80516020620025718339815191528062000556565b620004a37f037693ba312785932d430dccf0f56ffedd0aa7c0f8b6da2cc4530c2717689b965f805160206200257183398151915262000556565b620000ad5f8051602062002571833981519152825b5f8281525f80516020620025b1833981519152602090815260408083206001600160a01b038516845290915290205460ff1662000200575f8281525f80516020620025b1833981519152602090815260408083206001600160a01b0385168085529252808320805460ff1916600117905551339285917f2f8788117e7eff1d82e926ec794901d17c78024a50270940304540a733656f0d9190a45050565b5f8281525f80516020620025b18339815191526020526040808220600101805490849055905190918391839186917fbd79b86ffe0ab8e8776151514217cd7cacd52c909f66475c3af44e129f0b00ff9190a4505050565b5f60208284031215620005be575f80fd5b5051919050565b608051611f73620005de5f395f6108e80152611f735ff3fe60806040526004361061021d575f3560e01c806372a44f0711610122578063d08fb6cb116100aa578063e907fa3c1161006e578063e907fa3c14610747578063ed9ef16a1461077b578063ee0e68071461079a578063fa0f73ba146107b9578063fad8b32a146107d85761026f565b8063d08fb6cb146106a1578063d38d8d7a146106c0578063d9fa7091146106d6578063deec9c5a146106f5578063e02904c6146107145761026f565b80639463629a116100f15780639463629a146105e8578063a2bdde3d14610607578063c5ab845314610626578063cb1cccce14610663578063cdd1f70d146106825761026f565b806372a44f0714610577578063757bd9ab1461058b5780638101b64c146105aa5780638e5224ff146105c95761026f565b80635a5d1bb9116101a557806362a143761161017457806362a14376146104e85780636c04d9d5146105075780636d70f7ae146105265780636fc97cbf146105455780637147855d146105645761026f565b80635a5d1bb9146104485780635c60da1b146104775780635cef2e86146104aa5780635e3a97e7146104c95761026f565b80632f951985116101ec5780632f9519851461039957806336568abe146103b85780633682a450146103d7578063439fab91146103f657806352b1e35e146104155761026f565b80630b3a2d21146102f65780630e770f2314610315578063178963831461033457806320cea94d146103535761026f565b3661026f5760405162461bcd60e51b815260206004820181905260248201527f434f4e54524143545f4e4f545f45585045435445445f544f5f5245434549564560448201526064015b60405180910390fd5b5f6102855f80516020611f1e8339815191525490565b90506001600160a01b0381166102d65760405162461bcd60e51b815260206004820152601660248201527526a4a9a9a4a723afa4a6a82622a6a2a72a20aa24a7a760511b6044820152606401610266565b365f80375f80365f845af43d5f803e8080156102f0573d5ff35b3d5ffd5b005b348015610301575f80fd5b506102f4610310366004611b30565b6107f7565b348015610320575f80fd5b506102f461032f366004611b30565b610824565b34801561033f575f80fd5b506102f461034e366004611b30565b61084e565b34801561035e575f80fd5b506103867fc21dbb3089fcb2c4f4c6a67854ab4db2b0f233ea4b21b21f912d52d18fc5db1f81565b6040519081526020015b60405180910390f35b3480156103a4575f80fd5b506102f46103b3366004611b30565b610878565b3480156103c3575f80fd5b506102f46103d2366004611b49565b6108cf565b3480156103e2575f80fd5b506102f46103f1366004611b30565b610960565b348015610401575f80fd5b506102f4610410366004611bb8565b61098a565b348015610420575f80fd5b506103867fb00a6109e73dbe7bbf8d3f18fb9221d2d024dc2671e3d5ff02532ccc4059073881565b348015610453575f80fd5b50610467610462366004611b30565b6109cb565b6040519015158152602001610390565b348015610482575f80fd5b505f80516020611f1e833981519152546040516001600160a01b039091168152602001610390565b3480156104b5575f80fd5b506102f46104c4366004611c04565b6109fb565b3480156104d4575f80fd5b506102f46104e3366004611c04565b610b35565b3480156104f3575f80fd5b506102f4610502366004611b30565b610ca4565b348015610512575f80fd5b50610467610521366004611b30565b610cce565b348015610531575f80fd5b50610467610540366004611b30565b610cf9565b348015610550575f80fd5b506102f461055f366004611b30565b610d24565b6102f4610572366004611c04565b610d4e565b348015610582575f80fd5b506103866112d5565b348015610596575f80fd5b506104676105a5366004611b30565b611314565b3480156105b5575f80fd5b506102f46105c4366004611b30565b61133f565b3480156105d4575f80fd5b506104676105e3366004611b30565b611392565b3480156105f3575f80fd5b506102f4610602366004611b30565b6113bd565b348015610612575f80fd5b50610467610621366004611b30565b6113d4565b348015610631575f80fd5b50610656604051806040016040528060058152602001640352e302e360dc1b81525081565b6040516103909190611c88565b34801561066e575f80fd5b5061046761067d366004611b30565b6113ff565b34801561068d575f80fd5b506102f461069c366004611b30565b611417565b3480156106ac575f80fd5b506104676106bb366004611b30565b611440565b3480156106cb575f80fd5b5061038662ed4e0081565b3480156106e1575f80fd5b506102f46106f0366004611b30565b61146b565b348015610700575f80fd5b506102f461070f366004611b30565b611495565b34801561071f575f80fd5b507fb00a6109e73dbe7bbf8d3f18fb9221d2d024dc2671e3d5ff02532ccc4059073854610386565b348015610752575f80fd5b507f7d433c6f837e8f93009937c466c82efbb5ba621fae36886d0cac433c5d0aa7d25415610467565b348015610786575f80fd5b506102f4610795366004611b30565b6114be565b3480156107a5575f80fd5b506102f46107b4366004611b30565b6114e8565b3480156107c4575f80fd5b506102f46107d3366004611b30565b611528565b3480156107e3575f80fd5b506102f46107f2366004611b30565b611552565b6108217f0128d63adbf6b09002c26caf55c47e2f26635807e3ef1b027218aa74c8d61a3e8261157c565b50565b6108217f037693ba312785932d430dccf0f56ffedd0aa7c0f8b6da2cc4530c2717689b968261157c565b6108217f03e615638e0b79444a70f8c695bf8f2a47033bf1cf95691ec3130f64939cee998261157c565b80336001600160a01b038216036108a15760405162461bcd60e51b815260040161026690611cba565b6108cb7f03e615638e0b79444a70f8c695bf8f2a47033bf1cf95691ec3130f64939cee99836115b1565b5050565b5f80516020611ede8339815191528214801561090957507f0000000000000000000000000000000000000000000000000000000000000000155b156109565760405162461bcd60e51b815260206004820181905260248201527f43414e4e4f545f52454e4f554e43455f474f5645524e414e43455f41444d494e6044820152606401610266565b6108cb82826115e1565b6108217f023edb77f7c8cc9e38e8afe78954f703aeeda7fffe014eeb6e56ea84e62f6da78261157c565b60405162461bcd60e51b815260206004820152601660248201527543414e4e4f545f43414c4c5f494e495449414c495a4560501b6044820152606401610266565b5f6109f57ed2ead78c620e94b02d0a996e99298c59ddccfa1d8a0149080ac3a20de060688361165b565b92915050565b610a0433610cce565b610a205760405162461bcd60e51b815260040161026690611cea565b5f84848484604051602001610a389493929190611d41565b6040516020818303038152906040528051906020012090505f610a59611691565b5f8381526020919091526040902054905080610ab75760405162461bcd60e51b815260206004820152601b60248201527f554e4b4e4f574e5f555047524144455f494e464f524d4154494f4e00000000006044820152606401610266565b610abf611691565b5f8381526020919091526040812055610ad66116cc565b5f8381526020019081526020015f205f9055856001600160a01b03167fe99b980b5259f200e4c1da973ff0251b6d9aaa144714c8773976ecd62b8ebe8d868686604051610b2593929190611d78565b60405180910390a2505050505050565b610b3e33610cce565b610b5a5760405162461bcd60e51b815260040161026690611cea565b6001600160a01b0384163b610ba85760405162461bcd60e51b8152602060048201526014602482015273105111149154d4d7d393d517d0d3d395149050d560621b6044820152606401610266565b5f84848484604051602001610bc09493929190611d41565b6040516020818303038152906040528051906020012090505f610be16112d5565b610beb9042611db1565b90505f610c167fb00a6109e73dbe7bbf8d3f18fb9221d2d024dc2671e3d5ff02532ccc405907385490565b610c209083611db1565b905081610c2b611691565b5f858152602091909152604090205580610c436116cc565b5f8581526020019081526020015f2081905550866001600160a01b03167f723a7080d63c133cf338e44e00705cc1b7b2bde7e88d6218a8d62710a329ce1b878787604051610c9393929190611d78565b60405180910390a250505050505050565b6108217f026bd110619d11cfdfc28e281df893bc24828e89177318e9dbd860cdaedeb6b38261157c565b5f6109f57f0251e864ca2a080f55bce5da2452e8cfcafdbc951a3e7fff5023d558452ec2288361165b565b5f6109f57f023edb77f7c8cc9e38e8afe78954f703aeeda7fffe014eeb6e56ea84e62f6da78361165b565b6108217f0251e864ca2a080f55bce5da2452e8cfcafdbc951a3e7fff5023d558452ec2288261157c565b610d5733610cce565b610d735760405162461bcd60e51b815260040161026690611cea565b7f7d433c6f837e8f93009937c466c82efbb5ba621fae36886d0cac433c5d0aa7d25415610de25760405162461bcd60e51b815260206004820152601860248201527f494d504c454d454e544154494f4e5f46494e414c495a454400000000000000006044820152606401610266565b610dea611703565b15610e295760405162461bcd60e51b815260206004820152600f60248201526e29aa20aa22afa4a9afa32927ad22a760891b6044820152606401610266565b5f84848484604051602001610e419493929190611d41565b6040516020818303038152906040528051906020012090505f610e62611691565b5f83815260209190915260408120549150610e7b6116cc565b5f8481526020919091526040902054905081610ed95760405162461bcd60e51b815260206004820152601b60248201527f554e4b4e4f574e5f555047524144455f494e464f524d4154494f4e00000000006044820152606401610266565b6001600160a01b0387163b610f275760405162461bcd60e51b8152602060048201526014602482015273105111149154d4d7d393d517d0d3d395149050d560621b6044820152606401610266565b4282111580610f5257505f610f475f80516020611f1e8339815191525490565b6001600160a01b0316145b610f9e5760405162461bcd60e51b815260206004820152601760248201527f555047524144455f4e4f545f454e41424c45445f5945540000000000000000006044820152606401610266565b42811015610fe75760405162461bcd60e51b815260206004820152601660248201527512535413115351539510551253d397d156141254915160521b6044820152606401610266565b610ffc875f80516020611f1e83398151915255565b5f80886001600160a01b031663439fab9160e01b8989604051602401611023929190611dc4565b60408051601f198184030181529181526020820180516001600160e01b03166001600160e01b03199094169390931790925290516110619190611ddf565b5f60405180830381855af49150503d805f8114611099576040519150601f19603f3d011682016040523d82523d5f602084013e61109e565b606091505b50915091508181906110c35760405162461bcd60e51b81526004016102669190611c88565b5060408051600481526024810182526020810180516001600160e01b03166333eeb14760e01b17905290516001600160a01b038b169161110291611ddf565b5f60405180830381855af49150503d805f811461113a576040519150601f19603f3d011682016040523d82523d5f602084013e61113f565b606091505b509092509050816111925760405162461bcd60e51b815260206004820152601960248201527f43414c4c5f544f5f495346524f5a454e5f5245564552544544000000000000006044820152606401610266565b808060200190518101906111a69190611dfa565b156111f35760405162461bcd60e51b815260206004820152601960248201527f4e45575f494d504c454d454e544154494f4e5f46524f5a454e000000000000006044820152606401610266565b6111fb611691565b5f86815260209190915260408120556112126116cc565b5f8681526020019081526020015f205f9055886001600160a01b03167fff14288d542bc1c1d15a652cb52af735f065c0c9d70b48e454a203c260733544898960405161125f929190611dc4565b60405180910390a285156112ca5761129660017f7d433c6f837e8f93009937c466c82efbb5ba621fae36886d0cac433c5d0aa7d255565b6040516001600160a01b038a16907fc13b75a5f14b69ebdc2431a5d475b3bff371abe251b5064144306fbd9c4de35c905f90a25b505050505050505050565b7fc21dbb3089fcb2c4f4c6a67854ab4db2b0f233ea4b21b21f912d52d18fc5db1f80549062ed4e00821061130c5762ed4e0061130e565b815b91505090565b5f6109f57f037693ba312785932d430dccf0f56ffedd0aa7c0f8b6da2cc4530c2717689b968361165b565b80336001600160a01b038216036113685760405162461bcd60e51b815260040161026690611cba565b6108cb7f026bd110619d11cfdfc28e281df893bc24828e89177318e9dbd860cdaedeb6b3836115b1565b5f6109f57f03e615638e0b79444a70f8c695bf8f2a47033bf1cf95691ec3130f64939cee998361165b565b6108215f80516020611ede8339815191528261157c565b5f6109f57f0128d63adbf6b09002c26caf55c47e2f26635807e3ef1b027218aa74c8d61a3e8361165b565b5f6109f55f80516020611ede8339815191528361165b565b6108217ed2ead78c620e94b02d0a996e99298c59ddccfa1d8a0149080ac3a20de060688261157c565b5f6109f57f026bd110619d11cfdfc28e281df893bc24828e89177318e9dbd860cdaedeb6b38361165b565b6108217f037693ba312785932d430dccf0f56ffedd0aa7c0f8b6da2cc4530c2717689b96826115b1565b6108217ed2ead78c620e94b02d0a996e99298c59ddccfa1d8a0149080ac3a20de06068826115b1565b6108217f0251e864ca2a080f55bce5da2452e8cfcafdbc951a3e7fff5023d558452ec228826115b1565b80336001600160a01b038216036115115760405162461bcd60e51b815260040161026690611cba565b6108cb5f80516020611ede833981519152836115b1565b6108217f0128d63adbf6b09002c26caf55c47e2f26635807e3ef1b027218aa74c8d61a3e826115b1565b6108217f023edb77f7c8cc9e38e8afe78954f703aeeda7fffe014eeb6e56ea84e62f6da7826115b1565b5f8281525f80516020611efe83398151915260205260409020600101546115a2816117f2565b6115ac83836117fc565b505050565b5f8281525f80516020611efe83398151915260205260409020600101546115d7816117f2565b6115ac8383611870565b6001600160a01b03811633146116515760405162461bcd60e51b815260206004820152602f60248201527f416363657373436f6e74726f6c3a2063616e206f6e6c792072656e6f756e636560448201526e103937b632b9903337b91039b2b63360891b6064820152608401610266565b6108cb8282611870565b5f9182525f80516020611efe833981519152602090815260408084206001600160a01b0393909316845291905290205460ff1690565b5f6116c76040518060400160405280601481526020017350524f58595f355f454e41424c45445f54494d4560601b8152506118e2565b905090565b5f6116c76040518060400160405280601581526020017450524f58595f355f44495341424c45445f54494d4560581b8152506118e2565b5f8061171a5f80516020611f1e8339815191525490565b90506001600160a01b038116611731575f91505090565b60408051600481526024810182526020810180516001600160e01b03166333eeb14760e01b17905290515f9182916001600160a01b0385169161177391611ddf565b5f60405180830381855af49150503d805f81146117ab576040519150601f19603f3d011682016040523d82523d5f602084013e6117b0565b606091505b50915091508181906117d55760405162461bcd60e51b81526004016102669190611c88565b50808060200190518101906117ea9190611dfa565b935050505090565b6108218133611914565b611806828261165b565b6108cb575f8281525f80516020611efe833981519152602090815260408083206001600160a01b0385168085529252808320805460ff1916600117905551339285917f2f8788117e7eff1d82e926ec794901d17c78024a50270940304540a733656f0d9190a45050565b61187a828261165b565b156108cb575f8281525f80516020611efe833981519152602090815260408083206001600160a01b0385168085529252808320805460ff1916905551339285917ff6391f5c32d9c69d2a47ea670b442974b53935d1edc7fd64eb21e047a839171b9190a45050565b5f80826040516020016118f59190611ddf565b60408051601f1981840301815291905280516020909101209392505050565b61191e828261165b565b6108cb57611936816001600160a01b03166014611978565b611941836020611978565b604051602001611952929190611e15565b60408051601f198184030181529082905262461bcd60e51b825261026691600401611c88565b60605f611986836002611e89565b611991906002611db1565b67ffffffffffffffff8111156119a9576119a9611ea0565b6040519080825280601f01601f1916602001820160405280156119d3576020820181803683370190505b509050600360fc1b815f815181106119ed576119ed611eb4565b60200101906001600160f81b03191690815f1a905350600f60fb1b81600181518110611a1b57611a1b611eb4565b60200101906001600160f81b03191690815f1a9053505f611a3d846002611e89565b611a48906001611db1565b90505b6001811115611abf576f181899199a1a9b1b9c1cb0b131b232b360811b85600f1660108110611a7c57611a7c611eb4565b1a60f81b828281518110611a9257611a92611eb4565b60200101906001600160f81b03191690815f1a90535060049490941c93611ab881611ec8565b9050611a4b565b508315611b0e5760405162461bcd60e51b815260206004820181905260248201527f537472696e67733a20686578206c656e67746820696e73756666696369656e746044820152606401610266565b9392505050565b80356001600160a01b0381168114611b2b575f80fd5b919050565b5f60208284031215611b40575f80fd5b611b0e82611b15565b5f8060408385031215611b5a575f80fd5b82359150611b6a60208401611b15565b90509250929050565b5f8083601f840112611b83575f80fd5b50813567ffffffffffffffff811115611b9a575f80fd5b602083019150836020828501011115611bb1575f80fd5b9250929050565b5f8060208385031215611bc9575f80fd5b823567ffffffffffffffff811115611bdf575f80fd5b611beb85828601611b73565b90969095509350505050565b8015158114610821575f80fd5b5f805f8060608587031215611c17575f80fd5b611c2085611b15565b9350602085013567ffffffffffffffff811115611c3b575f80fd5b611c4787828801611b73565b9094509250506040850135611c5b81611bf7565b939692955090935050565b5f5b83811015611c80578181015183820152602001611c68565b50505f910152565b602081525f8251806020840152611ca6816040850160208701611c66565b601f01601f19169190910160400192915050565b60208082526016908201527521a0a72727aa2fa822a92327a926afa7a72fa9a2a62360511b604082015260600190565b60208082526015908201527427a7262cafaaa823a920a222afa3a7ab22a92727a960591b604082015260600190565b81835281816020850137505f828201602090810191909152601f909101601f19169091010190565b6001600160a01b03851681526060602082018190525f90611d659083018587611d19565b9050821515604083015295945050505050565b604081525f611d8b604083018587611d19565b90508215156020830152949350505050565b634e487b7160e01b5f52601160045260245ffd5b808201808211156109f5576109f5611d9d565b602081525f611dd7602083018486611d19565b949350505050565b5f8251611df0818460208701611c66565b9190910192915050565b5f60208284031215611e0a575f80fd5b8151611b0e81611bf7565b7f416363657373436f6e74726f6c3a206163636f756e742000000000000000000081525f8351611e4c816017850160208801611c66565b7001034b99036b4b9b9b4b733903937b6329607d1b6017918401918201528351611e7d816028840160208801611c66565b01602801949350505050565b80820281158282048414176109f5576109f5611d9d565b634e487b7160e01b5f52604160045260245ffd5b634e487b7160e01b5f52603260045260245ffd5b5f81611ed657611ed6611d9d565b505f19019056fe03711c9d994faf6055172091cb841fd4831aa743e6f3315163b06a122c84184653e43b954ba190a7e49386f1f78b01dcd9f628db23f432fa029a7dfd6d98e8fb177667240aeeea7e35eabe3a35e18306f336219e1386f7710a6bf8783f761b24a26469706673582212201ac84a54ca884fecbcbc7b2c5945c83ee2e3b251730028617aa81a9286b3229364736f6c6343000818003303711c9d994faf6055172091cb841fd4831aa743e6f3315163b06a122c841846026bd110619d11cfdfc28e281df893bc24828e89177318e9dbd860cdaedeb6b30251e864ca2a080f55bce5da2452e8cfcafdbc951a3e7fff5023d558452ec22853e43b954ba190a7e49386f1f78b01dcd9f628db23f432fa029a7dfd6d98e8fb03e615638e0b79444a70f8c695bf8f2a47033bf1cf95691ec3130f64939cee99023edb77f7c8cc9e38e8afe78954f703aeeda7fffe014eeb6e56ea84e62f6da70128d63adbf6b09002c26caf55c47e2f26635807e3ef1b027218aa74c8d61a3e",
    "linkReferences": {}
  },
  "methodIdentifiers": {
    "ENABLE_WINDOW_DURATION_SLOT()": "52b1e35e",
    "MAX_UPGRADE_DELAY()": "d38d8d7a",
    "PROXY_VERSION()": "c5ab8453",
    "UPGRADE_DELAY_SLOT()": "20cea94d",
    "addImplementation(address,bytes,bool)": "5e3a97e7",
    "getEnableWindowDuration()": "e02904c6",
    "getUpgradeActivationDelay()": "72a44f07",
    "implementation()": "5c60da1b",
    "initialize(bytes)": "439fab91",
    "isAppGovernor(address)": "5a5d1bb9",
    "isAppRoleAdmin(address)": "8e5224ff",
    "isGovernanceAdmin(address)": "cb1cccce",
    "isNotFinalized()": "e907fa3c",
    "isOperator(address)": "6d70f7ae",
    "isSecurityAdmin(address)": "d08fb6cb",
    "isSecurityAgent(address)": "757bd9ab",
    "isTokenAdmin(address)": "a2bdde3d",
    "isUpgradeGovernor(address)": "6c04d9d5",
    "registerAppGovernor(address)": "cdd1f70d",
    "registerAppRoleAdmin(address)": "17896383",
    "registerGovernanceAdmin(address)": "9463629a",
    "registerOperator(address)": "3682a450",
    "registerSecurityAdmin(address)": "62a14376",
    "registerSecurityAgent(address)": "0e770f23",
    "registerTokenAdmin(address)": "0b3a2d21",
    "registerUpgradeGovernor(address)": "6fc97cbf",
    "removeImplementation(address,bytes,bool)": "5cef2e86",
    "renounceRole(bytes32,address)": "36568abe",
    "revokeAppGovernor(address)": "deec9c5a",
    "revokeAppRoleAdmin(address)": "2f951985",
    "revokeGovernanceAdmin(address)": "ee0e6807",
    "revokeOperator(address)": "fad8b32a",
    "revokeSecurityAdmin(address)": "8101b64c",
    "revokeSecurityAgent(address)": "d9fa7091",
    "revokeTokenAdmin(address)": "fa0f73ba",
    "revokeUpgradeGovernor(address)": "ed9ef16a",
    "upgradeTo(address,bytes,bool)": "7147855d"
  },
  "id": 11
}