{
  "abi": [
    {
      "type": "constructor",
      "inputs": [
        {
          "name": "upgradeActivationDelay",
          "type": "uint256",
          "internalType": "uint256"
        }
      ],
      "stateMutability": "nonpayable"
    },
    {
      "type": "fallback",
      "stateMutability": "payable"
    },
    {
      "type": "receive",
      "stateMutability": "payable"
    },
    {
      "type": "function",
      "name": "MAX_UPGRADE_DELAY",
      "inputs": [],
      "outputs": [
        {
          "name": "",
          "type": "uint256",
          "internalType": "uint256"
        }
      ],
      "stateMutability": "view"
    },
    {
      "type": "function",
      "name": "PROXY_GOVERNANCE_TAG",
      "inputs": [],
      "outputs": [
        {
          "name": "",
          "type": "string",
          "internalType": "string"
        }
      ],
      "stateMutability": "view"
    },
    {
      "type": "function",
      "name": "PROXY_VERSION",
      "inputs": [],
      "outputs": [
        {
          "name": "",
          "type": "string",
          "internalType": "string"
        }
      ],
      "stateMutability": "view"
    },
    {
      "type": "function",
      "name": "UPGRADE_DELAY_SLOT",
      "inputs": [],
      "outputs": [
        {
          "name": "",
          "type": "bytes32",
          "internalType": "bytes32"
        }
      ],
      "stateMutability": "view"
    },
    {
      "type": "function",
      "name": "addImplementation",
      "inputs": [
        {
          "name": "newImplementation",
          "type": "address",
          "internalType": "address"
        },
        {
          "name": "data",
          "type": "bytes",
          "internalType": "bytes"
        },
        {
          "name": "finalize",
          "type": "bool",
          "internalType": "bool"
        }
      ],
      "outputs": [],
      "stateMutability": "nonpayable"
    },
    {
      "type": "function",
      "name": "getUpgradeActivationDelay",
      "inputs": [],
      "outputs": [
        {
          "name": "delay",
          "type": "uint256",
          "internalType": "uint256"
        }
      ],
      "stateMutability": "view"
    },
    {
      "type": "function",
      "name": "implementation",
      "inputs": [],
      "outputs": [
        {
          "name": "_implementation",
          "type": "address",
          "internalType": "address"
        }
      ],
      "stateMutability": "view"
    },
    {
      "type": "function",
      "name": "initialize",
      "inputs": [
        {
          "name": "",
          "type": "bytes",
          "internalType": "bytes"
        }
      ],
      "outputs": [],
      "stateMutability": "pure"
    },
    {
      "type": "function",
      "name": "isNotFinalized",
      "inputs": [],
      "outputs": [
        {
          "name": "notFinal",
          "type": "bool",
          "internalType": "bool"
        }
      ],
      "stateMutability": "view"
    },
    {
      "type": "function",
      "name": "proxyAcceptGovernance",
      "inputs": [],
      "outputs": [],
      "stateMutability": "nonpayable"
    },
    {
      "type": "function",
      "name": "proxyCancelNomination",
      "inputs": [],
      "outputs": [],
      "stateMutability": "nonpayable"
    },
    {
      "type": "function",
      "name": "proxyIsGovernor",
      "inputs": [
        {
          "name": "user",
          "type": "address",
          "internalType": "address"
        }
      ],
      "outputs": [
        {
          "name": "",
          "type": "bool",
          "internalType": "bool"
        }
      ],
      "stateMutability": "view"
    },
    {
      "type": "function",
      "name": "proxyNominateNewGovernor",
      "inputs": [
        {
          "name": "newGovernor",
          "type": "address",
          "internalType": "address"
        }
      ],
      "outputs": [],
      "stateMutability": "nonpayable"
    },
    {
      "type": "function",
      "name": "proxyRemoveGovernor",
      "inputs": [
        {
          "name": "governorForRemoval",
          "type": "address",
          "internalType": "address"
        }
      ],
      "outputs": [],
      "stateMutability": "nonpayable"
    },
    {
      "type": "function",
      "name": "removeImplementation",
      "inputs": [
        {
          "name": "removedImplementation",
          "type": "address",
          "internalType": "address"
        },
        {
          "name": "data",
          "type": "bytes",
          "internalType": "bytes"
        },
        {
          "name": "finalize",
          "type": "bool",
          "internalType": "bool"
        }
      ],
      "outputs": [],
      "stateMutability": "nonpayable"
    },
    {
      "type": "function",
      "name": "upgradeTo",
      "inputs": [
        {
          "name": "newImplementation",
          "type": "address",
          "internalType": "address"
        },
        {
          "name": "data",
          "type": "bytes",
          "internalType": "bytes"
        },
        {
          "name": "finalize",
          "type": "bool",
          "internalType": "bool"
        }
      ],
      "outputs": [],
      "stateMutability": "payable"
    },
    {
      "type": "event",
      "name": "FinalizedImplementation",
      "inputs": [
        {
          "name": "implementation",
          "type": "address",
          "indexed": true,
          "internalType": "address"
        }
      ],
      "anonymous": false
    },
    {
      "type": "event",
      "name": "ImplementationAdded",
      "inputs": [
        {
          "name": "implementation",
          "type": "address",
          "indexed": true,
          "internalType": "address"
        },
        {
          "name": "initializer",
          "type": "bytes",
          "indexed": false,
          "internalType": "bytes"
        },
        {
          "name": "finalize",
          "type": "bool",
          "indexed": false,
          "internalType": "bool"
        }
      ],
      "anonymous": false
    },
    {
      "type": "event",
      "name": "ImplementationRemoved",
      "inputs": [
        {
          "name": "implementation",
          "type": "address",
          "indexed": true,
          "internalType": "address"
        },
        {
          "name": "initializer",
          "type": "bytes",
          "indexed": false,
          "internalType": "bytes"
        },
        {
          "name": "finalize",
          "type": "bool",
          "indexed": false,
          "internalType": "bool"
        }
      ],
      "anonymous": false
    },
    {
      "type": "event",
      "name": "ImplementationUpgraded",
      "inputs": [
        {
          "name": "implementation",
          "type": "address",
          "indexed": true,
          "internalType": "address"
        },
        {
          "name": "initializer",
          "type": "bytes",
          "indexed": false,
          "internalType": "bytes"
        }
      ],
      "anonymous": false
    },
    {
      "type": "event",
      "name": "LogNewGovernorAccepted",
      "inputs": [
        {
          "name": "acceptedGovernor",
          "type": "address",
          "indexed": false,
          "internalType": "address"
        }
      ],
      "anonymous": false
    },
    {
      "type": "event",
      "name": "LogNominatedGovernor",
      "inputs": [
        {
          "name": "nominatedGovernor",
          "type": "address",
          "indexed": false,
          "internalType": "address"
        }
      ],
      "anonymous": false
    },
    {
      "type": "event",
      "name": "LogNominationCancelled",
      "inputs": [],
      "anonymous": false
    },
    {
      "type": "event",
      "name": "LogRemovedGovernor",
      "inputs": [
        {
          "name": "removedGovernor",
          "type": "address",
          "indexed": false,
          "internalType": "address"
        }
      ],
      "anonymous": false
    }
  ],
  "bytecode": {
    "object": "0x60806040523480156200001157600080fd5b5060405162001ba238038062001ba2833981810160405260208110156200003757600080fd5b50516200004362000055565b6200004e81620000e9565b5062000277565b6000620000616200010d565b6001810154909150600160a01b900460ff1615620000c6576040805162461bcd60e51b815260206004820152601360248201527f414c52454144595f494e495449414c495a454400000000000000000000000000604482015290519081900360640190fd5b60018101805460ff60a01b1916600160a01b179055620000e6336200018d565b50565b7fc21dbb3089fcb2c4f4c6a67854ab4db2b0f233ea4b21b21f912d52d18fc5db1f55565b60008060405180606001604052806027815260200162001b7b602791396040518082805190602001908083835b602083106200015b5780518252601f1990920191602091820191016200013a565b51815160209384036101000a600019018019909216911617905292019485525060405193849003019092209392505050565b620001988162000246565b15620001de576040805162461bcd60e51b815260206004820152601060248201526f20a62922a0a22cafa3a7ab22a92727a960811b604482015290519081900360640190fd5b6000620001ea6200010d565b6001600160a01b03831660008181526020838152604091829020805460ff19166001179055815192835290519293507fcfb473e6c03f9a29ddaf990e736fa3de5188a0bd85d684f5b6e164ebfbfff5d292918290030190a15050565b600080620002536200010d565b6001600160a01b039390931660009081526020939093525050604090205460ff1690565b6118f480620002876000396000f3fe6080604052600436106100f75760003560e01c80637147855d1161008a578063c5ab845311610059578063c5ab84531461059d578063d38d8d7a146105b2578063e907fa3c146105c7578063f9bcdde4146105dc57610149565b80637147855d1461048e57806372a44f071461050e5780638757653f14610523578063b449ea5d1461055657610149565b80635c60da1b116100c65780635c60da1b1461032e5780635cef2e861461035f5780635e3a97e7146103ec5780636684b1d61461047957610149565b806312f16e6d146101cd57806320cea94d14610202578063439fab911461022957806356f36dbf146102a457610149565b36610149576040805162461bcd60e51b815260206004820181905260248201527f434f4e54524143545f4e4f545f45585045435445445f544f5f52454345495645604482015290519081900360640190fd5b60006101536105f1565b90506001600160a01b0381166101a9576040805162461bcd60e51b815260206004820152601660248201527526a4a9a9a4a723afa4a6a82622a6a2a72a20aa24a7a760511b604482015290519081900360640190fd5b3660008037600080366000845af43d6000803e8080156101c8573d6000f35b3d6000fd5b3480156101d957600080fd5b50610200600480360360208110156101f057600080fd5b50356001600160a01b0316610616565b005b34801561020e57600080fd5b50610217610622565b60408051918252519081900360200190f35b34801561023557600080fd5b506102006004803603602081101561024c57600080fd5b810190602081018135600160201b81111561026657600080fd5b82018360208201111561027857600080fd5b803590602001918460018302840111600160201b8311171561029957600080fd5b509092509050610646565b3480156102b057600080fd5b506102b961068c565b6040805160208082528351818301528351919283929083019185019080838360005b838110156102f35781810151838201526020016102db565b50505050905090810190601f1680156103205780820380516001836020036101000a031916815260200191505b509250505060405180910390f35b34801561033a57600080fd5b506103436105f1565b604080516001600160a01b039092168252519081900360200190f35b34801561036b57600080fd5b506102006004803603606081101561038257600080fd5b6001600160a01b038235169190810190604081016020820135600160201b8111156103ac57600080fd5b8201836020820111156103be57600080fd5b803590602001918460018302840111600160201b831117156103df57600080fd5b91935091503515156106a8565b3480156103f857600080fd5b506102006004803603606081101561040f57600080fd5b6001600160a01b038235169190810190604081016020820135600160201b81111561043957600080fd5b82018360208201111561044b57600080fd5b803590602001918460018302840111600160201b8311171561046c57600080fd5b9193509150351515610866565b34801561048557600080fd5b50610200610a20565b610200600480360360608110156104a457600080fd5b6001600160a01b038235169190810190604081016020820135600160201b8111156104ce57600080fd5b8201836020820111156104e057600080fd5b803590602001918460018302840111600160201b8311171561050157600080fd5b9193509150351515610a2a565b34801561051a57600080fd5b506102176110ad565b34801561052f57600080fd5b506102006004803603602081101561054657600080fd5b50356001600160a01b03166110ed565b34801561056257600080fd5b506105896004803603602081101561057957600080fd5b50356001600160a01b03166110f6565b604080519115158252519081900360200190f35b3480156105a957600080fd5b506102b9611107565b3480156105be57600080fd5b50610217611128565b3480156105d357600080fd5b5061058961112f565b3480156105e857600080fd5b50610200611155565b7f177667240aeeea7e35eabe3a35e18306f336219e1386f7710a6bf8783f761b245490565b61061f8161115d565b50565b7fc21dbb3089fcb2c4f4c6a67854ab4db2b0f233ea4b21b21f912d52d18fc5db1f81565b6040805162461bcd60e51b815260206004820152601660248201527543414e4e4f545f43414c4c5f494e495449414c495a4560501b604482015290519081900360640190fd5b6040518060600160405280602781526020016118986027913981565b6106b1336112aa565b6106f4576040805162461bcd60e51b815260206004820152600f60248201526e4f4e4c595f474f5645524e414e434560881b604482015290519081900360640190fd5b60008484848460405160200180856001600160a01b031681526020018060200183151581526020018281038252858582818152602001925080828437600081840152601f19601f82011690508083019250505095505050505050604051602081830303815290604052805190602001209050600060026000838152602001908152602001600020549050600081116107d3576040805162461bcd60e51b815260206004820152601b60248201527f554e4b4e4f574e5f555047524144455f494e464f524d4154494f4e0000000000604482015290519081900360640190fd5b6002600083815260200190815260200160002060009055856001600160a01b03167fe99b980b5259f200e4c1da973ff0251b6d9aaa144714c8773976ecd62b8ebe8d868686604051808060200183151581526020018281038252858582818152602001925080828437600083820152604051601f909101601f1916909201829003965090945050505050a2505050505050565b61086f336112aa565b6108b2576040805162461bcd60e51b815260206004820152600f60248201526e4f4e4c595f474f5645524e414e434560881b604482015290519081900360640190fd5b6108c4846001600160a01b03166112d9565b61090c576040805162461bcd60e51b8152602060048201526014602482015273105111149154d4d7d393d517d0d3d395149050d560621b604482015290519081900360640190fd5b60008484848460405160200180856001600160a01b031681526020018060200183151581526020018281038252858582818152602001925080828437600081840152601f19601f8201169050808301925050509550505050505060405160208183030381529060405280519060200120905060006109886110ad565b42019050806002600084815260200190815260200160002081905550856001600160a01b03167f723a7080d63c133cf338e44e00705cc1b7b2bde7e88d6218a8d62710a329ce1b868686604051808060200183151581526020018281038252858582818152602001925080828437600083820152604051601f909101601f1916909201829003965090945050505050a2505050505050565b610a286112df565b565b610a33336112aa565b610a76576040805162461bcd60e51b815260206004820152600f60248201526e4f4e4c595f474f5645524e414e434560881b604482015290519081900360640190fd5b610a7e61112f565b610acf576040805162461bcd60e51b815260206004820152601860248201527f494d504c454d454e544154494f4e5f46494e414c495a45440000000000000000604482015290519081900360640190fd5b610ad7611369565b15610b1b576040805162461bcd60e51b815260206004820152600f60248201526e29aa20aa22afa4a9afa32927ad22a760891b604482015290519081900360640190fd5b60008484848460405160200180856001600160a01b031681526020018060200183151581526020018281038252858582818152602001925080828437600081840152601f19601f8201169050808301925050509550505050505060405160208183030381529060405280519060200120905060006002600083815260200190815260200160002054905060008111610bfa576040805162461bcd60e51b815260206004820152601b60248201527f554e4b4e4f574e5f555047524144455f494e464f524d4154494f4e0000000000604482015290519081900360640190fd5b610c0c866001600160a01b03166112d9565b610c54576040805162461bcd60e51b8152602060048201526014602482015273105111149154d4d7d393d517d0d3d395149050d560621b604482015290519081900360640190fd5b4281111580610c7357506000610c686105f1565b6001600160a01b0316145b610cc4576040805162461bcd60e51b815260206004820152601760248201527f555047524144455f4e4f545f454e41424c45445f594554000000000000000000604482015290519081900360640190fd5b610ccd866114cc565b60006060876001600160a01b031663439fab9160e01b88886040516024018080602001828103825284848281815260200192508082843760008382015260408051601f909201601f1990811690940182810390940182529283526020810180516001600160e01b03166001600160e01b0319909916989098178852915182519297909650869550935090915081905083835b60208310610d7e5780518252601f199092019160209182019101610d5f565b6001836020036101000a038019825116818451168082178552505050505050905001915050600060405180830381855af49150503d8060008114610dde576040519150601f19603f3d011682016040523d82523d6000602084013e610de3565b606091505b5091509150818190610e735760405162461bcd60e51b81526004018080602001828103825283818151815260200191508051906020019080838360005b83811015610e38578181015183820152602001610e20565b50505050905090810190601f168015610e655780820380516001836020036101000a031916815260200191505b509250505060405180910390fd5b5060408051600481526024810182526020810180516001600160e01b03166333eeb14760e01b178152915181516001600160a01b038c169382918083835b60208310610ed05780518252601f199092019160209182019101610eb1565b6001836020036101000a038019825116818451168082178552505050505050905001915050600060405180830381855af49150503d8060008114610f30576040519150601f19603f3d011682016040523d82523d6000602084013e610f35565b606091505b50909250905081610f8d576040805162461bcd60e51b815260206004820152601960248201527f43414c4c5f544f5f495346524f5a454e5f524556455254454400000000000000604482015290519081900360640190fd5b808060200190516020811015610fa257600080fd5b505115610ff6576040805162461bcd60e51b815260206004820152601960248201527f4e45575f494d504c454d454e544154494f4e5f46524f5a454e00000000000000604482015290519081900360640190fd5b876001600160a01b03167fff14288d542bc1c1d15a652cb52af735f065c0c9d70b48e454a203c260733544888860405180806020018281038252848482818152602001925080828437600083820152604051601f909101601f19169092018290039550909350505050a284156110a35761106e6114f0565b6040516001600160a01b038916907fc13b75a5f14b69ebdc2431a5d475b3bff371abe251b5064144306fbd9c4de35c90600090a25b5050505050505050565b7fc21dbb3089fcb2c4f4c6a67854ab4db2b0f233ea4b21b21f912d52d18fc5db1f80549062ed4e0082106110e45762ed4e006110e6565b815b9150505b90565b61061f81611516565b6000611101826112aa565b92915050565b60405180604001604052806005815260200164199718171960d91b81525081565b62ed4e0081565b7f7d433c6f837e8f93009937c466c82efbb5ba621fae36886d0cac433c5d0aa7d2541590565b610a286116bc565b611166336112aa565b6111a9576040805162461bcd60e51b815260206004820152600f60248201526e4f4e4c595f474f5645524e414e434560881b604482015290519081900360640190fd5b336001600160a01b03821614156111fe576040805162461bcd60e51b8152602060048201526014602482015273474f5645524e4f525f53454c465f52454d4f564560601b604482015290519081900360640190fd5b6000611208611766565b9050611213826112aa565b611253576040805162461bcd60e51b815260206004820152600c60248201526b2727aa2fa3a7ab22a92727a960a11b604482015290519081900360640190fd5b6001600160a01b03821660008181526020838152604091829020805460ff19169055815192835290517fd75f94825e770b8b512be8e74759e252ad00e102e38f50cce2f7c6f868a295999281900390910190a15050565b6000806112b5611766565b6001600160a01b039390931660009081526020939093525050604090205460ff1690565b3b151590565b60006112e9611766565b60018101549091506001600160a01b0316331461134d576040805162461bcd60e51b815260206004820152601760248201527f4f4e4c595f43414e4449444154455f474f5645524e4f52000000000000000000604482015290519081900360640190fd5b611356336117e3565b60010180546001600160a01b0319169055565b6000806113746105f1565b90506001600160a01b03811661138e5760009150506110ea565b60408051600481526024810182526020810180516001600160e01b03166333eeb14760e01b178152915181516000936060936001600160a01b038716939092909182918083835b602083106113f45780518252601f1990920191602091820191016113d5565b6001836020036101000a038019825116818451168082178552505050505050905001915050600060405180830381855af49150503d8060008114611454576040519150601f19603f3d011682016040523d82523d6000602084013e611459565b606091505b50915091508181906114ac5760405162461bcd60e51b8152602060048201818152835160248401528351909283926044909101919085019080838360008315610e38578181015183820152602001610e20565b508080602001905160208110156114c257600080fd5b5051935050505090565b7f177667240aeeea7e35eabe3a35e18306f336219e1386f7710a6bf8783f761b2455565b60017f7d433c6f837e8f93009937c466c82efbb5ba621fae36886d0cac433c5d0aa7d255565b61151f336112aa565b611562576040805162461bcd60e51b815260206004820152600f60248201526e4f4e4c595f474f5645524e414e434560881b604482015290519081900360640190fd5b600061156c611766565b90506001600160a01b0382166115b7576040805162461bcd60e51b815260206004820152600b60248201526a4241445f4144445245535360a81b604482015290519081900360640190fd5b6115c0826112aa565b15611605576040805162461bcd60e51b815260206004820152601060248201526f20a62922a0a22cafa3a7ab22a92727a960811b604482015290519081900360640190fd5b60018101546001600160a01b031615611665576040805162461bcd60e51b815260206004820152601760248201527f4f544845525f43414e4449444154455f50454e44494e47000000000000000000604482015290519081900360640190fd5b6001810180546001600160a01b0384166001600160a01b0319909116811790915560408051918252517f6166272c8d3f5f579082f2827532732f97195007983bb5b83ac12c56700b01a69181900360200190a15050565b6116c5336112aa565b611708576040805162461bcd60e51b815260206004820152600f60248201526e4f4e4c595f474f5645524e414e434560881b604482015290519081900360640190fd5b6000611712611766565b60018101549091506001600160a01b03161561061f576001810180546001600160a01b03191690556040517f7a8dc7dd7fffb43c4807438fa62729225156941e641fd877938f4edade3429f590600090a150565b600080604051806060016040528060278152602001611898602791396040518082805190602001908083835b602083106117b15780518252601f199092019160209182019101611792565b51815160209384036101000a600019018019909216911617905292019485525060405193849003019092209392505050565b6117ec816112aa565b15611831576040805162461bcd60e51b815260206004820152601060248201526f20a62922a0a22cafa3a7ab22a92727a960811b604482015290519081900360640190fd5b600061183b611766565b6001600160a01b03831660008181526020838152604091829020805460ff19166001179055815192835290519293507fcfb473e6c03f9a29ddaf990e736fa3de5188a0bd85d684f5b6e164ebfbfff5d292918290030190a1505056fe537461726b45782e50726f78792e323031392e476f7665726e6f7273496e666f726d6174696f6ea26469706673582212203a19bff527d274eefeeb7dd40b1b1b143070f4c97dfdf4f31d65f9e5648f10cd64736f6c634300060c0033537461726b45782e50726f78792e323031392e476f7665726e6f7273496e666f726d6174696f6e",
    "linkReferences": {}
  },
  "methodIdentifiers": {
    "MAX_UPGRADE_DELAY()": "d38d8d7a",
    "PROXY_GOVERNANCE_TAG()": "56f36dbf",
    "PROXY_VERSION()": "c5ab8453",
    "UPGRADE_DELAY_SLOT()": "20cea94d",
    "addImplementation(address,bytes,bool)": "5e3a97e7",
    "getUpgradeActivationDelay()": "72a44f07",
    "implementation()": "5c60da1b",
    "initialize(bytes)": "439fab91",
    "isNotFinalized()": "e907fa3c",
    "proxyAcceptGovernance()": "6684b1d6",
    "proxyCancelNomination()": "f9bcdde4",
    "proxyIsGovernor(address)": "b449ea5d",
    "proxyNominateNewGovernor(address)": "8757653f",
    "proxyRemoveGovernor(address)": "12f16e6d",
    "removeImplementation(address,bytes,bool)": "5cef2e86",
    "upgradeTo(address,bytes,bool)": "7147855d"
  },
  "id": 2
}