{"abi":[{"type":"function","name":"cancelL1ToL2Message","inputs":[{"name":"toAddress","type":"uint256","internalType":"uint256"},{"name":"selector","type":"uint256","internalType":"uint256"},{"name":"payload","type":"uint256[]","internalType":"uint256[]"},{"name":"nonce","type":"uint256","internalType":"uint256"}],"outputs":[{"name":"","type":"bytes32","internalType":"bytes32"}],"stateMutability":"nonpayable"},{"type":"function","name":"configHash","inputs":[],"outputs":[{"name":"","type":"uint256","internalType":"uint256"}],"stateMutability":"view"},{"type":"function","name":"consumeMessageFromL2","inputs":[{"name":"fromAddress","type":"uint256","internalType":"uint256"},{"name":"payload","type":"uint256[]","internalType":"uint256[]"}],"outputs":[{"name":"","type":"bytes32","internalType":"bytes32"}],"stateMutability":"nonpayable"},{"type":"function","name":"finalize","inputs":[],"outputs":[],"stateMutability":"nonpayable"},{"type":"function","name":"getMaxL1MsgFee","inputs":[],"outputs":[{"name":"","type":"uint256","internalType":"uint256"}],"stateMutability":"pure"},{"type":"function","name":"identify","inputs":[],"outputs":[{"name":"","type":"string","internalType":"string"}],"stateMutability":"pure"},{"type":"function","name":"initialize","inputs":[{"name":"data","type":"bytes","internalType":"bytes"}],"outputs":[],"stateMutability":"nonpayable"},{"type":"function","name":"isFinalized","inputs":[],"outputs":[{"name":"","type":"bool","internalType":"bool"}],"stateMutability":"view"},{"type":"function","name":"isFrozen","inputs":[],"outputs":[{"name":"","type":"bool","internalType":"bool"}],"stateMutability":"view"},{"type":"function","name":"isOperator","inputs":[{"name":"user","type":"address","internalType":"address"}],"outputs":[{"name":"","type":"bool","internalType":"bool"}],"stateMutability":"view"},{"type":"function","name":"l1ToL2MessageCancellations","inputs":[{"name":"msgHash","type":"bytes32","internalType":"bytes32"}],"outputs":[{"name":"","type":"uint256","internalType":"uint256"}],"stateMutability":"view"},{"type":"function","name":"l1ToL2MessageNonce","inputs":[],"outputs":[{"name":"","type":"uint256","internalType":"uint256"}],"stateMutability":"view"},{"type":"function","name":"l1ToL2Messages","inputs":[{"name":"msgHash","type":"bytes32","internalType":"bytes32"}],"outputs":[{"name":"","type":"uint256","internalType":"uint256"}],"stateMutability":"view"},{"type":"function","name":"l2ToL1Messages","inputs":[{"name":"msgHash","type":"bytes32","internalType":"bytes32"}],"outputs":[{"name":"","type":"uint256","internalType":"uint256"}],"stateMutability":"view"},{"type":"function","name":"messageCancellationDelay","inputs":[],"outputs":[{"name":"","type":"uint256","internalType":"uint256"}],"stateMutability":"view"},{"type":"function","name":"programHash","inputs":[],"outputs":[{"name":"","type":"uint256","internalType":"uint256"}],"stateMutability":"view"},{"type":"function","name":"registerOperator","inputs":[{"name":"newOperator","type":"address","internalType":"address"}],"outputs":[],"stateMutability":"nonpayable"},{"type":"function","name":"sendMessageToL2","inputs":[{"name":"toAddress","type":"uint256","internalType":"uint256"},{"name":"selector","type":"uint256","internalType":"uint256"},{"name":"payload","type":"uint256[]","internalType":"uint256[]"}],"outputs":[{"name":"","type":"bytes32","internalType":"bytes32"},{"name":"","type":"uint256","internalType":"uint256"}],"stateMutability":"payable"},{"type":"function","name":"setConfigHash","inputs":[{"name":"newConfigHash","type":"uint256","internalType":"uint256"}],"outputs":[],"stateMutability":"nonpayable"},{"type":"function","name":"setMessageCancellationDelay","inputs":[{"name":"delayInSeconds","type":"uint256","internalType":"uint256"}],"outputs":[],"stateMutability":"nonpayable"},{"type":"function","name":"setProgramHash","inputs":[{"name":"newProgramHash","type":"uint256","internalType":"uint256"}],"outputs":[],"stateMutability":"nonpayable"},{"type":"function","name":"starknetAcceptGovernance","inputs":[],"outputs":[],"stateMutability":"nonpayable"},{"type":"function","name":"starknetCancelNomination","inputs":[],"outputs":[],"stateMutability":"nonpayable"},{"type":"function","name":"starknetIsGovernor","inputs":[{"name":"user","type":"address","internalType":"address"}],"outputs":[{"name":"","type":"bool","internalType":"bool"}],"stateMutability":"view"},{"type":"function","name":"starknetNominateNewGovernor","inputs":[{"name":"newGovernor","type":"address","internalType":"address"}],"outputs":[],"stateMutability":"nonpayable"},{"type":"function","name":"starknetRemoveGovernor","inputs":[{"name":"governorForRemoval","type":"address","internalType":"address"}],"outputs":[],"stateMutability":"nonpayable"},{"type":"function","name":"startL1ToL2MessageCancellation","inputs":[{"name":"toAddress","type":"uint256","internalType":"uint256"},{"name":"selector","type":"uint256","internalType":"uint256"},{"name":"payload","type":"uint256[]","internalType":"uint256[]"},{"name":"nonce","type":"uint256","internalType":"uint256"}],"outputs":[{"name":"","type":"bytes32","internalType":"bytes32"}],"stateMutability":"nonpayable"},{"type":"function","name":"stateBlockHash","inputs":[],"outputs":[{"name":"","type":"uint256","internalType":"uint256"}],"stateMutability":"view"},{"type":"function","name":"stateBlockNumber","inputs":[],"outputs":[{"name":"","type":"int256","internalType":"int256"}],"stateMutability":"view"},{"type":"function","name":"stateRoot","inputs":[],"outputs":[{"name":"","type":"uint256","internalType":"uint256"}],"stateMutability":"view"},{"type":"function","name":"unregisterOperator","inputs":[{"name":"removedOperator","type":"address","internalType":"address"}],"outputs":[],"stateMutability":"nonpayable"},{"type":"function","name":"updateState","inputs":[{"name":"programOutput","type":"uint256[]","internalType":"uint256[]"}],"outputs":[],"stateMutability":"nonpayable"},{"type":"event","name":"ConfigHashChanged","inputs":[{"name":"changedBy","type":"address","indexed":true,"internalType":"address"},{"name":"oldConfigHash","type":"uint256","indexed":false,"internalType":"uint256"},{"name":"newConfigHash","type":"uint256","indexed":false,"internalType":"uint256"}],"anonymous":false},{"type":"event","name":"ConsumedMessageToL1","inputs":[{"name":"fromAddress","type":"uint256","indexed":true,"internalType":"uint256"},{"name":"toAddress","type":"address","indexed":true,"internalType":"address"},{"name":"payload","type":"uint256[]","indexed":false,"internalType":"uint256[]"}],"anonymous":false},{"type":"event","name":"ConsumedMessageToL2","inputs":[{"name":"fromAddress","type":"address","indexed":true,"internalType":"address"},{"name":"toAddress","type":"uint256","indexed":true,"internalType":"uint256"},{"name":"selector","type":"uint256","indexed":true,"internalType":"uint256"},{"name":"payload","type":"uint256[]","indexed":false,"internalType":"uint256[]"},{"name":"nonce","type":"uint256","indexed":false,"internalType":"uint256"}],"anonymous":false},{"type":"event","name":"Finalized","inputs":[],"anonymous":false},{"type":"event","name":"LogMessageToL1","inputs":[{"name":"fromAddress","type":"uint256","indexed":true,"internalType":"uint256"},{"name":"toAddress","type":"address","indexed":true,"internalType":"address"},{"name":"payload","type":"uint256[]","indexed":false,"internalType":"uint256[]"}],"anonymous":false},{"type":"event","name":"LogMessageToL2","inputs":[{"name":"fromAddress","type":"address","indexed":true,"internalType":"address"},{"name":"toAddress","type":"uint256","indexed":true,"internalType":"uint256"},{"name":"selector","type":"uint256","indexed":true,"internalType":"uint256"},{"name":"payload","type":"uint256[]","indexed":false,"internalType":"uint256[]"},{"name":"nonce","type":"uint256","indexed":false,"internalType":"uint256"},{"name":"fee","type":"uint256","indexed":false,"internalType":"uint256"}],"anonymous":false},{"type":"event","name":"LogNewGovernorAccepted","inputs":[{"name":"acceptedGovernor","type":"address","indexed":false,"internalType":"address"}],"anonymous":false},{"type":"event","name":"LogNominatedGovernor","inputs":[{"name":"nominatedGovernor","type":"address","indexed":false,"internalType":"address"}],"anonymous":false},{"type":"event","name":"LogNominationCancelled","inputs":[],"anonymous":false},{"type":"event","name":"LogOperatorAdded","inputs":[{"name":"operator","type":"address","indexed":false,"internalType":"address"}],"anonymous":false},{"type":"event","name":"LogOperatorRemoved","inputs":[{"name":"operator","type":"address","indexed":false,"internalType":"address"}],"anonymous":false},{"type":"event","name":"LogRemovedGovernor","inputs":[{"name":"removedGovernor","type":"address","indexed":false,"internalType":"address"}],"anonymous":false},{"type":"event","name":"LogStateTransitionFact","inputs":[{"name":"stateTransitionFact","type":"bytes32","indexed":false,"internalType":"bytes32"}],"anonymous":false},{"type":"event","name":"LogStateUpdate","inputs":[{"name":"globalRoot","type":"uint256","indexed":false,"internalType":"uint256"},{"name":"blockNumber","type":"int256","indexed":false,"internalType":"int256"},{"name":"blockHash","type":"uint256","indexed":false,"internalType":"uint256"}],"anonymous":false},{"type":"event","name":"MessageToL2Canceled","inputs":[{"name":"fromAddress","type":"address","indexed":true,"internalType":"address"},{"name":"toAddress","type":"uint256","indexed":true,"internalType":"uint256"},{"name":"selector","type":"uint256","indexed":true,"internalType":"uint256"},{"name":"payload","type":"uint256[]","indexed":false,"internalType":"uint256[]"},{"name":"nonce","type":"uint256","indexed":false,"internalType":"uint256"}],"anonymous":false},{"type":"event","name":"MessageToL2CancellationStarted","inputs":[{"name":"fromAddress","type":"address","indexed":true,"internalType":"address"},{"name":"toAddress","type":"uint256","indexed":true,"internalType":"uint256"},{"name":"selector","type":"uint256","indexed":true,"internalType":"uint256"},{"name":"payload","type":"uint256[]","indexed":false,"internalType":"uint256[]"},{"name":"nonce","type":"uint256","indexed":false,"internalType":"uint256"}],"anonymous":false},{"type":"event","name":"ProgramHashChanged","inputs":[{"name":"changedBy","type":"address","indexed":true,"internalType":"address"},{"name":"oldProgramHash","type":"uint256","indexed":false,"internalType":"uint256"},{"name":"newProgramHash","type":"uint256","indexed":false,"internalType":"uint256"}],"anonymous":false}],"bytecode":{"object":"0x60a060405234801561001057600080fd5b5030606081901b6080526130de6100316000398061093652506130de6000f3fe6080604052600436106101e35760003560e01c80638303bd8a1161010257806396115bc211610095578063e1f1176d11610064578063e1f1176d14610515578063e37fec251461052a578063e87e73321461053f578063eeb728661461055f576101e3565b806396115bc2146104955780639be446bf146104b5578063a46efaf3146104d5578063c99d397f146104f5576101e3565b80638d4e4083116100d15780638d4e40831461043657806391a66a261461044b578063946be3ed1461046b5780639588eca214610480576101e3565b80638303bd8a146103cc57806384f921cd146103e1578063853e2461146104015780638a9bf09014610421576101e3565b80633e3aa6c51161017a5780636170ff1b116101495780636170ff1b1461034c5780636d70f7ae1461036c57806377c7d7a91461038c5780637a98660b146103ac576101e3565b80633e3aa6c5146102e1578063439fab91146103025780634bb278f31461032257806354eccba414610337576101e3565b806335befa5d116101b657806335befa5d146102755780633682a4501461028a578063382d83e3146102ac5780633d07b336146102c1576101e3565b8063018cccdf146101e857806301a01590146102135780632c9dd5c01461024057806333eeb14714610260575b600080fd5b3480156101f457600080fd5b506101fd610581565b60405161020a91906126fb565b60405180910390f35b34801561021f57600080fd5b5061023361022e3660046122a9565b6105c6565b60405161020a91906126f0565b34801561024c57600080fd5b506101fd61025b366004612420565b6105d7565b34801561026c57600080fd5b506102336106ba565b34801561028157600080fd5b506101fd6106bf565b34801561029657600080fd5b506102aa6102a53660046122a9565b6106d2565b005b3480156102b857600080fd5b506101fd610773565b3480156102cd57600080fd5b506102aa6102dc36600461230c565b610786565b6102f46102ef36600461246a565b61081a565b60405161020a929190612704565b34801561030e57600080fd5b506102aa61031d366004612324565b610934565b34801561032e57600080fd5b506102aa610cfe565b34801561034357600080fd5b506101fd610d96565b34801561035857600080fd5b506101fd6103673660046124bb565b610da2565b34801561037857600080fd5b506102336103873660046122a9565b610ee4565b34801561039857600080fd5b506101fd6103a736600461230c565b610f11565b3480156103b857600080fd5b506101fd6103c73660046124bb565b610f2c565b3480156103d857600080fd5b506101fd610fe3565b3480156103ed57600080fd5b506102aa6103fc3660046122a9565b611006565b34801561040d57600080fd5b506102aa61041c3660046122cc565b61100f565b34801561042d57600080fd5b506101fd611175565b34801561044257600080fd5b50610233611198565b34801561045757600080fd5b506102aa6104663660046122a9565b6111bb565b34801561047757600080fd5b506102aa6111c4565b34801561048c57600080fd5b506101fd6111ce565b3480156104a157600080fd5b506102aa6104b03660046122a9565b6111de565b3480156104c157600080fd5b506101fd6104d036600461230c565b611274565b3480156104e157600080fd5b506101fd6104f036600461230c565b61127e565b34801561050157600080fd5b506102aa61051036600461230c565b611288565b34801561052157600080fd5b506101fd6112db565b34801561053657600080fd5b506102aa6112fe565b34801561054b57600080fd5b506102aa61055a36600461230c565b611306565b34801561056b57600080fd5b5061057461139a565b60405161020a9190612741565b60006105c16040518060400160405280602081526020017f535441524b4e45545f312e305f4d5347494e475f4c31544f4c325f4e4f4e43458152506113d1565b905090565b60006105d182611405565b92915050565b60405160009081906105f590869033908690889082906020016125d3565b6040516020818303038152906040528051906020012090506000610617611434565b600083815260209190915260409020541161064d5760405162461bcd60e51b815260040161064490612cbb565b60405180910390fd5b336001600160a01b0316857f7a06c571aa77f34d9706c51e5d8122b5595aebeaa34233bfe866f22befb973b18686604051610689929190612649565b60405180910390a3600161069b611434565b6000838152602091909152604090208054919091039055949350505050565b600090565b60006106c9611457565b60010154905090565b6106db33611405565b6106f75760405162461bcd60e51b815260040161064490612c09565b61070081610ee4565b61077057600161070e6114a1565b6001600160a01b0383166000908152602091909152604090819020805460ff191692151592909217909155517f50a18c352ee1c02ffe058e15c2eb6e58be387c81e73cc1e17035286e54c19a5790610767908390612635565b60405180910390a15b50565b600061077d611457565b60020154905090565b61078e611198565b156107ab5760405162461bcd60e51b815260040161064490612be6565b6107b433611405565b6107d05760405162461bcd60e51b815260040161064490612c09565b337f393c6beb5756a944b2967f15f31ff671e312e945d7a84fd3bdcfd6b408b2dc796107fa6112db565b83604051610809929190612704565b60405180910390a2610770816114c4565b6000806000341161083d5760405162461bcd60e51b815260040161064490612e0a565b610845610d96565b3411156108645760405162461bcd60e51b81526004016106449061297d565b600061086e610581565b90506108b26040518060400160405280602081526020017f535441524b4e45545f312e305f4d5347494e475f4c31544f4c325f4e4f4e4345815250826001016114e2565b8587336001600160a01b03167fdb80dd488acf86d17c747445b0eabb5d57c541d3bd7b6b87af987858e5066b2b888886346040516108f39493929190612681565b60405180910390a4600061090a8888888886611515565b905034600101610918611556565b6000838152602091909152604090205597909650945050505050565b7f00000000000000000000000000000000000000000000000000000000000000006001600160a01b031630141561097d5760405162461bcd60e51b815260040161064490612a49565b60006109876106ba565b602090810291508101808310156109b05760405162461bcd60e51b815260040161064490612c57565b6109ee6040518060400160405280601a81526020017f494e49545f444154415f544f4f5f534d414c4c203a20646f6e65000000000000815250611579565b610a2560405180604001604052806016815260200175656963416464726573732063616c63756c6174696e6760501b815250611579565b366000610a3483858789612e8c565b60408051808201909152601281527174656d70207661722063616c6320646f6e6560701b60208201529193509150610a6d9082876115bc565b6000610a7b8486888a612e8c565b810190610a8891906122a9565b9050610ac060405180604001604052806015815260200174195a58d059191c995cdcc818d85b18dd5b185d1959605a1b815250611579565b610aee6040518060400160405280600c81526020016b32b4b1a0b2323932b9b9901d60a11b81525082611608565b366000610afd87828a8c612e8c565b91509150610b0b8282610cfa565b610b2c60405180606001604052806023815260200161300c60239139611579565b366000610b3b8a89818e612e8c565b91509150610b6d6040518060400160405280600d81526020016c696e69744461746120646f6e6560981b815250611579565b6001600160a01b03851615610b9557610b8785838361164d565b505050505050505050610cfa565b610bc66040518060400160405280601081526020016f45494320636865636b203a20646f6e6560801b815250611579565b610bce611772565b15610bf6578015610bf15760405162461bcd60e51b8152600401610644906129eb565b610cf0565b610c226040518060400160405280600b81526020016a6e6f7420696e6974203a2960a81b815250611579565b610c2c8282611783565b610c6a6040518060400160405280601781526020017f76616c6964617465496e697444617461203a20646f6e65000000000000000000815250611579565b610c7482826117de565b610cb26040518060400160405280601e81526020017f696e697469616c697a65436f6e74726163745374617465203a20646f6e650000815250611579565b610cba611838565b610cf060405180604001604052806015815260200174696e6974476f7665726e616e6365203a20646f6e6560581b815250611579565b5050505050505050505b5050565b610d0733611405565b610d235760405162461bcd60e51b815260040161064490612c09565b610d2b611198565b15610d485760405162461bcd60e51b815260040161064490612be6565b610d6b6040518060600160405280603181526020016130786031913960016114e2565b6040517f6823b073d48d6e3a7d385eeb601452d680e74bb46afe3255a7d778f3a9b1768190600090a1565b670de0b6b3a764000090565b60008486336001600160a01b03167f8abd2ec2e0a10c82f5b60ea00455fa96c41fd144f225fcc52b8d83d94f803ed8878787604051610de39392919061265d565b60405180910390a46000610dfa8787878787611515565b90506000610e06611556565b60008381526020919091526040902054905080610e355760405162461bcd60e51b815260040161064490612b4a565b6000610e3f61188f565b60008481526020919091526040902054905080610e6e5760405162461bcd60e51b815260040161064490612dc8565b6000610e78610fe3565b8201905081811015610e9c5760405162461bcd60e51b8152600401610644906128dd565b80421015610ebc5760405162461bcd60e51b815260040161064490612914565b6000610ec6611556565b60008681526020919091526040902055509198975050505050505050565b6000610eee6114a1565b6001600160a01b0392909216600090815260209290925250604090205460ff1690565b6000610f1b611556565b600092835260205250604090205490565b60008486336001600160a01b03167f2e00dccd686fd6823ec7dc3e125582aa82881b6ff5f6b5a73856e1ea8338a3be878787604051610f6d9392919061265d565b60405180910390a46000610f848787878787611515565b90506000610f90611556565b60008381526020919091526040902054905080610fbf5760405162461bcd60e51b815260040161064490612b4a565b42610fc861188f565b60008481526020919091526040902055509695505050505050565b60006105c16040518060600160405280602d8152602001612fbe602d91396113d1565b610770816118b2565b61101833610ee4565b6110345760405162461bcd60e51b815260040161064490612d1f565b600061103e611457565b60010154905061104e838361198d565b8282600481811061105b57fe5b9050602002013561106a6112db565b146110875760405162461bcd60e51b815260040161064490612883565b61109b8383611094611457565b91906119ad565b60056110bb60016110ae85848189612e61565b6110b6611434565b611a57565b016110d560006110cd85848189612e61565b6110b6611556565b018281146110f55760405162461bcd60e51b815260040161064490612b13565b60006110ff611457565b90507fd342ddf7a308dec111745b00315c14b7efb2bdae570a6856e088ed0c65a3576c81600001548260010154836002015460405161114093929190612e4b565b60405180910390a18260010181600101541461116e5760405162461bcd60e51b8152600401610644906129b4565b5050505050565b60006105c1604051806060016040528060238152602001612f9b602391396113d1565b60006105c1604051806060016040528060318152602001613078603191396113d1565b61077081611e4c565b6111cc611f41565b565b60006111d8611457565b54905090565b6111e733611405565b6112035760405162461bcd60e51b815260040161064490612c09565b61120c81610ee4565b1561077057600061121b6114a1565b6001600160a01b0383166000908152602091909152604090819020805460ff191692151592909217909155517fec5f6c3a91a1efb1f9a308bb33c6e9e66bf9090fad0732f127dfdbf516d0625d90610767908390612635565b6000610f1b61188f565b6000610f1b611434565b611290611198565b156112ad5760405162461bcd60e51b815260040161064490612be6565b6112b633611405565b6112d25760405162461bcd60e51b815260040161064490612c09565b61077081611f96565b60006105c1604051806060016040528060218152602001612feb602191396113d1565b6111cc611fb8565b61130e611198565b1561132b5760405162461bcd60e51b815260040161064490612be6565b61133433611405565b6113505760405162461bcd60e51b815260040161064490612c09565b337f600a61c1b32ac42fb2fe76e8fc7582a98106668fc16dcd85567cd3937363e49b61137a611175565b83604051611389929190612704565b60405180910390a26107708161203b565b60408051808201909152601981527f537461726b576172655f537461726b6e65745f323032335f3600000000000000602082015290565b600080826040516020016113e591906125b4565b60408051601f198184030181529190528051602090910120549392505050565b60008061141061205d565b6001600160a01b039390931660009081526020939093525050604090205460ff1690565b60006105c160405180606001604052806023815260200161302f602391396120a6565b600080604051806060016040528060278152602001612f746027913960405160200161148391906125b4565b60408051601f19818403018152919052805160209091012092915050565b60006105c1604051806060016040528060288152602001612f1c602891396120a6565b610770604051806060016040528060218152602001612feb60219139825b6000826040516020016114f591906125b4565b604051602081830303815290604052805190602001209050818155505050565b60405160009061153590339088908590899088908a9082906020016125fd565b60405160208183030381529060405280519060200120905095945050505050565b60006105c1604051806060016040528060268152602001613052602691396120a6565b6107708160405160240161158d9190612741565b60408051601f198184030181529190526020810180516001600160e01b031663104c13eb60e21b1790526120d9565b6116038383836040516024016115d49392919061277e565b60408051601f198184030181529190526020810180516001600160e01b031663969cdd0360e01b1790526120d9565b505050565b610cfa828260405160240161161e929190612754565b60408051601f198184030181529190526020810180516001600160e01b031663319af33360e01b1790526120d9565b61165f836001600160a01b03166120fa565b61167b5760405162461bcd60e51b8152600401610644906127a3565b60006060846001600160a01b031663439fab9160e01b85856040516024016116a4929190612712565b60408051601f198184030181529181526020820180516001600160e01b03166001600160e01b03199094169390931790925290516116e291906125b4565b600060405180830381855af49150503d806000811461171d576040519150601f19603f3d011682016040523d82523d6000602084013e611722565b606091505b50915091508181906117475760405162461bcd60e51b81526004016106449190612741565b50805181901561176a5760405162461bcd60e51b81526004016106449190612741565b505050505050565b600061177c611175565b1515905090565b60c081146117a35760405162461bcd60e51b8152600401610644906127fa565b60006117b26020828486612e8c565b8101906117bf919061230c565b9050806116035760405162461bcd60e51b815260040161064490612ab0565b60008060006117eb612246565b6117f785870187612391565b93509350935093506118088461203b565b61181183612100565b6118238161181d611457565b90612122565b61182c826114c4565b61176a62069780611f96565b600061184261205d565b6001810154909150600160a01b900460ff16156118715760405162461bcd60e51b8152600401610644906128b0565b60018101805460ff60a01b1916600160a01b1790556107703361213c565b60006105c1604051806060016040528060308152602001612f44603091396120a6565b6118bb33611405565b6118d75760405162461bcd60e51b815260040161064490612c09565b336001600160a01b03821614156119005760405162461bcd60e51b815260040161064490612d74565b600061190a61205d565b905061191582611405565b6119315760405162461bcd60e51b815260040161064490612da2565b6001600160a01b03821660009081526020829052604090819020805460ff19169055517fd75f94825e770b8b512be8e74759e252ad00e102e38f50cce2f7c6f868a2959990611981908490612635565b60405180910390a15050565b60058111610cfa5760405162461bcd60e51b815260040161064490612b78565b600183810180549091019055818160028181106119c657fe5b905060200201358360010154146119ef5760405162461bcd60e51b815260040161064490612d46565b818160038181106119fc57fe5b6020029190910135600285015550366000611a1784846121c2565b91509150611a2582826121de565b855414611a445760405162461bcd60e51b815260040161064490612854565b611a4e82826121fc565b90945550505050565b60008084846000818110611a6757fe5b90506020020135905063400000008110611a935760405162461bcd60e51b815260040161064490612adc565b6001818101600088611aa6576004611aa9565b60025b905060005b82841015611d9b57838201888110611ad85760405162461bcd60e51b8152600401610644906127cf565b60008a8a83818110611ae657fe5b90506020020135905063400000008110611b125760405162461bcd60e51b815260040161064490612a19565b8181016001018a811115611b385760405162461bcd60e51b815260040161064490612baf565b8c15611c165760008c8c89908492611b5293929190612e61565b604051602001611b6392919061259f565b6040516020818303038152906040528051906020012090508c8c60018a01818110611b8a57fe5b905060200201356001600160a01b03168d8d60008b01818110611ba957fe5b905060200201357f4264ac208b5fde633ccdd42e0f12c3d6d443a4f3779bbf886925b94665b63a228f8f60038d01908792611be693929190612e61565b604051611bf4929190612649565b60405180910390a3600090815260208b90526040902080546001019055611d91565b60008c8c89908492611c2a93929190612e61565b604051602001611c3b92919061259f565b60408051601f1981840301815291815281516020928301206000818152928e905291205490915080611c7f5760405162461bcd60e51b815260040161064490612cbb565b600091825260208c9052604082208290559490940160001901938c8c60028a01818110611ca857fe5b90506020020135905060608d8d60058b01908592611cc893929190612e61565b80806020026020016040519081016040528093929190818152602001838360200280828437600081840152601f19601f8201169050808301925050505050505090508d8d60038b01818110611d1957fe5b905060200201358e8e60018c01818110611d2f57fe5b905060200201358f8f60008d01818110611d4557fe5b905060200201356001600160a01b03167f9592d37825c744e33fa80c469683bbd04d336241bb600b574758efd182abe26a8486604051611d869291906126a8565b60405180910390a450505b9550611aae915050565b828414611dba5760405162461bcd60e51b815260040161064490612adc565b8015611e3e576000336001600160a01b031682604051611dd9906125d0565b60006040518083038185875af1925050503d8060008114611e16576040519150601f19603f3d011682016040523d82523d6000602084013e611e1b565b606091505b5050905080611e3c5760405162461bcd60e51b815260040161064490612cf2565b505b509198975050505050505050565b611e5533611405565b611e715760405162461bcd60e51b815260040161064490612c09565b6000611e7b61205d565b90506001600160a01b038216611ea35760405162461bcd60e51b815260040161064490612c32565b611eac82611405565b15611ec95760405162461bcd60e51b81526004016106449061282a565b60018101546001600160a01b031615611ef45760405162461bcd60e51b815260040161064490612c84565b6001810180546001600160a01b0319166001600160a01b0384161790556040517f6166272c8d3f5f579082f2827532732f97195007983bb5b83ac12c56700b01a690611981908490612635565b6000611f4b61205d565b60018101549091506001600160a01b03163314611f7a5760405162461bcd60e51b815260040161064490612a79565b611f833361213c565b60010180546001600160a01b0319169055565b6107706040518060600160405280602d8152602001612fbe602d9139826114e2565b611fc133611405565b611fdd5760405162461bcd60e51b815260040161064490612c09565b6000611fe761205d565b60018101549091506001600160a01b031615610770576001810180546001600160a01b03191690556040517f7a8dc7dd7fffb43c4807438fa62729225156941e641fd877938f4edade3429f590600090a150565b610770604051806060016040528060238152602001612f9b60239139826114e2565b6000806040518060400160405280601c81526020017f535441524b4e45545f312e305f474f5645524e414e43455f494e464f0000000081525060405160200161148391906125b4565b600080826040516020016120ba91906125b4565b60408051601f1981840301815291905280516020909101209392505050565b80516a636f6e736f6c652e6c6f67602083016000808483855afa5050505050565b3b151590565b610770604051806060016040528060228152602001612efa602291398261220b565b805182556020810151600183015560400151600290910155565b61214581611405565b156121625760405162461bcd60e51b81526004016106449061282a565b600061216c61205d565b6001600160a01b03831660009081526020829052604090819020805460ff19166001179055519091507fcfb473e6c03f9a29ddaf990e736fa3de5188a0bd85d684f5b6e164ebfbfff5d290611981908490612635565b3660006121d26002828587612e61565b915091505b9250929050565b6000828260008181106121ed57fe5b90506020020135905092915050565b6000828260018181106121ed57fe5b6000612216836113d1565b6001600160a01b03161461223c5760405162461bcd60e51b815260040161064490612958565b610cfa82826114e2565b60405180606001604052806000815260200160008152602001600081525090565b60008083601f840112612278578182fd5b50813567ffffffffffffffff81111561228f578182fd5b60208301915083602080830285010111156121d757600080fd5b6000602082840312156122ba578081fd5b81356122c581612ee4565b9392505050565b600080602083850312156122de578081fd5b823567ffffffffffffffff8111156122f4578182fd5b61230085828601612267565b90969095509350505050565b60006020828403121561231d578081fd5b5035919050565b60008060208385031215612336578182fd5b823567ffffffffffffffff8082111561234d578384fd5b818501915085601f830112612360578384fd5b81358181111561236e578485fd5b86602082850101111561237f578485fd5b60209290920196919550909350505050565b60008060008084860360c08112156123a7578283fd5b8535945060208601356123b981612ee4565b9350604086013592506060605f19820112156123d3578182fd5b506040516060810181811067ffffffffffffffff821117156123f3578283fd5b8060405250606086013581526080860135602082015260a086013560408201528091505092959194509250565b600080600060408486031215612434578283fd5b83359250602084013567ffffffffffffffff811115612451578283fd5b61245d86828701612267565b9497909650939450505050565b6000806000806060858703121561247f578384fd5b8435935060208501359250604085013567ffffffffffffffff8111156124a3578283fd5b6124af87828801612267565b95989497509550505050565b6000806000806000608086880312156124d2578081fd5b8535945060208601359350604086013567ffffffffffffffff8111156124f6578182fd5b61250288828901612267565b96999598509660600135949350505050565b81835260006001600160fb1b0383111561252c578081fd5b6020830280836020870137939093016020019283525090919050565b60006001600160fb1b0383111561255d578081fd5b6020830280838637939093019283525090919050565b6000815180845261258b816020860160208601612eb4565b601f01601f19169290920160200192915050565b60006125ac828486612548565b949350505050565b600082516125c6818460208701612eb4565b9190910192915050565b90565b60008682528560208301528460408301526125f2606083018486612548565b979650505050505050565b600088825287602083015286604083015285606083015284608083015261262860a083018486612548565b9998505050505050505050565b6001600160a01b0391909116815260200190565b6000602082526125ac602083018486612514565b600060408252612671604083018587612514565b9050826020830152949350505050565b600060608252612695606083018688612514565b6020830194909452506040015292915050565b604080825283519082018190526000906020906060840190828701845b828110156126e1578151845292840192908401906001016126c5565b50505092019290925292915050565b901515815260200190565b90815260200190565b918252602082015260400190565b60006020825282602083015282846040840137818301604090810191909152601f909201601f19160101919050565b6000602082526122c56020830184612573565b6000604082526127676040830185612573565b905060018060a01b03831660208301529392505050565b6000606082526127916060830186612573565b60208301949094525060400152919050565b602080825260129082015271115250d7d393d517d057d0d3d395149050d560721b604082015260600190565b602080825260119082015270135154d4d051d157d513d3d7d4d213d495607a1b604082015260600190565b602080825260169082015275494c4c4547414c5f494e49545f444154415f53495a4560501b604082015260600190565b60208082526010908201526f20a62922a0a22cafa3a7ab22a92727a960811b604082015260600190565b6020808252601590820152741253959053125117d41491559253d554d7d493d3d5605a1b604082015260600190565b6020808252601390820152720929cac82989288be869e9c8c928ebe9082a69606b1b604082015260600190565b6020808252601390820152721053149150511657d253925512505312569151606a1b604082015260600190565b6020808252601c908201527f43414e43454c5f414c4c4f5745445f54494d455f4f564552464c4f5700000000604082015260600190565b60208082526024908201527f4d4553534147455f43414e43454c4c4154494f4e5f4e4f545f414c4c4f57454460408201526317d6515560e21b606082015260800190565b6020808252600b908201526a1053149150511657d4d15560aa1b604082015260600190565b60208082526017908201527f4d41585f4c315f4d53475f4645455f4558434545444544000000000000000000604082015260600190565b6020808252601a908201527f494e56414c49445f46494e414c5f424c4f434b5f4e554d424552000000000000604082015260600190565b602080825260149082015273554e45585045435445445f494e49545f4441544160601b604082015260600190565b6020808252601690820152750929cac82989288bea082b2989e8288be988a9c8ea8960531b604082015260600190565b6020808252601690820152751112549150d517d0d0531317d11254d0531313d5d15160521b604082015260600190565b60208082526017908201527f4f4e4c595f43414e4449444154455f474f5645524e4f52000000000000000000604082015260600190565b6020808252601290820152712120a22fa4a724aa24a0a624ad20aa24a7a760711b604082015260600190565b6020808252601c908201527f494e56414c49445f4d4553534147455f5345474d454e545f53495a4500000000604082015260600190565b60208082526018908201527f535441524b4e45545f4f55545055545f544f4f5f4c4f4e470000000000000000604082015260600190565b6020808252601490820152731393d7d35154d4d051d157d513d7d0d05390d15360621b604082015260600190565b60208082526019908201527f535441524b4e45545f4f55545055545f544f4f5f53484f525400000000000000604082015260600190565b60208082526019908201527f5452554e43415445445f4d4553534147455f5041594c4f414400000000000000604082015260600190565b60208082526009908201526811925390531256915160ba1b604082015260600190565b6020808252600f908201526e4f4e4c595f474f5645524e414e434560881b604082015260600190565b6020808252600b908201526a4241445f4144445245535360a81b604082015260600190565b6020808252601390820152721253925517d110551057d513d3d7d4d3505313606a1b604082015260600190565b60208082526017908201527f4f544845525f43414e4449444154455f50454e44494e47000000000000000000604082015260600190565b6020808252601a908201527f494e56414c49445f4d4553534147455f544f5f434f4e53554d45000000000000604082015260600190565b60208082526013908201527211551217d514905394d1915497d19052531151606a1b604082015260600190565b6020808252600d908201526c27a7262cafa7a822a920aa27a960991b604082015260600190565b60208082526014908201527324a72b20a624a22fa12627a1a5afa72aa6a122a960611b604082015260600190565b602080825260149082015273474f5645524e4f525f53454c465f52454d4f564560601b604082015260600190565b6020808252600c908201526b2727aa2fa3a7ab22a92727a960a11b604082015260600190565b60208082526022908201527f4d4553534147455f43414e43454c4c4154494f4e5f4e4f545f52455155455354604082015261115160f21b606082015260800190565b60208082526021908201527f4c315f4d53475f4645455f4d5553545f42455f475245415445525f5448414e5f6040820152600360fc1b606082015260800190565b9283526020830191909152604082015260600190565b60008085851115612e70578182fd5b83861115612e7c578182fd5b5050602083020193919092039150565b60008085851115612e9b578081fd5b83861115612ea7578081fd5b5050820193919092039150565b60005b83811015612ecf578181015183820152602001612eb7565b83811115612ede576000848401525b50505050565b6001600160a01b038116811461077057600080fdfe535441524b4e45545f312e305f494e49545f56455249464945525f41444452455353535441524b4e45545f312e305f524f4c45535f4f50455241544f52535f4d415050494e475f544147535441524b4e45545f312e305f4d5347494e475f4c31544f4c325f43414e43454c4c4154494f4e5f4d41505050494e47535441524b4e45545f312e305f494e49545f535441524b4e45545f53544154455f535452554354535441524b4e45545f312e305f494e49545f50524f4752414d5f484153485f55494e54535441524b4e45545f312e305f4d5347494e475f4c31544f4c325f43414e43454c4c4154494f4e5f44454c4159535441524b4e45545f312e305f535441524b4e45545f434f4e4649475f4841534870726f63657373537562436f6e747261637441646472657373657320646f6e65203a29535441524b4e45545f312e305f4d5347494e475f4c32544f4c315f4d41505050494e47535441524b4e45545f312e305f4d5347494e475f4c31544f4c325f4d41505050494e475f5632535441524b574152455f434f4e5452414354535f474f564552454e45445f46494e414c495a41424c455f312e305f544147a2646970667358221220e8d9e0e23cf24a1c2c35ffff40d04b03a0f394866f82a22211576980b7df487364736f6c634300060c0033","linkReferences":{}},"methodIdentifiers":{"cancelL1ToL2Message(uint256,uint256,uint256[],uint256)":"6170ff1b","configHash()":"e1f1176d","consumeMessageFromL2(uint256,uint256[])":"2c9dd5c0","finalize()":"4bb278f3","getMaxL1MsgFee()":"54eccba4","identify()":"eeb72866","initialize(bytes)":"439fab91","isFinalized()":"8d4e4083","isFrozen()":"33eeb147","isOperator(address)":"6d70f7ae","l1ToL2MessageCancellations(bytes32)":"9be446bf","l1ToL2MessageNonce()":"018cccdf","l1ToL2Messages(bytes32)":"77c7d7a9","l2ToL1Messages(bytes32)":"a46efaf3","messageCancellationDelay()":"8303bd8a","programHash()":"8a9bf090","registerOperator(address)":"3682a450","sendMessageToL2(uint256,uint256,uint256[])":"3e3aa6c5","setConfigHash(uint256)":"3d07b336","setMessageCancellationDelay(uint256)":"c99d397f","setProgramHash(uint256)":"e87e7332","starknetAcceptGovernance()":"946be3ed","starknetCancelNomination()":"e37fec25","starknetIsGovernor(address)":"01a01590","starknetNominateNewGovernor(address)":"91a66a26","starknetRemoveGovernor(address)":"84f921cd","startL1ToL2MessageCancellation(uint256,uint256,uint256[],uint256)":"7a98660b","stateBlockHash()":"382d83e3","stateBlockNumber()":"35befa5d","stateRoot()":"9588eca2","unregisterOperator(address)":"96115bc2","updateState(uint256[])":"853e2461"},"id":37}